:020000020000FC
:02000400C1D069
:02000800BFD067
:02000C00BDD065
:02001000BBD063
:02001400B9D061
:02001800B7D05F
:02001C00B5D05D
:02002000B3D05B
:02002400B1D059
:02002800AFD057
:02002C00ADD055
:02003000ABD053
:02003400A9D051
:02003800A7D04F
:02003C00A5D04D
:02004000A3D04B
:02004400A1D049
:020048009FD047
:02004C009DD045
:020050009BD043
:0200540099D041
:1000580097D000040002001C1700090041546D6588
:10006800676131363900AF93AFB7AF93BF93EF9362
:10007800FF93B091E600A0911201E0E0F1E0EA0FF1
:10008800F31DB083A395AF70A0931201FF91EF9178
:0A009800BF91AF91AFBFAF91189573
:020034001CC0EE
:1000A200001C4E1D371C1201871C4E1D371C1401EB
:1000B200871C1A1C06FF72782D6973720000001CDF
:1000C2007A00301C6100371C1401921CAB1C291EE3
:1000D200371C0F000D1E371C1401871C371C000132
:1000E200971D921C1A1C07FF72783F2D69737200CC
:1000F2005B00001C5A0A371C1401921C371C1201A7
:10010200921C0D1D1A1C07FF74782D706F6C6C0009
:100112007400001C9800301C8B00371CE600871C02
:100122001A1C08FF74783F2D706F6C6C8400001CE1
:100132005A0A371CE000921C371C20000D1E1A1CA4
:1001420004FF756272729200691C7E00AE0BB80BDE
:1001520006FF2B7573617274A100001C371C980096
:10016200371CE100871C371C0600371CE200871C85
:10017200A500AB1CE71E371CE500871C371CE400FA
:06018200871C51001A1C4D
:040000000C94630AEF
:100188000A920FB60A920F900F900A9400921601E5
:1001980009900FBE09906894089502FF6D2BA9007D
:1001A800001C620D39011A1C03FF75642A00D10076
:1001B800001CAB1CF91CDA1DD31CBE1CF01CDA1D7C
:1001C800DB1C971D1A1C04FF756D6178D800001C94
:1001D8008805561D301CF100BE1CD31C1A1C04FFD8
:1001E800756D696EE700001C8805611D301CFD00F7
:1001F800BE1CD31C1A1C001C371C00800D1E141DAD
:10020800301C0901371C01001A1C451D1A1C0AFF65
:100218006E616D653E666C616773F300001CBA1F02
:10022800371C00FF0D1E1A1C03FF64322A000B0145
:100238001D0109911991000F111F881F991F1A9309
:100248000A930C94041C03FF64322F0018012C013C
:100258000991199195958795179507951A930A937A
:100268000C94041C02FF642B27013A01299139914F
:10027800E990F99049915991240F351F8E1D9F1DC2
:100288003A932A930C94041C02FF642D36014C0106
:1002980029913991E990F99049915991421B530B51
:1002A800E80AF90A5A934A93C7010C94041C07FFF9
:1002B80064696E766572740048016201099119914A
:1002C80080959095009510951A930A930C94041CA8
:1002D80002FF643D5B01001C4B01161E141D1A1C15
:1002E80002FF752E6C01001C4E1D52071A1C03FFDD
:1002F800752E72007401001C4E1DBE1C5B071A1C73
:100308000DFF73686F772D776F72646C6973740073
:100318007B01001C371C9301BE1C510C1A1C001CCD
:100328006C0CC8070A08451D1A1C05FF776F726414
:1003380073008401001C371C44004D1F8D011A1CDA
:1003480004FF2B696E749901A90178940C94041C1C
:1003580004FF2D696E74A401B101F8940C94041C77
:1003680004FF696E7421AC01001C371C0000971D46
:10037800291F1A1C04FF696E7440B401001C371C45
:100388000000971D4D1F1A1C08FF696E742D7472AA
:100398006170BE01CF01809316018991999168948B
:1003A8000C94041C001C371C1601921C371C0000FE
:1003B800971D4D1F241CE1011A1CE20102D00C9468
:1003C800041C189504FF7069636BC801001C291E82
:1003D8007A057B1E971D731C1A1C02002E22E6014B
:1003E800001CFC015002C8071A1C02007322F1010C
:1003F800001C371C2200A8096D05731C301C05025F
:100408007C021A1C04FF66696C6CF901001CDB1C79
:10041800DB1CB31C301C1702590D891EAB1C9A1E1D
:10042800871CB71E1202D31C1A1C06FF6E6577655F
:1004380073740602421C170106FF6C6174657374BD
:100448001902421C1B0108FF286372656174652943
:100458002002001CD5098403AB1C1E0280057B1CEE
:1004680069031E027B1C1A1C01005C002702001C89
:10047800BC09EA1CA1057B1C1A1C010028003802D3
:10048800001C371C2900A80991051A1C07FF636F77
:100498006D70696C65004102001CF01CAB1CA50B5B
:1004A800F91CBA1F5B021A1C01FF2C004A02001C2F
:1004B800D105611FD105291E930BD2051A1C030013
:1004C8005B275D005802001C320871021A1C0700E5
:1004D8006C69746572616C006302001C5002371C01
:1004E8005B021A1C0800736C69746572616C6B029C
:1004F800001C50029507A3071A1C001CD1055002C6
:10050800FFFF1A1C001C510BD105BE1C611F1A1CD1
:10051800001CD1051A1C001C510B5B021A1C05009B
:100528006168656164007602001C5002291C810222
:100538001A1C020069669302001C5002301C8102DA
:100548001A1C0400656C73659D02001C5002291C6E
:100558008102BE1C86021A1C04007468656EA5021E
:10056800001C86021A1C0500626567696E00B002ED
:10057800001C8C021A1C05007768696C6500B702BC
:10058800001CA002BE1C1A1C06007265706561740E
:10059800BF02001CE102B4021A1C0500756E7469E2
:1005A8006C00C802001C371C301C5B028F021A1C2E
:1005B8000500616761696E00D102001C5002291CA8
:1005C8008F021A1C0200646FDC02001C5002891E94
:1005D8008C024E1D44031A1C04006C6F6F70E602F7
:1005E800001C5002B71E2B031A1C05002B6C6F6FE2
:1005F8007000F002001C5002A81E2B031A1C0500F4
:100608006C6561766500F902001C5002C21E9802F2
:1006180044031A1C03003F646F000303001C5002CC
:100628001A03A002E902BE1C44031A1C001C880518
:10063800CF1FAB1CF91C301C22039105F01CF71DC1
:100648001A1C07FF656E646C6F6F70000E03001C48
:100658008F023803B31C301C3403B402291C2D0349
:100668001A1C02FF6C3E2503001C5703731C731CE5
:10067800371CFEFF5703531E1A1C02FF3E6C35033E
:10068800001CDB1F5703531E5703731C7B1C1A1CCB
:1006980003FF6C7030004103691C3800AE0BB80BC7
:1006A80002FF6C704C03421C1D0106FF63726561FA
:1006B80074655403001C2D028D0350024C1C1A1C37
:1006C80006FF6865616465725903001CD105F91C51
:1006D800F91CAB1C221D301C7B03AB1C371C00FF14
:1006E800161EA707F01C4D1F5B02F01C1A1C371CB6
:1006F800F0FF610807FF776C73636F706500640330
:100708000D0C3600AE0BB80B06FF72657665616C92
:100718007E03001C1E028005731CB31C301C98034A
:100728001E02731CBE1C291F1A1C0500646F65730A
:100738003E008803001C5002B10350020E94500280
:10074800A6031A1C9A938A93CB0101967F916F9105
:10075800BF93AF93DB010C94041C001CF01C1E0219
:100768008005731C4D1F780C611F1A1C01FF3A008D
:100778009903001C2D02C803D31C1A1C07FF3A6EEC
:100788006F6E616D6500BA03001CD105AB1C2502B4
:100798007B1C5002001CDD031A1C01003B00C20335
:1007A800001C50021A1CE5038D031A1C01FF5D0092
:1007B800D103001CD61F6D057B1C1A1C01005B00B1
:1007C800DA03001C4E1D6D057B1C1A1C08FF7661A0
:1007D800726961626C65E203001CE205FC03DB1FC1
:1007E800EB051A1C08FF636F6E7374616E74EA037D
:1007F800001C2D028D035002421C5B021A1C04FFD0
:1008080075736572F603001C2D028D035002521C8D
:100818005B021A1C07007265637572736500030436
:10082800001C2502731C5B021A1C09FF696D6D65AB
:100838006469617465000E04001CBB044D1FAB1C89
:10084800BA1F371CFF7F0D1EBE1C611F1A1C060035
:100858005B636861725D1904001C5002371C0A0949
:100868005B021A1C060061626F7274222B04001C62
:10087800FC0150024D041A1C05FF61626F7274007E
:100888003604001C451D610806FF3F61626F7274E3
:100898004004001CDB1C301C5304C80745049105A8
:1008A8001A1C09FF6765742D737461636B00480433
:1008B800001CAB1C8005BE1C4D1FAB1CF91C4E1D3B
:1008C800BE1C1A03301C7304891E9A1E2F1E7A053B
:1008D800C91C971D4D1FBE1C451DA81E6904910506
:1008E800F01C1A1C09FF7365742D737461636B0027
:1008F8005504001C8805291FBE1C4E1D1A03301CF8
:100908008B04891E80059905291FB71E8604D31CF0
:100918001A1C09FF6D61702D737461636B00760496
:10092800001CAB1C8005BE1C4D1F7A05590D1A030F
:10093800301CB004891E9A1E4D1FBE1CF91C021DD6
:10094800241CB31C301CAC04F01CD31CC21E1A1C83
:10095800F01CDB1FA81E9F04D31C4E1D1A1C0BFF86
:100968006765742D63757272656E74008D04001C62
:10097800371C3E004D1F1A1C09FF6765742D6F72E6
:1009880064657200B304001C371C42005C041A1C26
:1009980007FF636F6D7061726500C004D304BF9375
:1009A800AF938C0189919991DC01899199919C016E
:1009B80089919991FC01ED90F190EF1451F40A9509
:1009C80019F02A95C1F701C02A95022B11F488273E
:1009D80002C08FEF00C0982FAF91BF910C94041CF8
:1009E80007FF6E66613E6C666100CC04001C6C0CEF
:1009F800291EFE1D971D1A1C0BFF656E7669726F06
:100A08006E6D656E7400F404421C3C0009FF776F3C
:100A180072646C69737473000000001C371C080052
:100A28001A1C04FF2F7061640A05001C7B1EA705B1
:100A38008D1D1A1C05FF2F686F6C64001505001CBE
:100A4800A705E2058D1D1A1C0AFF666F7274682DD2
:100A58006E616D651E05001C95070700616D666F68
:100A6800727468001A1C07FF76657273696F6E00EE
:100A78002805001C371C3D001A1C03FF6370750015
:100A88003705001C371C3100F4071A1C08FF6D637A
:100A9800752D696E666F4105001C371C2D001A1CE8
:100AA80005FF2F75736572004A05001C371C260068
:100AB8001A1C05FF665F637075000005001C371C73
:100AC8000012371C7A001A1C05FF737461746500E4
:100AD8005D05421C1F0104FF626173656805521CB5
:100AE8000C0005FF63656C6C73006F05061E05FF3F
:100AF80063656C6C2B007505810502960C94041CCB
:100B080004FF326475707B05001CC91CC91C1A1CC3
:100B180005FF3264726F70008405001CD31CD31C5F
:100B28001A1C04FF7475636B8C05001CBE1CC91C61
:100B38001A1C03FF3E696E009505521C180003FF3E
:100B4800706164009D05001CE205371C2800971D94
:100B58001A1C04FF656D6974A3050D0C0E00D60BF5
:100B6800E20B05FF656D69743F00AD050D0C1000C3
:100B7800D60BE20B03FF6B657900B5050D0C12006F
:100B8800D60BE20B04FF6B65793FBE050D0C140014
:100B9800D60BE20B02FF6470C605691C3000AE0B71
:100BA800B80B05FF656865726500CE05691C3400E1
:100BB800AE0BB80B04FF68657265D505691C320079
:100BC800AE0BB80B05FF616C6C6F7400DE05001C82
:100BD800E205971D930BE3051A1C03FF62696E007B
:100BE800E605001CDB1F73057B1C1A1C07FF6465E8
:100BF80063696D616C00F105001C371C0A00730500
:100C08007B1C1A1C03FF68657800FA05001C371C5A
:100C1800100073057B1C1A1C02FF626C0606421C3E
:100C2800200007FF7475726E6B65790010060D0C55
:100C38003A00AE0BB80B04FF2F6D6F64150624063F
:100C48009C0109911991412F432717FF04C0109562
:100C580000950F5F1F4F37FF04C0309520952F5F19
:100C68003F4FEE24FF1851E1001F111F5A9539F428
:100C780047FF04C0109500950F5F1F4F0BC0EE1C77
:100C8800FF1CE21AF30A20F4E20EF31E8894ECCF5C
:100C98000894EACFFA92EA92C8010C94041C05FF62
:100CA800752F6D6F64001F06001CF91C4E1DF01C8B
:100CB800BC1D1A1C06FF6E65676174655306001C2F
:100CC800F71D291E1A1C01FF2F005E06001C2306B3
:100CD800EA1C1A1C03FF6D6F64006706001C2306DC
:100CE800D31C1A1C03FF616273006E067B069923EE
:100CF8001AF48095909501960C94041C03FF6D6975
:100D08006E007606001C8805721D301C8C06BE1C01
:100D1800D31C1A1C03FF6D6178008206001C88052D
:100D2800681D301C9806BE1CD31C1A1C06FF776968
:100D38007468696E8E06001CC91C8D1DF91C8D1DFA
:100D4800F01C561D1A1C07FF746F757070657200D1
:100D58009A06001CAB1C371C6100371C7B009F06E1
:100D6800301CB906371CDF000D1E1A1C07FF746FF4
:100D78006C6F77657200A706001CAB1C371C41001E
:100D8800371C5B009F06301CCC06371C2000161E43
:100D98001A1C03FF686C6400BA06421C210104FF98
:100DA800686F6C64CD06001CD106AB1C731C2F1E2B
:100DB800AB1CF91CBE1C7B1CF01C871C1A1C02FFF8
:100DC8003C23D306001CA705D1067B1C1A1C01FF77
:100DD8002300E306001C7305731C6B07DB1C371C20
:100DE8000900C91C681D301CFC06371C0700971D2C
:100DF800371C3000971DD7061A1C02FF2373EB0619
:100E0800001CEE068805161E141D301C05071A1C4A
:100E180002FF233E0107001C9105D106731CA7059C
:100E2800C91C8D1D1A1C04FF7369676E0C07001C12
:100E38001B1D301C2207371C2D00D7061A1C03FF68
:100E4800642E72001707001CF91C9905CE0CE606E3
:100E58000407DB1C1B070F07F01CC91C8D1D13089A
:100E680023081A1C02FF2E722307001CF91C620DAE
:100E7800F01C27071A1C02FF642E3607001C4E1DA3
:100E880027070A081A1C01FF2E003F07001C620DE5
:100E980042071A1C03FF75642E004707001C4E1DED
:100EA8005B070A081A1C04FF75642E724E07001CA3
:100EB800F91CE60604070F07F01CC91C8D1D130852
:100EC80023081A1C06FF75642F6D6F645707001CF2
:100ED800F91C4E1D021DBC1DF01CBE1CF91CBC1DBE
:100EE800F01C1A1C06FF64696769743F6607001CDA
:100EF800AD06AB1C371C3900721D371C00010D1ED6
:100F0800971DAB1C371C4001721D371C07010D1EB5
:100F18008D1D371C30008D1DAB1C7305731C561DB1
:100F28001A1C001C021DF407F01CC91C291EFE1DFA
:100F3800971D291EF91C1A1C02FF732C7607001C2A
:100F4800AB1CA7071A1C001C5B02AB1CFE1D9905F5
:100F5800051E8D1DF91C4E1D1A03301CBA07891E6B
:100F6800AB1C731C5B028005B71EB407F01C221D66
:100F7800301CC107AB1C921C5B02D31C1A1C05FF5A
:100F8800697479706500A007001CAB1CFE1D9905EB
:100F9800051E8D1DF91C4E1D1A03301CDC07891E09
:100FA800AB1CBA1FAB1CE907E507291EB71ED407FF
:100FB800F01C221D301CE307AB1CBA1FE907D31C29
:100FC8001A1C001CE71EE9071A1C001C371CFF002E
:100FD8000D1EB1051A1C06FF69636F756E74C30791
:100FE800001CAB1C291EBE1CBA1F1A1C02FF637210
:100FF800EF07001C371C0D00B105371C0A00B105AE
:101008001A1C05FF737061636500FA07001C13065C
:10101800B1051A1C06FF7370616365730508001C2F
:101028004E1D9206AB1C301C1D080A082F1E291CD9
:101038001608D31C1A1C04FF747970650E08001C6E
:10104800590D1A03301C2E08891E9A1E921CB105D0
:10105800B71E29081A1C01FF27001F08001CD50904
:10106800B90A2F0BCF1F301C3B08D31C1A1C371C86
:10107800F3FF610807FF68616E646C6572002F08F2
:10108800521C0A0005FF6361746368003E08001C77
:101098007B1EF91C4408731CF91C641E44087B1C45
:1010A800241CF01C44087B1CF01CD31C4E1D1A1C6D
:1010B80005FF7468726F77004608001CAB1C141D8E
:1010C800301C6808D31C1A1C4408731C6E1EF01CC4
:1010D80044087B1CF01CBE1CF91C841ED31CF01C8D
:1010E8001A1C05FF63736B6970005C08001CF91C0F
:1010F800AB1C301C8908C91C921C021DCF1F301C58
:101108008908D61FC609291C7C08F01CD31C1A1C88
:1011180005FF637363616E007508001CF91CC91C28
:10112800AB1C921C021DCF1F141D301CA608BE1C30
:101138002F1EBE1CC91C1B1D141D301CA608291EF1
:10114800291C9408EA1CC91C8D1DF01CD31C1A1CF0
:1011580006FF6163636570748C08001CC91C971DC9
:101168002F1EC91CC205AB1CF208141D301CE40854
:10117800AB1C371C0800CF1F301CD408D31CDB1C49
:101188008805721DF91CDB1CDB1CF01C301CD20806
:10119800EA082F1EF91CC91CF01CEB00291CE208E8
:1011A800AB1C1306681D301CDB08D31C1306AB1CD4
:1011B800B105C91C871C291EC91CF700291CB608C3
:1011C800D31CEA1CBE1C8D1DFD071A1C001C371CF5
:1011D8000800AB1CB1050A08B1051A1C001CAB1CA1
:1011E800371C0D00CF1FBE1C371C0A00CF1F161E50
:1011F8001A1C06FF726566696C6CAC080D0C1A0047
:10120800D60BE20B04FF63686172FD08001CD50968
:10121800D31C921C1A1C06FF6E756D626572060956
:10122800001C7305731CF91C5809F91C6B09580933
:10123800F01C161EF91CAB1C141D301C2B09910543
:10124800F01CD31CF01C73057B1C4E1D1A1C0C1FB4
:101258004E1D4E1D1B1F8909B31C301C4D09D61F7E
:10126800CF1F301C4409921C371C2E00CF1F301C86
:101278004509F01C301C4109DB0CDB1F291C5309F4
:10128800D31C9105F01CD31CF01C73057B1C4E1D50
:101298001A1C9105F01C301C52096306D61FF01C5D
:1012A80073057B1C451D1A1C001CC91C921C371C8D
:1012B8002D00CF1FAB1CF91C301C6409D61FC609B2
:1012C800F01C1A1C4C1C0A00100002000A00001C2A
:1012D800C91C921C371C23008D1DAB1C4E1D371CCE
:1012E80004009F06301C81096609971DBA1F730503
:1012F8007B1CD61FC609291C8209D31C1A1C07FF90
:101308003E6E756D626572000F09001CAB1C301CC7
:10131800A209C91C921C7B07141D301C9509D31CFB
:101328001A1CF91C000D7305731CDC00F01CD4009A
:10133800000D371C0100C609291C8A091A1C05FF63
:101348007061727365008309001CF91CBC09A10552
:10135800731CC609F01C9108AB1C291EA105531E5D
:10136800D61FC6091A1C06FF736F75726365A30939
:101378000D0C1600D60BE20B07FF2F737472696E03
:101388006700B709001CDB1CC91C971DDB1CDB1C94
:101398008D1D1A1C0AFF70617273652D6E616D6573
:1013A800C009001C1306D9091A1C001CF91CBC0929
:1013B800A105731CC609021D7A08F01C910888054E
:1013C800971DBC09D31C8D1DA1057B1C1A1C09FF88
:1013D80066696E642D6E616D6500CE09001C371C50
:1013E800FE09371C42009404141D301CFD099105A8
:1013F8004E1D1A1C001CF91C8805F01C1F0CAB1C88
:10140800301C0B0AF91CEA1CEA1CF01C451D1A1CAE
:1014180004FF71756974EB09001C500357037B1CAA
:10142800910A841E9E0A6E1EE5036D05731C141D29
:10143800301C1F0A3C0A0209301C190A371CE10A31
:101448004B08B31C301C310AAB1C371CFEFF681D4F
:10145800301C2F0A430A291C110A350A291C190AAB
:101468001A1C001C95070300206F6B00C8071A1C84
:10147800001C950702003E20FD07C8071A1C001C27
:1014880095070400203F3F20C8077305731CF91C0B
:1014980000064A07A105731C4A07F01C73057B1C4C
:1014A8001A1C05FF7061757365000C0A0D0C230189
:1014B800C20BCC0B04FF636F6C64550A630AA4B6B5
:1014C8002224332424BEE0E0F1E02192E030E9F761
:1014D800F530D9F7E5E2F1E02F010FEF0DBF0483F6
:1014E80014E01EBF1583CFEAC683D4E0D783A4E8EF
:1014F800BAE00C94041C04FF7761726D5E0A001C4C
:101508004B0D371C790B371C5A0AED0BE5031B06EC
:10151800100A03FF737030007F0A691C0600D60B9F
:10152800E20B02FF73708D0A521C080003FF7270F1
:101538003000950A001CA20A731C1A1C521C0400D5
:1015480005FF6465707468009A0A001C910A7B1E86
:101558008D1DFE1D2F1E1A1C0DFF646F2D726563F5
:101568006F676E697A657200A40A001C371CC50A89
:10157800371C54009404141D301CC40A9105440BF4
:101588001A1C001CDB1CDB1C88050C1FDB1C241C24
:101598001B1FDB1CAB1C440BCF1F301CD60AD31CF3
:1015A8004E1D1A1CEA1CEA1C451D1A1C09FF696E0F
:1015B8007465727072657400B00A001CD509AB1CA2
:1015C800301CF10AB90A6D05731C301CEC0AA50B16
:1015D800BA1F241C510B291CE20A91051A1C05FF8D
:1015E800723A6E756D00DA0A4C1C790B7102710241
:1015F80006FF723A646E756DF30A4C1C790BC71FAF
:10160800C71F07FF7265633A6E756D00FC0A001C00
:101618001409301C170BD61FCF1F301C150BF80AE6
:101628001A1C010B1A1C440B1A1C08FF7265633A3A
:10163800776F7264050B001CF209AB1C141D301C7B
:10164800280BD31C440B1A1C2F0B1A1C06FF723ACA
:10165800776F7264190B4C1C330B370BC71F001CB8
:10166800D31C241C1A1C001C1B1D301C3D0B5B02C8
:101678001A1C241C1A1C06FF723A6661696C2A0B34
:101688004C1C480B480B480B001C371CF3FF610827
:1016980006FF3F737461636B3F0B001CA90A1B1D97
:1016A800301C590B371CFCFF61081A1C03FF7665B8
:1016B80072004C0B001C2F05C8070A087305731C21
:1016C8003D050006620DE606EE06371C2E00D7061D
:1016D80004070F07230873057B1C0A084505C8077C
:1016E8001A1C04FF6E6F6F705A0B001C1A1C06FF41
:1016F800756E75736564750B001C7B1EE2058D1D88
:101708001A1C0200746F7B0B001C32086B0D6D05F0
:10171800731C301C990B5002930B5B021A1C001CA3
:10172800F01CAB1CA50BF91CBA1FAB1CA50BA50B19
:10173800BA1F241C1A1C07FF692D63656C6C2B00EB
:10174800850B001C291E1A1C07FF45646566657217
:1017580040009F0B001CBA1F4D1F1A1C07FF456451
:10176800656665722100A80B001CBA1F291F1A1C88
:1017780007FF5264656665724000B20B001CBA1F11
:10178800731C1A1C07FF5264656665722100BC0B46
:10179800001CBA1F7B1C1A1C07FF5564656665721E
:1017A8004000C60B001CBA1FF01E971D731C1A1CA4
:1017B80007FF5564656665722100D00B001CBA1FCF
:1017C800F01E971D7B1C1A1C06FF64656665722156
:1017D800DC0B001C6B0DAB1CA50BA50BBA1F241C46
:1017E8001A1C06FF646566657240E80B001C6B0DE9
:1017F800AB1CA50BBA1F241C1A1C07FF28646566BE
:1018080065722900F50B001C2D028D0350020D0C8A
:101818001A1C0E94A603AB1CA50BBA1F241C241C6F
:101828001A1C0FFF7365617263682D776F72646CA1
:1018380069737400010C001CF91C4E1D371C340C14
:10184800F01C510CAB1C141D301C2E0C9105D31C24
:101858004E1D1A1CAB1C780CBE1C1201FF001A1C72
:10186800001CF91CD31C8805021D6C0C820C301C52
:10187800420CF01CD31C4E1D451D1A1C9105F01C72
:101888004E1D1A1C11FF74726176657273652D778F
:101898006F72646C69737400150C001C4D1FAB1CCF
:1018A800301C620C88050C1FBE1C241C1B1FDB1C73
:1018B800301C620CFA04BA1F291C530C91051A1C1F
:1018C8000BFF6E616D653E737472696E6700460C3E
:1018D800001CF407371CFF000D1E1A1C07FF6E665C
:1018E800613E63666100640C001CFA04291E1A1C20
:1018F80008FF69636F6D70617265720C001CF91CDA
:10190800C91CF01C0D1D301C8D0C9105D31C451DE8
:101918001A1CBE1C4E1D1A03301CB00C891EC91C93
:10192800731CC91CBA1FAB1C371C0001561D301C88
:10193800A10CBE1C371CFF000D1E0D1D301CA80C71
:101948009105451DC21E1A1C291EBE1C8005BE1C01
:10195800371C0200A81E930C91054E1D1A1C01FF8E
:101968002A007C0C001CA01DD31C1A1C01FF6A0055
:10197800B30C001C641E371C0700971D731C641EE3
:10198800371C0900971D731C971D1A1C04FF6461FE
:101998006273BA0C001CAB1C1B1D301CD40CDB0C76
:1019A8001A1C07FF646E656761746500CA0C001C29
:1019B8006101371C01004E1D39011A1C05FF636DBA
:1019C8006F766500D50CE80CBF93AF93E991F99158
:1019D800A991B991092F082B21F01D911193019715
:1019E800E1F7AF91BF91899199910C94041C05FF7F
:1019F800327377617000E20C001CDB1CF91CDB1CE5
:101A0800F01C1A1C0AFF726566696C6C2D74696299
:101A1800FB0C001C290D371C5A00B1082F0D7B1C2C
:101A28004E1DA1057B1C451D1A1C0AFF736F75729C
:101A380063652D746962060D001C290D2F0D731C3A
:101A48001A1C03FF74696200190D421C4B0104FF44
:101A580023746962250D421CA50106FF65653E7267
:101A6800616D2B0D001C4E1D891EC91C4D1FC91C04
:101A78007B1C8005BE1C8005BE1CB71E390D910558
:101A88001A1C08FF696E69742D72616D310D001C96
:101A9800371C6200F01E371C1C00FE1D360D1A1C78
:101AA80006FF626F756E6473450D001CC91C971D97
:101AB800BE1C1A1C03FF733E6400540D001CAB1CB3
:101AC8001B1D1A1C05FF3E626F6479005E0D2A1EFD
:101AD8000BFF6170706C7475726E6B657900660DC2
:0A1AE800001CAE00A8015E0B1A1CE2
:10380000BF93AF93DB0111966EF0FD01EE0FFF1F2A
:10381000659175911196FB01EE0FFF1F05911591B2
:10382000F8010994E89466ED71E0F5CF04FF65783E
:1038300069746C0D1B1CAF91BF91E6CF07FF6578D3
:10384000656375746500161C251CBC0189919991EE
:10385000E2CF2A1CFD01EE0FFF1FA591B591D4CF39
:10386000311C982B89919991A9F31196CDCF381CD1
:103870009A938A93FD01EE0FFF1F85919591119602
:10388000C3CF421C9A938A93FB013196EE0FFF1F20
:1038900085919591B9CF4C1C9A938A93CB0101964F
:1038A000B3CF521C9A938A93FB013196EE0FFF1F00
:1038B00085919591840D951DA7CF07FF2876616CA2
:1038C000756529001E1C001C2D028D035002691C09
:1038D0001A1C0E94A603AB1CA50BBA1F241C1A1CA1
:1038E00001FF40005D1C741CFC01819191918CCF03
:1038F00001FF2100701C7C1CFC018991999191832E
:1039000080838991999180CF02FF6321781C881C64
:10391000FC018991999180838991999175CF02FFDA
:103920006340841C931CFC01992780816DCF02FFAA
:1039300040758F1C001CF01E971D731C1A1C02FF83
:103940002175971C001CF01E971D7B1C1A1C03FF81
:10395000647570009F1CAC1C9A938A9355CF04FF2A
:103960003F647570A71CB41C082F092B11F09A93A3
:103970008A934ACF04FF73776170AF1CBF1C8C0120
:10398000899199911A930A933FCF04FF6F766572DC
:10399000BA1CCA1C9A938A938A819B8135CF04FFF3
:1039A00064726F70C51CD41C899199912DCF03FF4F
:1039B000726F7400CF1CDC1C8C01299139918991A4
:1039C00099913A932A931A930A931ECF03FF6E6933
:1039D0007000D71CEB1C229617CF02FF723EE61C2C
:1039E000F11C9A938A938F919F910ECF02FF3E72A2
:1039F000ED1CFA1C9F938F938991999105CF02FF3B
:103A00007240F61C031D9A938A938F919F919F9306
:103A10008F93FACE02FF3C3EFF1C001CCF1F141DEB
:103A20001A1C02FF303D0A1D151D982BD1F530C020
:103A300002FF303C111D1C1D97FD2AC032C002FF41
:103A4000303E181D231D821593055CF151F120C0F5
:103A500003FF64303E001F1D2D1D821593058991C3
:103A6000999182059305ECF0E1F012C003FF6430F8
:103A70003C00281D3B1D229697FD0C94481D0C947C
:103A8000511D04FF74727565361D461D9A938A9305
:103A90008FEF9FEFB9CE01FF3000411D4F1D9A936C
:103AA0008A93C101B1CE02FF753C4B1D571D299170
:103AB000399182179307A8F3A1F3EACF02FF753E6D
:103AC000531D001CBE1C561D1A1C01FF3C005E1D30
:103AD000691D29913991281739071CF7D9CF01FFA2
:103AE0003E00651D731D2991399128173907CCF2C5
:103AF000C1F2CECF04FF6C6F67326F1D7F1DFC01DA
:103B0000992780E18A9522F0EE0FFF1FD8F77CCE2F
:103B10009A957ACE01FF2D007A1D8E1D099119917B
:103B2000081B190BC80170CE01FF2B008A1D981DC0
:103B300009911991800F911F67CE02FF6D2A941D84
:103B4000A11D8C01899199919C0131027001209FE6
:103B5000C0013003F308900DE11CF31C1203F308BD
:103B6000900DE11CF31C9A938A93C7014DCE06FF7A
:103B7000756D2F6D6F649D1DBD1D7C01299139915F
:103B80000991199140E15527000F111F221F331F82
:103B9000551F2E153F05520518F003952E193F09A4
:103BA0004A9589F73A932A93C8012ECE03FF756D83
:103BB0002A00B71DDB1D8C0189919991809FF0012E
:103BC00022273327909FF00D211D331D819FF00D7B
:103BD000211D331D919F200D311DCF019A938A9392
:103BE000C90112CE06FF696E76657274D61DF81D86
:103BF0008095909509CE02FF322FF21DFF1D9595FD
:103C0000879502CE02FF322AFB1D061E880F991FE0
:103C1000FBCD03FF616E6400021E0E1E0991199117
:103C200080239123F1CD02FF6F72091E171E0991A7
:103C30001991802B912BE8CD03FF786F7200131E32
:103C4000211E0991199180279127DECD02FF312B8A
:103C50001C1E2A1E0196D8CD02FF312D261E301EB5
:103C60000197D2CD06FF6C73686966742C1E381EEE
:103C7000FC018991999131971AF0880F991FFBCF18
:103C8000C3CD06FF727368696674321E471EFC015D
:103C90008991999131971AF096958795FBCFB4CD7C
:103CA00002FF2B21411E541EFC0189919991208114
:103CB0003181820F931F8083918389919991A4CD43
:103CC00003FF72704000501E651E9A938A938DB751
:103CD0009EB79ACD03FF72702100601E6F1E2FB732
:103CE000F8948DBF9EBF2FBF899199918DCD03FF11
:103CF000737040006A1E7C1E9A938A93CE0184CD15
:103D000003FF73702100771E851EEC018991999144
:103D10007BCD8A1E29913991E0E83E0F821B930BDF
:103D20003F932F939F938F93899199916DCD01FF2D
:103D30006900801E9B1E9A938A938F919F91EF91A9
:103D4000FF91FF93EF939F938F938E0F9F1F5CCDF7
:103D5000A91EEF91FF91E80FF91F899199911BF02E
:103D6000FF93EF9377CD0F911F9111964DCDB81E14
:103D7000EF91FF913196BBF3F3CF06FF756E6C6F39
:103D80006F70971EC31E1F910F911F910F913CCD15
:103D900006FF636D6F76653EBD1ECE1EBF93AF936B
:103DA000E991F991A991B991092F082B41F0E80FF8
:103DB000F91FA80FB91F1E9112930197E1F7AF9158
:103DC000BF918991999120CD02FF3E3CC81EE81E0B
:103DD000092F982F802F18CD03FF75704000E41E27
:103DE000F11E9A938A93C2010FCD03FF75702100D3
:103DF000EC1EFA1E2C018991999106CD03FF316DBD
:103E00007300F51E031FE0EDF7E03197F1F7FCCCEE
:103E100003FF323E7200FE1E0D1FFC018991999135
:103E20009F938F93FF93EF9389919991EDCC03FF2B
:103E300032723E00081F1C1F9A938A93EF91FF91E4
:103E40008F919F919A938A93CF01DECC02FF2165D7
:103E5000171F2A1FFC01899199912FB7F89428D038
:103E600000B5081709F00BD0319622D000B509171C
:103E700011F0892F04D02FBF89919991C5CCF99960
:103E8000FECF07B700FDFDCFF2BDE1BD80BDFA9AC0
:103E9000F99A089502FF4065261F4E1F2FB7F89428
:103EA000FC0106D080B5319603D090B52FBFACCCC5
:103EB000F999FECFF2BDE1BDF89A089502FF21699C
:103EC0004A1F0D0C5E00AE0BB80B09FF2821692DAF
:103ED0006E72777729005E1F6D1F1FB71F93F894CE
:103EE0009C0189919991AF93BF93CF93DF9309D0B0
:103EF000DF91CF91BF91AF91899199911F911FBF90
:103F000083CC11D0E094F0948E219F21982B21F046
:103F1000B394F90102E020D0F90104E01DD0F901C9
:103F200000E11AD00895F901E07CFF7FEF01A0E4E1
:103F3000B0E0FE01EE0FFF1F45915591FE01E21723
:103F4000F30711F00A0102C07A010C01002704D026
:103F50002196119771F70895F999FECF17B710FDC3
:103F6000FDCFEE0FFF1F016007BFE895089502FF28
:103F70004069651FBB1FFC01EE0FFF1F85919591E6
:103F800043CC0800326C69746572616CB71F001C09
:103F9000BE1C710271021A1C01FF3D00C11F001CF2
:103FA0008D1D141D1A1C01FF3100CC1F421C010085
:103FB00001FF3200D31F421C020002FF2D31D81F27
:043FC000421CFFFFA1
:00000001FF
