:020000020000FC
:0200040014D115
:0200080012D113
:02000C0010D111
:020010000ED10F
:020014000CD10D
:020018000AD10B
:02001C0008D109
:0200200006D107
:0200240004D105
:0200280002D103
:02002C0000D101
:02003000FED000
:02003400FCD0FE
:02003800FAD0FC
:02003C00F8D0FA
:02004000F6D0F8
:02004400F4D0F6
:02004800F2D0F4
:02004C00F0D0F2
:02005000EED0F0
:02005400ECD0EE
:02005800EAD0EC
:02005C00E8D0EA
:02006000E6D0E8
:10006400E4D00008000400701A000A0041546D65D1
:10007400676133323850AF93AFB7AF93BF93EF9309
:10008400FF93B091C600A0911201E0E0F1E0EA0F05
:10009400F31DB083A395AF70A0931201FF91EF916C
:0A00A400BF91AF91AFBFAF91189567
:0200480018C0DE
:1000AE0000384E393738120187384E393738140137
:1000BE0087381A3806FF72782D697372000000387F
:1000CE00800030386700373814019238AB38293A3F
:1000DE0037380F000D3A373814018738373800019A
:1000EE00973992381A3807FF72783F2D697372006C
:1000FE0061000038113D373814019238373812013B
:10010E0092380D391A3807FF74782D706F6C6C00A9
:10011E007A0000389E00303891003738C600873894
:10012E001A3808FF74783F2D706F6C6C8A00003897
:10013E00113D3738C0009238373820000D3A1A3842
:10014E0004FF75627272980069388400803D8A3DA2
:10015E0006FF2B7573617274A7000038373898004C
:10016E003738C1008738373806003738C20087382D
:10017E00AB00AB38E73A3738C50087383738C4009C
:10018E00873857001A3808FF31772E7265736574F9
:10019E00AF00D1009A938A939927249A2C98E0E87D
:1001AE00F7E03197F1F71FB7F8942C9A2498E0E016
:1001BE00F1E03197F1F783B184FF9FEF1FBF2498D1
:1001CE002C98E0E8F6E03197F1F7892F0C9404387B
:1001DE0007FF31772E736C6F7400CA00F600249AF5
:1001EE002C981FB7F894E8E1F0E03197F1F7889476
:1001FE00879510F424982C9AE4E2F0E03197F1F709
:10020E0003B104FD8068ECECF0E03197F1F724982F
:10021E002C9AE8E0F0E03197F1F71FBF0C94043808
:040000000C941A3D05
:10022E000A920FB60A920F900F900A94009216013E
:10023E0009900FBE09906894089502FF6D2BEF0090
:10024E000038AF3F043C1A3803FF75642A002401BE
:10025E000038AB38F938DA39D338BE38F038DA39F5
:10026E00DB3897391A3804FF756D61782B01003829
:10027E00B13E563930384401BE38D3381A3804FFEF
:10028E00756D696E3A010038B13E613930385001F2
:10029E00BE38D3381A380038373800800D3A143942
:1002AE0030385C01373801001A3845391A380AFFE0
:1002BE006E616D653E666C61677346010038BA3BD0
:1002CE00373800FF0D3A1A3803FF766572005E016B
:1002DE000038C002E903963FA53E7338CE02293F8F
:1002EE00AF3F07030F0337382E00F8022503300304
:1002FE001F04A53E7B38963FD602E9031A3804FF49
:10030E006E6F6F706B0100381A3806FF756E75735D
:10031E006564860100387B3A0B3F8D391A3802002E
:10032E00746F8C0100382E04B83F9F3E73383038FE
:10033E00AA012E07A40139071A380038F038AB3855
:10034E00B601F938BA3BAB38B601B601BA3B243820
:10035E001A3807FF692D63656C6C2B009601003807
:10036E00293A1A3808FF69636F6D70617265B001C2
:10037E000038F938C938F0380D393038CA01BA3E6C
:10038E00D33845391A38BE384E39F8073038ED01B2
:10039E00893AC9387338C938BA3BAB383738000197
:1003AE0056393038DE01BE383738FF000D3A0D3978
:1003BE003038E501BA3E4539C23A1A38293ABE38C4
:1003CE00823CBE3837380200A83AD001BA3E4E39C8
:1003DE001A3801FF2A00B9010038A039D3381A386B
:1003EE0001FF6A00F0010038643A37380700973988
:1003FE007338643A373809009739733897391A3891
:10040E0004FF64616273F7010038AB381B39303872
:10041E00110218021A3807FF646E65676174650071
:10042E00070200382A3C373801004E39043C1A388E
:10043E0005FF636D6F76650012022502BF93AF93C1
:10044E00E991F991A991B991092F082B21F01D91EC
:10045E0011930197E1F7AF91BF91899199910C9406
:10046E00043805FF3273776170001F020038DB38E5
:10047E00F938DB38F0381A380AFF726566696C6C29
:10048E002D74696238020038660237385A007604D5
:10049E006C027B384E39CA3E7B3845391A380AFF12
:1004AE00736F757263652D7469624302003866025C
:1004BE006C0273381A3803FF7469620056024238B0
:1004CE00170104FF2374696262024238710106FF4C
:1004DE0065653E72616D680200384E39893AC938D9
:1004EE004D3BC9387B38823CBE38823CBE38B73A69
:1004FE007602BA3E1A3808FF696E69742D72616D04
:10050E006E02003837386800F03A37381C00FE3972
:10051E0073021A380BFF656E7669726F6E6D656EBB
:10052E00740082024238420009FF776F72646C6970
:10053E007374730000000038373808001A3804FF4F
:10054E002F7061649B0200387B3AD03E8D391A3889
:10055E0005FF2F686F6C6400A6020038D03E0B3F7B
:10056E008D391A380AFF666F7274682D6E616D656B
:10057E00AF020038B6030700616D666F72746800D3
:10058E001A3807FF76657273696F6E00B90200380C
:10059E0037383D001A3803FF63707500C802003803
:1005AE003738370015041A3808FF6D63752D696EDC
:1005BE00666FD2020038373833001A3805FF2F75B0
:1005CE0073657200DB020038373826001A3803FFD5
:1005DE00686C640091024238730104FF686F6C64AA
:1005EE00EE020038F202AB3873382F3AAB38F938D6
:1005FE00BE387B38F03887381A3802FF3C23F402B5
:10060E000038D03EF2027B381A3801FF2300040373
:10061E000038A53E73388C03DB3837380900C938EB
:10062E00683930381D0337380700973937383000AE
:10063E009739F8021A3802FF23730C0300380F03A0
:10064E00B13E163A1439303826031A3802FF233ECB
:10065E0022030038BA3EF2027338D03EC9388D39C3
:10066E001A3804FF7369676E2D0300381B39303852
:10067E00430337382D00F8021A3803FF642E720038
:10068E0038030038F938C23E0B0207032503DB3866
:10069E003C033003F038C9388D399F3F1F041A3898
:1006AE0002FF2E7244030038F938AF3FF03848038A
:1006BE001A3802FF642E570300384E394803963F0E
:1006CE001A3801FF2E0060030038AF3F63031A385B
:1006DE0003FF75642E00680300384E397C03963F85
:1006EE001A3804FF75642E726F030038F938070349
:1006FE0025033003F038C9388D399F3F1F041A384F
:10070E0006FF75642F6D6F6478030038F9384E3923
:10071E000239BC39F038BE38F938BC39F0381A38DD
:10072E0006FF64696769743F870300384E3FAB3834
:10073E00373839007239373800010D3A9739AB38EE
:10074E00373840017239373807010D3A8D3937384D
:10075E0030008D39AB38A53E733856391A3800380B
:10076E0002391504F038C938293AFE399739293A31
:10077E00F9381A3802FF732C97030038AB38C803C8
:10078E001A3800383907AB38FE39C23E053A8D3972
:10079E00F9384E39F8073038DB03893AAB387338FD
:1007AE003907823CB73AD503F03822393038E203A4
:1007BE00AB3892383907D3381A3805FF6974797017
:1007CE006500C1030038AB38FE39C23E053A8D399B
:1007DE00F9384E39F8073038FD03893AAB38BA3B51
:1007EE00AB380A040604293AB73AF503F038223931
:1007FE0030380404AB38BA3B0A04D3381A38003800
:10080E00E73A0A041A3800383738FF000D3ADA3E54
:10081E001A3806FF69636F756E74E4030038AB38DF
:10082E00293ABE38BA3B1A3804FF74797065100441
:10083E000038813FF80730382A04893A9A3A9238BC
:10084E00DA3EB73A25041A3801FF27001B04003898
:10085E009A05DC055206C73F30383704D3381A38AC
:10086E003738F3FF663D05FF63736B6970002B0429
:10087E000038F938AB3830384E04C938923802395E
:10088E00C73F30384E04CE3F8B0529384104F0382F
:10089E00D3381A3805FF637363616E003A0400386B
:1008AE00F938C938AB3892380239C73F1439303865
:1008BE006B04BE382F3ABE38C9381B39143930385C
:1008CE006B04293A29385904EA38C9388D39F03879
:1008DE00D3381A3806FF61636365707451040038AB
:1008EE00C93897392F3AC938EB3EAB38B7041439AB
:1008FE003038A904AB3837380800C73F3038990470
:10090E00D338DB38B13E7239F938DB38DB38F038A2
:10091E0030389704AF042F3AF938C938F0383E0111
:10092E002938A704AB383C3F68393038A004D33897
:10093E003C3FAB38DA3EC9388738293AC9384A01C4
:10094E0029387B04D338EA38BE388D39893F1A38B6
:10095E00003837380800AB38DA3E963FDA3E1A38A0
:10096E000038AB3837380D00C73FBE3837380A006D
:10097E00C73F163A1A3806FF726566696C6C7104C9
:10098E00DF3D1A00A83DB43D04FF63686172C204E6
:10099E0000389A05D33892381A3806FF6E756D6294
:1009AE006572CB040038A53E7338F9381D05F93849
:1009BE0030051D05F038163AF938AB381439303891
:1009CE00F004BA3EF038D338F038A53E7B384E39B5
:1009DE001A380C3B4E394E391B3B4E05B338303866
:1009EE001205CE3FC73F30380905923837382E00F2
:1009FE00C73F30380A05F038303806051802D33FA5
:100A0E0029381805D338BA3EF038D338F038A53E19
:100A1E007B384E391A38BA3EF038303817050F3E4B
:100A2E00CE3FF038A53E7B3845391A380038C938E4
:100A3E00923837382D00C73FAB38F9383038290592
:100A4E00CE3F8B05F0381A384C380A0010000200E1
:100A5E000A000038C9389238373823008D39AB3840
:100A6E004E39373804003F3E303846052B0597394E
:100A7E00BA3BA53E7B38CE3F8B0529384705D33888
:100A8E001A3807FF3E6E756D62657200D404003829
:100A9E00AB3830386705C93892389C031439303872
:100AAE005A05D3381A38F9383D02A53E73382F014E
:100ABE00F03827013D02373801008B0529384F05E4
:100ACE001A3805FF70617273650048050038F938F1
:100ADE008105CA3E73388B05F0385604AB38293A77
:100AEE00CA3E533ACE3F8B051A3806FF736F7572A6
:100AFE0063656805DF3D1600A83DB43D07FF2F7303
:100B0E007472696E67007C050038DB38C938973916
:100B1E00DB38DB388D391A380AFF70617273652D38
:100B2E006E616D65850500383C3F9E051A380038AC
:100B3E00F9388105CA3E73388B0502393F04F03807
:100B4E005604B13E97398105D3388D39CA3E7B386C
:100B5E001A3803FF73703000930569380600A83DFC
:100B6E00B43D02FF7370B0055238080003FF727077
:100B7E003000B8050038C50573381A3852380400ED
:100B8E0005FF646570746800BD050038B4057B3AD6
:100B9E008D39FE392F3A1A380DFF646F2D72656349
:100BAE006F676E697A657200C70500383738E805D9
:100BBE0037385A00720914393038E705BA3E6706DD
:100BCE001A380038DB38DB38B13E0C3BDB382438C2
:100BDE001B3BDB38AB386706C73F3038F905D338D7
:100BEE004E391A38EA38EA3845391A3809FF696E2B
:100BFE007465727072657400D30500389A05AB384F
:100C0E0030381406DC059F3E733830380F06B601B7
:100C1E00BA3B2438733F29380506BA3E1A3805FF09
:100C2E00723A6E756D00FD054C388A014F074F07FD
:100C3E0006FF723A646E756D16064C388A01BF3F18
:100C4E00BF3F07FF7265633A6E756D001F06003871
:100C5E00D90430383A06CE3FC73F303838061B0627
:100C6E001A3824061A3867061A3808FF7265633A6E
:100C7E00776F726428060038DD06AB3814393038C9
:100C8E004B06D33867061A3852061A3806FF723AE0
:100C9E00776F72643C064C3856065A06BF3F0038D2
:100CAE00D33824381A3800381B39303860063907E3
:100CBE001A3824381A3806FF723A6661696C4D0686
:100CCE004C386B066B066B0600383738F3FF663D03
:100CDE000FFF7365617263682D776F72646C697351
:100CEE00740062060038F9384E3937388E06F038FF
:100CFE00AB06AB38143930388806BA3ED3384E3985
:100D0E001A38AB38D206BE38650152011A3800388F
:100D1E00F938D338B13E0239C606BF0130389C06C9
:100D2E00F038D3384E3945391A38BA3EF0384E3984
:100D3E001A3811FF74726176657273652D776F7252
:100D4E00646C697374006F0600384D3BAB383038F5
:100D5E00BC06B13E0C3BBE3824381B3BDB3830386A
:100D6E00BC06D809BA3B2938AD06BA3E1A380BFF75
:100D7E006E616D653E737472696E6700A006003811
:100D8E0015043738FF000D3A1A3807FF6E66613EBC
:100D9E0063666100BE060038D809293A1A3809FF81
:100DAE0066696E642D6E616D6500CC06003837384D
:100DBE00E90637384800720914393038E806BA3E69
:100DCE004E391A380038F938B13EF0387906AB385A
:100DDE003038F606F938EA38EA38F03845391A3834
:100DEE0006FF6E6577657374D6064238750106FF89
:100DFE006C6174657374F7064238790108FF2863D5
:100E0E00726561746529FE0600389A056208AB3872
:100E1E00FC06823C7B384708FC067B381A380100FA
:100E2E005C00050700388105EA38CA3E7B381A385F
:100E3E000100280016070038373829006D05BA3E24
:100E4E001A3807FF636F6D70696C65001F070038F5
:100E5E00F038AB38B601F938BA3B39071A3801FF0A
:100E6E002C0028070038FA3E613BFA3E293AA401CD
:100E7E00FB3E1A3803005B275D00360700382E0450
:100E8E004F071A3807006C69746572616C00410770
:100E9E0000382E07373839071A380800736C697412
:100EAE006572616C490700382E07B603C4031A3801
:100EBE000038FA3E2E07FFFF1A380038733FFA3E0D
:100ECE00BE38613B1A380038FA3E1A380038733F84
:100EDE0039071A38050061686561640054070038E7
:100EEE002E0729385F071A38020069667107003825
:100EFE002E0730385F071A380400656C73657B0760
:100F0E0000382E0729385F07BE3864071A380400E8
:100F1E007468656E8307003864071A3805006265C9
:100F2E0067696E008E0700386A071A380500776801
:100F3E00696C6500950700387E07BE381A380600C2
:100F4E007265706561749D070038BF0792071A3885
:100F5E000500756E74696C00A60700383738303896
:100F6E0039076D071A380500616761696E00AF07B2
:100F7E0000382E0729386D071A380200646FBA0739
:100F8E0000382E07893A6A074E3922081A380400AB
:100F9E006C6F6F70C40700382E07B73A09081A38FD
:100FAE0005002B6C6F6F7000CE0700382E07A83A25
:100FBE0009081A3805006C6561766500D707003898
:100FCE002E07C23A760722081A3803003F646F00D4
:100FDE00E10700382E07F8077E07C707BE3822083C
:100FEE001A380038B13EC73FAB38F93830380008F0
:100FFE00BA3EF038F7391A3807FF656E646C6F6FBA
:10100E007000EC0700386D071608B3383038120838
:10101E00920729380B081A3802FF6C3E0308003875
:10102E003508733873383738FEFF3508533A1A3897
:10103E0002FF3E6C13080038D33F3508533A35088B
:10104E0073387B381A3803FF6C7030001F0869380C
:10105E003E00803D8A3D02FF6C702A0842387B01BB
:10106E0006FF637265617465320800380B076B0802
:10107E002E074C381A3806FF6865616465723708AA
:10108E000038FA3EF938F938AB3822393038590879
:10109E00AB38373800FF163AC803F0384D3B3907E6
:1010AE00F0381A383738F0FF663D07FF776C7363F8
:1010BE006F7065004208DF3D3C00803D8A3D06FFB3
:1010CE0072657665616C5C080038FC06823C73388C
:1010DE00B33830387608FC067338BE38293B1A38D8
:1010EE000500646F65733E00660800382E078F0892
:1010FE002E070E942E0784081A389A938A93CB01E2
:10110E0001967F916F91BF93AF93DB010C940438DE
:10111E000038F038FC06823C73384D3BD206613BFA
:10112E001A3801FF3A00770800380B07A608D338A3
:10113E001A3807FF3A6E6F6E616D650098080038B9
:10114E00FA3EAB3803077B382E070038BB081A3837
:10115E0001003B00A00800382E071A38C3086B08A0
:10116E001A3801FF5D00AF080038CE3F9F3E7B3836
:10117E001A3801005B00B80800384E399F3E7B38A4
:10118E001A3808FF7661726961626C65C0080038B2
:10119E000B3FDA08D33F143F1A3808FF636F6E73A4
:1011AE0074616E74C80800380B076B082E0742383E
:1011BE0039071A3804FF75736572D40800380B07A7
:1011CE006B082E07523839071A3807007265637597
:1011DE0072736500E10800380307733839071A384F
:1011EE0009FF696D6D65646961746500EC0800380E
:1011FE0099094D3BAB38BA3B3738FF7F0D3ABE38B5
:10120E00613B1A3806005B636861725DF70800384F
:10121E002E073738CF0439071A38060061626F720D
:10122E00742209090038723E2E072B091A3805FF61
:10123E0061626F727400140900384539663D06FF0D
:10124E003F61626F72741E090038DB383038310925
:10125E00E9032309BA3E1A3809FF6765742D7374C2
:10126E0061636B0026090038AB38823CBE384D3BBB
:10127E00AB38F9384E39BE38F80730385109893A4B
:10128E009A3A2F3AAC3EC93897394D3BBE3845395C
:10129E00A83A4709BA3EF0381A3809FF7365742D1B
:1012AE00737461636B0033090038B13E293BBE385D
:1012BE004E39F80730386909893A823CC23E293BDB
:1012CE00B73A6409D3381A3809FF6D61702D7374FB
:1012DE0061636B0054090038AB38823CBE384D3B1D
:1012EE00AC3E813FF80730388E09893A9A3A4D3B29
:1012FE00BE38F93802392438B33830388A09F03814
:10130E00D338C23A1A38F038D33FA83A7D09D338C9
:10131E004E391A380BFF6765742D63757272656EE0
:10132E0074006B090038373844004D3B1A3809FFFA
:10133E006765742D6F7264657200910900383738D5
:10134E0048003A091A3807FF636F6D7061726500C5
:10135E009E09B109BF93AF938C0189919991DC01DC
:10136E00899199919C0189919991FC01ED90F1904F
:10137E00EF1451F40A9519F02A95C1F701C02A9578
:10138E00022B11F4882702C08FEF00C0982FAF9167
:10139E00BF910C94043807FF6E66613E6C66610067
:1013AE00AA090038C606293AFE3997391A380BFFB2
:1013BE007365742D63757272656E7400D209003890
:1013CE0037384400293B1A3808FF776F72646C690E
:1013DE007374DE090038033F4E39C938293BAB38E8
:1013EE00823CA401043F1A380EFF666F7274682D9A
:1013FE00776F72646C697374EB094238460009FFAB
:10140E007365742D6F7264657200FB09003837388E
:10141E0048005B091A380FFF7365742D7265636F90
:10142E00676E697A65727300060A003837385A009B
:10143E005B091A380FFF6765742D7265636F676EEF
:10144E00697A65727300120A003837385A003A0901
:10145E001A3804FF636F6465210A00380B076B08A6
:10146E00FA3EB60139071A3808FF656E642D636FB0
:10147E006465300A00382E070C942E0704381A388B
:10148E0008FF286D61726B6572293B0A6938660028
:10149E00803D8A3D0800706F7374706F6E65470AE9
:1014AE0000389A05DC05AB38F938B601B601BA3BFF
:1014BE002438F038B601BA3B39071A380BFF617081
:1014CE00706C7475726E6B657900510A0038B400D9
:1014DE00893C6F01963FB6030A00466F72746864CA
:1014EE0075696E6FE9031A3802FF2E73650A0038AC
:1014FE00CC05F23D963FCC054E39F80730388D0AB3
:0E150E00893A9A3A763CF23DB73A880A1A3882
:10700000BF93AF93DB0111966EF0FD01EE0FFF1FF2
:10701000659175911196FB01EE0FFF1F059115917A
:10702000F8010994E89464EB7CE3F5CF04FF6578FC
:1070300069747B0A1B38AF91BF91E6CF07FF657873
:1070400065637574650016382538BC01899199917E
:10705000E2CF2A38FD01EE0FFF1FA591B591D4CFE5
:107060003138982B89919991A9F31196CDCF383861
:107070009A938A93FD01EE0FFF1F859195911196CA
:10708000C3CF42389A938A93FB013196EE0FFF1FCC
:1070900085919591B9CF4C389A938A93CB010196FB
:1070A000B3CF52389A938A93FB013196EE0FFF1FAC
:1070B00085919591840D951DA7CF07FF2876616C6A
:1070C000756529001E3800380B076B082E076938D4
:1070D0001A380E948408AB38B601BA3B24381A38F3
:1070E00001FF40005D387438FC01819191918CCF93
:1070F00001FF210070387C38FC01899199919183BE
:1071000080838991999180CF02FF632178388838F4
:10711000FC018991999180838991999175CF02FFA2
:10712000634084389338FC01992780816DCF02FF3A
:1071300040758F380038F03A973973381A3802FFA3
:10714000217597380038F03A97397B381A3803FFA1
:10715000647570009F38AC389A938A9355CF04FFBA
:107160003F647570A738B438082F092B11F09A9333
:107170008A934ACF04FF73776170AF38BF388C01B0
:10718000899199911A930A933FCF04FF6F766572A4
:10719000BA38CA389A938A938A819B8135CF04FF83
:1071A00064726F70C538D438899199912DCF03FFDF
:1071B000726F7400CF38DC388C0129913991899134
:1071C00099913A932A931A930A931ECF03FF6E69FB
:1071D0007000D738EB38229617CF02FF723EE638A0
:1071E000F1389A938A938F919F910ECF02FF3E724E
:1071F000ED38FA389F938F938991999105CF02FFCB
:107200007240F63803399A938A938F919F919F9396
:107210008F93FACE02FF3C3EFF380038C73F143947
:107220001A3802FF303D0A391539982BD1F530C094
:1072300002FF303C11391C3997FD2AC032C002FFD1
:10724000303E18392339821593055CF151F120C085
:1072500003FF64303E001F392D3982159305899153
:10726000999182059305ECF0E1F012C003FF6430C0
:107270003C0028393B39229697FD0C9448390C94F0
:10728000513904FF74727565363946399A938A9379
:107290008FEF9FEFB9CE01FF300041394F399A93FC
:1072A0008A93C101B1CE02FF753C4B395739299100
:1072B000399182179307A8F3A1F3EACF02FF753E35
:1072C00053390038BE3856391A3801FF3C005E3950
:1072D000693929913991281739071CF7D9CF01FF4E
:1072E0003E00653973392991399128173907CCF255
:1072F000C1F2CECF04FF6C6F67326F397F39FC016A
:10730000992780E18A9522F0EE0FFF1FD8F77CCEF7
:107310009A957ACE01FF2D007A398E39099119910B
:10732000081B190BC80170CE01FF2B008A39983950
:1073300009911991800F911F67CE02FF6D2A943930
:10734000A1398C01899199919C0131027001209F92
:10735000C0013003F308900DE11CF31C1203F30885
:10736000900DE11CF31C9A938A93C7014DCE06FF42
:10737000756D2F6D6F649D39BD397C0129913991EF
:107380000991199140E15527000F111F221F331F4A
:10739000551F2E153F05520518F003952E193F096C
:1073A0004A9589F73A932A93C8012ECE03FF756D4B
:1073B0002A00B739DB398C0189919991809FF001BE
:1073C00022273327909FF00D211D331D819FF00D43
:1073D000211D331D919F200D311DCF019A938A935A
:1073E000C90112CE06FF696E76657274D639F83916
:1073F0008095909509CE02FF322FF239FF3995958D
:10740000879502CE02FF322AFB39063A880F991F70
:10741000FBCD03FF616E6400023A0E3A09911991A7
:1074200080239123F1CD02FF6F72093A173A099137
:107430001991802B912BE8CD03FF786F7200133ADE
:10744000213A0991199180279127DECD02FF312B36
:107450001C3A2A3A0196D8CD02FF312D263A303A0D
:107460000197D2CD06FF6C73686966742C3A383A7E
:10747000FC018991999131971AF0880F991FFBCFE0
:10748000C3CD06FF727368696674323A473AFC01ED
:107490008991999131971AF096958795FBCFB4CD44
:1074A00002FF2B21413A543AFC01899199912081A4
:1074B0003181820F931F8083918389919991A4CD0B
:1074C00003FF72704000503A653A9A938A938DB7E1
:1074D0009EB79ACD03FF72702100603A6F3A2FB7C2
:1074E000F8948DBF9EBF2FBF899199918DCD03FFD9
:1074F000737040006A3A7C3A9A938A93CE0184CDA5
:1075000003FF73702100773A853AEC0189919991D4
:107510007BCD8A3A29913991E0E83E0F821B930B8B
:107520003F932F939F938F93899199916DCD01FFF5
:107530006900803A9B3A9A938A938F919F91EF9139
:10754000FF91FF93EF939F938F938E0F9F1F5CCDBF
:10755000A93AEF91FF91E80FF91F899199911BF0DA
:10756000FF93EF9377CD0F911F9111964DCDB83AC0
:10757000EF91FF913196BBF3F3CF06FF756E6C6F01
:107580006F70973AC33A1F910F911F910F913CCDA5
:1075900006FF636D6F76653EBD3ACE3ABF93AF93FB
:1075A000E991F991A991B991092F082B41F0E80FC0
:1075B000F91FA80FB91F1E9112930197E1F7AF9120
:1075C000BF918991999120CD02FF3E3CC83AE83A9B
:1075D000092F982F802F18CD03FF75704000E43AD3
:1075E000F13A9A938A93C2010FCD03FF757021007F
:1075F000EC3AFA3A2C018991999106CD03FF316D4D
:107600007300F53A033BE0EAFFE03197F1F7FCCC79
:1076100003FF323E7200FE3A0D3BFC0189919991C5
:107620009F938F93FF93EF9389919991EDCC03FFF3
:1076300032723E00083B1C3B9A938A93EF91FF9174
:107640008F919F919A938A93CF01DECC02FF21659F
:10765000173B2A3BFC01899199912FB7F89428D0C8
:1076600000B5081709F00BD0319622D000B50917E4
:1076700011F0892F04D02FBF89919991C5CCF99928
:10768000FECF07B700FDFDCFF2BDE1BD80BDFA9A88
:10769000F99A089502FF4065263B4E3B2FB7F894B8
:1076A000FC0106D080B5319603D090B52FBFACCC8D
:1076B000F999FECFF2BDE1BDF89A089502FF216964
:1076C0004A3BDF3D6400803D8A3D09FF2821692D4A
:1076D0006E72777729005E3B6D3B1FB71F93F8945E
:1076E0009C0189919991AF93BF93CF93DF9309D078
:1076F000DF91CF91BF91AF91899199911F911FBF58
:1077000083CC11D0E094F0948E219F21982B21F00E
:10771000B394F90102E020D0F90104E01DD0F90191
:1077200000E11AD00895F901E07CFF7FEF01A0E4A9
:10773000B0E0FE01EE0FFF1F45915591FE01E217EB
:10774000F30711F00A0102C07A010C01002704D0EE
:107750002196119771F70895F999FECF17B710FD8B
:10776000FDCFEE0FFF1F016007BFE895089502FFF0
:107770004069653BBB3BFC01EE0FFF1F8591959176
:1077800043CC03FF6E3E7200B73BC63BFC01082FA3
:10779000899199919F938F930A95D1F7EF93FF93D6
:1077A0008991999131CC03FF6E723E00C13BD83B69
:1077B0009A938A93FF91EF910E2F8F919F919A93B5
:1077C0008A930A95D1F7CF011FCC03FF64322A00B8
:1077D000D33BEA3B09911991000F111F881F991F94
:1077E0001A930A9311CC03FF64322F00E53BF83B58
:1077F0000991199195958795179507951A930A936D
:1078000003CC02FF642BF33B053C29913991E990AD
:10781000F99049915991240F351F8E1D9F1D3A9360
:107820002A93F2CB02FF642D013C163C2991399139
:10783000E990F99049915991421B530BE80AF90AD2
:107840005A934A93C701E0CB07FF64696E7665726D
:107850007400123C2B3C09911991809590950095EC
:1078600010951A930A93D0CB04FF2F6D6F64243CBC
:10787000393C9C0109911991412F432717FF04C0FE
:10788000109500950F5F1F4F37FF04C0309520956E
:107890002F5F3F4FEE24FF1851E1001F111F5A9533
:1078A00039F447FF04C0109500950F5F1F4F0BC0C0
:1078B000EE1CFF1CE21AF30A20F4E20EF31E889479
:1078C000ECCF0894EACFFA92EA92C8019DCB03FF6D
:1078D00061627300343C6C3C99231AF48095909556
:1078E000019692CB04FF7069636B673C0038293ABC
:1078F000AC3E7B3A973973381A3805FF63656C6C78
:107900002B00723C833C02967FCB04FF2B696E7484
:107910007D3C8A3C789478CB04FF2D696E74853C5D
:10792000913CF89471CB04FF696E74218C3C003853
:10793000373800009739293B1A3804FF696E7440C4
:10794000933C00383738000097394D3B1A3808FF10
:10795000696E742D747261709D3CAE3C809316010B
:1079600089919991689450CB003837381601923834
:107970003738000097394D3B2438BF3C1A38C03C9B
:1079800001D042CB18950038B6030300206F6B007E
:10799000E9031A380038B60302003E20893FE903A4
:1079A0001A380038B6030400203F3F20E903A53E03
:1079B0007338F938293F6B03CA3E73386B03F038CC
:1079C000A53E7B381A3804FF71756974A73C0038EE
:1079D0002E0835087B38B405843AC1056E3AC308D1
:1079E0009F3E733814393038F63CCA3CC7043038EF
:1079F000F03C37380406503DB3383038083DAB38DA
:107A00003738FEFF68393038063DD13C2938E83C2C
:107A1000C33C2938F03C1A3805FF70617573650066
:107A2000E33CDF3D7D01943D9E3D04FF636F6C644C
:107A30000C3D1A3DA4B62224332424BEE0E0F1E03C
:107A40002192E030E9F7F930D9F7EFE7F1E02F01C3
:107A50000FEF0DBF048318E01EBF1583CFEAC68366
:107A6000D8E0D783AAE3BDE3CFCA04FF7761726D84
:107A7000153D0038880237388A013738113DBF3D3F
:107A8000C308443FE73C07FF68616E646C657200A1
:107A9000353D52380A0005FF636174636800433D59
:107AA00000387B3AF938493D7338F938643A493D32
:107AB0007B382438F038493D7B38F038D3384E399C
:107AC0001A3805FF7468726F77004B3D0038AB3889
:107AD000143930386D3DD3381A38493D73386E3A11
:107AE000F038493D7B38F038BE38F938843AD3381D
:107AF000F0381A3807FF4564656665724000613DDD
:107B00000038BA3B4D3B1A3807FF4564656665721D
:107B100021007A3D0038BA3B293B1A3807FF5264EE
:107B2000656665724000843D0038BA3B73381A3888
:107B300007FF52646566657221008E3D0038BA3BCE
:107B40007B381A3807FF5564656665724000983DBA
:107B50000038BA3BF03A973973381A3807FF556442
:107B6000656665722100A23D0038BA3BF03A97394C
:107B70007B381A3806FF646566657221AE3D0038B1
:107B8000B83FAB38B601B601BA3B24381A3806FF05
:107B9000646566657240BA3D0038B83FAB38B601DF
:107BA000BA3B24381A3807FF2864656665722900D5
:107BB000C73D00380B076B082E07DF3D1A380E94BF
:107BC0008408AB38B601BA3B243824381A3802FF8F
:107BD000643DD33D0038153C163A14391A3802FF7B
:107BE000752EE73D00384E3973031A3803FF752EA2
:107BF0007200EF3D00384E39BE387C031A3805FF5D
:107C0000752F6D6F6400F63D0038F9384E39F03845
:107C1000BC391A3806FF6E6567617465FF3D003830
:107C2000F739293A1A3801FF2F000A3E0038383C4C
:107C3000EA381A3803FF6D6F6400133E0038383C91
:107C4000D3381A3803FF6D696E001A3E0038B13E12
:107C5000723930382C3EBE38D3381A3803FF6D6184
:107C60007800223E0038B13E68393038383EBE38A0
:107C7000D3381A3806FF77697468696E2E3E00386B
:107C8000C9388D39F9388D39F03856391A380DFF21
:107C900073686F772D776F72646C697374003A3E06
:107CA00000383738563EBE38AB061A380038C6069C
:107CB000E903963F45391A3805FF776F7264730000
:107CC000473E003837384A004D3B503E1A380200D4
:107CD0002E225C3E0038723E2E07E9031A3802005D
:107CE0007322673E0038373822006D059F3E733897
:107CF00030387B3E5A071A3804FF66696C6C6F3E59
:107D00000038DB38DB38B33830388D3E813F893A74
:107D1000AB389A3A8738B73A883ED3381A3805FFD5
:107D2000665F637075007C3E003837380024373852
:107D3000F4001A3805FF7374617465008F3E423891
:107D4000A50104FF626173659A3E52380C0005FF7D
:107D500063656C6C7300A13E063A04FF3264757073
:107D6000A73E0038C938C9381A3805FF3264726F27
:107D70007000AD3E0038D338D3381A3804FF74751C
:107D8000636BB53E0038BE38C9381A3803FF3E6908
:107D90006E00BE3E5238180003FF70616400C63E9C
:107DA00000380B3F3738280097391A3804FF656DC3
:107DB0006974CC3EDF3D0E00A83DB43D05FF656D06
:107DC00069743F00D63EDF3D1000A83DB43D03FF7F
:107DD0006B657900DE3EDF3D1200A83DB43D04FF37
:107DE0006B65793FE73EDF3D1400A83DB43D02FFDF
:107DF0006470EF3E69383600803D8A3D05FF656856
:107E000065726500F73E69383A00803D8A3D04FF9F
:107E100068657265FE3E69383800803D8A3D05FF21
:107E2000616C6C6F7400073F00380B3F9739A401F9
:107E30000C3F1A3803FF62696E000F3F0038D33FD2
:107E4000A53E7B381A3807FF646563696D616C0075
:107E50001A3F003837380A00A53E7B381A3803FF2E
:107E600068657800233F003837381000A53E7B381E
:107E70001A3802FF626C2F3F4238200007FF7475EA
:107E8000726E6B657900393FDF3D4000803D8A3D71
:107E900007FF746F7570706572003E3F0038AB3835
:107EA0003738610037387B003F3E30385A3F37382B
:107EB000DF000D3A1A3807FF746F6C6F7765720038
:107EC000483F0038AB383738410037385B003F3E19
:107ED00030386D3F37382000163A1A3806FF3F73A6
:107EE0007461636B5B3F0038CC051B3930387B3FD6
:107EF0003738FCFF663D1A3806FF626F756E647393
:107F00006E3F0038C9389739BE381A3802FF63729D
:107F10007C3F003837380D00DA3E37380A00DA3E49
:107F20001A3805FF737061636500863F00383C3F77
:107F3000DA3E1A3806FF737061636573913F00384B
:107F40004E39323EAB383038A93F963F2F3A293868
:107F5000A23FD3381A3803FF733E64009A3F0038BB
:107F6000AB381B391A3805FF3E626F647900AB3FAE
:107F70002A3A0800326C69746572616CB33F00384C
:107F8000BE384F074F071A3801FF3D00B93F003890
:107F90008D3914391A3801FF3100C43F42380100CD
:107FA00001FF3200CB3F4238020002FF2D31D03FAB
:047FB0004238FFFF55
:00000001FF
