:020000020000FC
:02000400E9D041
:02000800E7D03F
:02000C00E5D03D
:02001000E3D03B
:02001400E1D039
:02001800DFD037
:02001C00DDD035
:02002000DBD033
:02002400D9D031
:02002800D7D02F
:02002C00D5D02D
:02003000D3D02B
:02003400D1D029
:02003800CFD027
:02003C00CDD025
:02004000CBD023
:02004400C9D021
:02004800C7D01F
:02004C00C5D01D
:02005000C3D01B
:02005400C1D019
:02005800BFD017
:02005C00BDD015
:02006000BBD013
:02006400B9D011
:02006800B7D00F
:02006C00B5D00D
:02007000B3D00B
:02007400B1D009
:02007800AFD007
:02007C00ADD005
:02008000ABD003
:02008400A9D001
:02008800A7D0FF
:02008C00A5D0FD
:02009000A3D0FB
:02009400A1D0F9
:020098009FD0F7
:02009C009DD0F5
:0200A0009BD0F3
:0200A40099D0F1
:1000A80097D0000A000400702B000A0041546D65C7
:1000B800676133325534AF93AFB7AF93BF93EF93C4
:1000C800FF93B091CE00A0911201E0E0F1E0EA0FB9
:1000D800F31DB083A395AF70A0931201FF91EF9128
:0A00E800BF91AF91AFBFAF91189523
:020064002CC0AE
:1000F20000384E393738120187384E3937381401F3
:1001020087381A3806FF72782D697372000000383A
:10011200A20030388900373814019238AB38293AB6
:1001220037380F000D3A3738140187383738000155
:10013200973992381A3807FF72783F2D6973720027
:1001420083000038113D37381401923837381201D4
:1001520092380D391A3807FF74782D706F6C6C0065
:100162009C000038C0003038B3003738CE008738E2
:100172001A3808FF74783F2D706F6C6CAC00003831
:10018200113D3738C8009238373820000D3A1A38F6
:1001920004FF75627272BA006938A600803D8A3D1A
:1001A20006FF2B7573617274C900003837389800E6
:1001B2003738C9008738373806003738CA008738D9
:1001C200CD00AB38E73A3738CD0087383738CC0026
:0601D200873879001A389D
:040000000C941A3D05
:1001D8000A920FB60A920F900F900A940092160195
:1001E80009900FBE09906894089502FF6D2BD10005
:1001F8000038AF3F043C1A3803FF75642A00F90041
:100208000038AB38F938DA39D338BE38F038DA394B
:10021800DB3897391A3804FF756D617800010038AA
:10022800B13E563930381901BE38D3381A3804FF70
:10023800756D696E0F010038B13E6139303825019E
:10024800BE38D3381A380038373800800D3A143998
:1002580030383101373801001A3845391A380AFF61
:100268006E616D653E666C6167731B010038BA3B51
:10027800373800FF0D3A1A3803FF766572003301EC
:100288000038A602CF03963FA53E7338B402293F33
:10029800AF3FED02F50237382E00DE020B031603DE
:1002A8000504A53E7B38963FBC02CF031A3804FFED
:1002B8006E6F6F70400100381A3806FF756E7573DF
:1002C80065645B0100387B3A0B3F8D391A380200B0
:1002D800746F610100381404B83F9F3E733830389A
:1002E8007F01140779011F071A380038F038AB3836
:1002F8008B01F938BA3BAB388B018B01BA3B2438F8
:100308001A3807FF692D63656C6C2B006B01003888
:10031800293A1A3808FF69636F6D70617265850143
:100328000038F938C938F0380D3930389F01BA3EED
:10033800D33845391A38BE384E39DE073038C4014B
:10034800893AC9387338C701C938BA3BC701AB38CD
:100358003738000156393038B501BE383738FF0014
:100368000D3A0D393038BC01BA3E4539C23A1A380F
:10037800293ABE38823CBE3837380200A83AA5016F
:10038800BA3E4E391A380038AB383738FF000D3AC4
:10039800613FBE38E73A3738FF000D3A613FE73A28
:1003A800163A1A3801FF2A008E010038A039D338CE
:1003B8001A3801FF6A00D6010038643A3738070056
:1003C80097397338643A3738090097397338973949
:1003D8001A3804FF64616273DD010038AB381B39D9
:1003E8003038F701FE011A3807FF646E65676174DB
:1003F8006500ED0100382A3C373801004E39043CCD
:100408001A3805FF636D6F766500F8010B02BF931C
:10041800AF93E991F991A991B991092F082B21F08E
:100428001D9111930197E1F7AF91BF91899199912E
:100438000C94043805FF32737761700005020038A8
:10044800DB38F938DB38F0381A380AFF7265666924
:100458006C6C2D7469621E0200384C0237385A00E1
:100468005C0452027B384E39CA3E7B3845391A380B
:100478000AFF736F757263652D746962290200380B
:100488004C02520273381A3803FF746962003C0246
:100498004238170104FF2374696248024238710127
:1004A80006FF65653E72616D4E0200384E39893A25
:1004B800C9384D3BC9387B38823CBE38823CBE388F
:1004C800B73A5C02BA3E1A3808FF696E69742D7231
:1004D800616D5402003837388A00F03A37381C000A
:1004E800FE3959021A380BFF656E7669726F6E6DA8
:1004F800656E740068024238640009FF776F7264A1
:100508006C697374730000000038373808001A38B3
:1005180004FF2F706164810200387B3AD03E8D3928
:100528001A3805FF2F686F6C64008C020038D03EC3
:100538000B3F8D391A380AFF666F7274682D6E6129
:100548006D65950200389C030700616D666F7274D3
:1005580068001A3807FF76657273696F6E009F022C
:10056800003837383D001A3803FF63707500AE0253
:10057800003837385900FB031A3808FF6D63752DAA
:10058800696E666FB8020038373855001A3805FFAB
:100598002F7573657200C1020038373826001A3883
:1005A80003FF686C640077024238730104FF686FC8
:1005B8006C64D4020038D802AB3873382F3AAB38A1
:1005C800F938BE387B38F03887381A3802FF3C23B0
:1005D800DA020038D03ED8027B381A3801FF2300EF
:1005E800EA020038A53E73387203DB383738090051
:1005F800C93868393038030337380700973937382E
:1006080030009739DE021A3802FF2373F2020038ED
:10061800F502B13E163A143930380C031A3802FF85
:10062800233E08030038BA3ED8027338D03EC93892
:100638008D391A3804FF7369676E130300381B3944
:100648003038290337382D00DE021A3803FF642EAC
:1006580072001E030038F938C23EF101ED020B03A7
:10066800DB3822031603F038C9388D399F3F05045B
:100678001A3802FF2E722A030038F938AF3FF038D3
:100688002E031A3802FF642E3D0300384E392E031C
:10069800963F1A3801FF2E0046030038AF3F490342
:1006A8001A3803FF75642E004E0300384E39620372
:1006B800963F1A3804FF75642E7255030038F938CE
:1006C800ED020B031603F038C9388D399F3F050436
:1006D8001A3806FF75642F6D6F645E030038F938A9
:1006E8004E390239BC39F038BE38F938BC39F038DF
:1006F8001A3806FF64696769743F6D0300384E3F16
:10070800AB38373839007239373800010D3A973924
:10071800AB38373840017239373807010D3A8D390F
:10072800373830008D39AB38A53E733856391A380A
:1007380000380239FB03F038C938293AFE399739AD
:10074800293AF9381A3802FF732C7D030038AB3880
:10075800AE031A3800381F07AB38FE39C23E053AD7
:100768008D39F9384E39DE073038C103893AAB384C
:1007780073381F07823CB73ABB03F0382239303848
:10078800C803AB3892381F07D3381A3805FF697485
:1007980079706500A7030038AB38FE39C23E053AC8
:1007A8008D39F9384E39DE073038E303893AAB38EA
:1007B800BA3BAB38F003EC03293AB73ADB03F0381D
:1007C80022393038EA03AB38BA3BF003D3381A3849
:1007D8000038E73AF0031A3800383738FF000D3A86
:1007E800DA3E1A3806FF69636F756E74CA030038FB
:1007F800AB38293ABE38BA3B1A3804FF74797065A9
:10080800F6030038813FDE0730381004893A9A3AF7
:100818009238DA3EB73A0B041A3801FF2700010470
:1008280000388005C2053806C73F30381D04D33864
:100838001A383738F3FF663D05FF63736B6970003C
:1008480011040038F938AB3830383404C9389238D4
:100858000239C73F30383404CE3F710529382704A0
:10086800F038D3381A3805FF637363616E002004CB
:100878000038F938C938AB3892380239C73F1439CB
:1008880030385104BE382F3ABE38C9381B391439AC
:1008980030385104293A29383F04EA38C9388D39A3
:1008A800F038D3381A3806FF61636365707437040B
:1008B8000038C93897392F3AC938EB3EAB389D0410
:1008C800143930388F04AB3837380800C73F303810
:1008D8007F04D338DB38B13E7239F938DB38DB387E
:1008E800F03830387D0495042F3AF938C938F03893
:1008F800130129388D04AB383C3F683930388604F9
:10090800D3383C3FAB38DA3EC9388738293AC9383A
:100918001F0129386104D338EA38BE388D39893F38
:100928001A38003837380800AB38DA3E963FDA3ED6
:100938001A380038AB3837380D00C73FBE3837385B
:100948000A00C73F163A1A3806FF726566696C6C6A
:100958005704DF3D1A00A83DB43D04FF6368617287
:10096800A80400388005D33892381A3806FF6E7507
:100978006D626572B1040038A53E7338F938030515
:10098800F93816050305F038163AF938AB38143932
:100998003038D604BA3EF038D338F038A53E7B3824
:1009A8004E391A380C3B4E394E391B3B3405B33897
:1009B8003038F804CE3FC73F3038EF049238373824
:1009C8002E00C73F3038F004F0383038EC04FE0110
:1009D800D33F2938FE04D338BA3EF038D338F0383C
:1009E800A53E7B384E391A38BA3EF0383038FD0407
:1009F8000F3ECE3FF038A53E7B3845391A380038CF
:100A0800C938923837382D00C73FAB38F9383038F5
:100A18000F05CE3F7105F0381A384C380A0010001F
:100A280002000A000038C9389238373823008D3957
:100A3800AB384E39373804003F3E30382C051105A5
:100A48009739BA3BA53E7B38CE3F710529382D052D
:100A5800D3381A3807FF3E6E756D62657200BA04A6
:100A68000038AB3830384D05C9389238820314390C
:100A780030384005D3381A38F9382302A53E733880
:100A88000401F038FC0023023738010071052938C9
:100A980035051A3805FF7061727365002E05003838
:100AA800F9386705CA3E73387105F0383C04AB382D
:100AB800293ACA3E533ACE3F71051A3806FF736F7A
:100AC800757263654E05DF3D1600A83DB43D07FF0E
:100AD8002F737472696E670062050038DB38C93895
:100AE8009739DB38DB388D391A380AFF7061727331
:100AF800652D6E616D656B0500383C3F84051A38BD
:100B08000038F9386705CA3E73387105023925047B
:100B1800F0383C04B13E97396705D3388D39CA3E61
:100B28007B381A3803FF737030007905693806007E
:100B3800A83DB43D02FF737096055238080003FFC4
:100B4800727030009E050038AB0573381A38523879
:100B5800040005FF646570746800A30500389A05F1
:100B68007B3A8D39FE392F3A1A380DFF646F2D7292
:100B780065636F676E697A657200AD05003837384E
:100B8800CE0537387C00580914393038CD05BA3EBF
:100B98004D061A380038DB38DB38B13E0C3BDB3801
:100BA80024381B3BDB38AB384D06C73F3038DF05F0
:100BB800D3384E391A38EA38EA3845391A3809FF2D
:100BC800696E7465727072657400B90500388005C5
:100BD800AB383038FA05C2059F3E73383038F50512
:100BE8008B01BA3B2438733F2938EB05BA3E1A38D3
:100BF80005FF723A6E756D00E3054C385F013507E5
:100C0800350706FF723A646E756DFC054C385F0156
:100C1800BF3FBF3F07FF7265633A6E756D000506FB
:100C28000038BF0430382006CE3FC73F30381E0694
:100C380001061A380A061A384D061A3808FF72656E
:100C4800633A776F72640E060038C306AB381439FE
:100C580030383106D3384D061A3838061A3806FFA8
:100C6800723A776F726422064C383C064006BF3FE2
:100C78000038D33824381A3800381B39303846063B
:100C88001F071A3824381A3806FF723A6661696CE9
:100C980033064C3851065106510600383738F3FFF1
:100CA800663D0FFF7365617263682D776F72646CC0
:100CB8006973740048060038F9384E3937387406B5
:100CC800F0389106AB38143930386E06BA3ED3384E
:100CD8004E391A38AB38B806BE383A0127011A38E7
:100CE8000038F938D338B13E0239AC0694013038AF
:100CF8008206F038D3384E3945391A38BA3EF038BA
:100D08004E391A3811FF74726176657273652D77E2
:100D18006F72646C69737400550600384D3BAB38CC
:100D28003038A206B13E0C3BBE3824381B3BDB38BA
:100D38003038A206BE09BA3B29389306BA3E1A389B
:100D48000BFF6E616D653E737472696E670086068F
:100D58000038FB033738FF000D3A1A3807FF6E6674
:100D6800613E63666100A4060038BE09293A1A3854
:100D780009FF66696E642D6E616D6500B206003804
:100D88003738CF0637386A00580914393038CE0654
:100D9800BA3E4E391A380038F938B13EF0385F0695
:100DA800AB383038DC06F938EA38EA38F0384539F3
:100DB8001A3806FF6E6577657374BC06423875018C
:100DC80006FF6C6174657374DD064238790108FFAB
:100DD8002863726561746529E4060038800548084F
:100DE800AB38E206823C7B382D08E2067B381A389D
:100DF80001005C00EB0600386705EA38CA3E7B381C
:100E08001A3801002800FC06003837382900530535
:100E1800BA3E1A3807FF636F6D70696C6500050785
:100E28000038F038AB388B01F938BA3B1F071A384D
:100E380001FF2C000E070038FA3E613BFA3E293AC2
:100E48007901FB3E1A3803005B275D001C07003858
:100E5800140435071A3807006C69746572616C00F0
:100E680027070038140737381F071A380800736C2B
:100E780069746572616C2F07003814079C03AA0314
:100E88001A380038FA3E1407FFFF1A380038733F43
:100E9800FA3EBE38613B1A380038FA3E1A38003834
:100EA800733F1F071A3805006168656164003A07D7
:100EB80000381407293845071A38020069665707A9
:100EC80000381407303845071A380400656C736514
:100ED80061070038140729384507BE384A071A3809
:100EE80004007468656E690700384A071A380500F7
:100EF800626567696E007407003850071A38050084
:100F08007768696C65007B0700386407BE381A3853
:100F1800060072657065617483070038A507780755
:100F28001A380500756E74696C008C0700383738FC
:100F380030381F0753071A380500616761696E006A
:100F4800950700381407293853071A380200646FC8
:100F5800A00700381407893A50074E3908081A388C
:100F680004006C6F6F70AA0700381407B73AEF07D0
:100F78001A3805002B6C6F6F7000B407003814071F
:100F8800A83AEF071A3805006C6561766500BD0759
:100F980000381407C23A5C0708081A3803003F648F
:100FA8006F00C70700381407DE076407AD07BE38AF
:100FB80008081A380038B13EC73FAB38F93830381E
:100FC800E607BA3EF038F7391A3807FF656E646CE1
:100FD8006F6F7000D20700385307FC07B3383038FA
:100FE800F80778072938F1071A3802FF6C3EE90735
:100FF80000381B08733873383738FEFF1B08533A1C
:101008001A3802FF3E6CF9070038D33F1B08533AE1
:101018001B0873387B381A3803FF6C7030000508DA
:1010280069386000803D8A3D02FF6C7010084238C4
:101038007B0106FF63726561746518080038F10664
:10104800510814074C381A3806FF686561646572E0
:101058001D080038FA3EF938F938AB3822393038EB
:101068003F08AB38373800FF163AAE03F0384D3B2F
:101078001F07F0381A383738F0FF663D07FF776CDE
:1010880073636F7065002808DF3D5E00803D8A3D10
:1010980006FF72657665616C42080038E206823C9C
:1010A8007338B33830385C08E2067338BE38293BE9
:1010B8001A380500646F65733E004C080038140741
:1010C800750814070E9414076A081A389A938A93B5
:1010D800CB0101967F916F91BF93AF93DB010C9485
:1010E80004380038F038E206823C73384D3BB806C5
:1010F800613B1A3801FF3A005D080038F1068C0898
:10110800D3381A3807FF3A6E6F6E616D65007E0836
:101118000038FA3EAB38E9067B3814070038A108D6
:101128001A3801003B008608003814071A38A90845
:1011380051081A3801FF5D0095080038CE3F9F3EE0
:101148007B381A3801005B009E0800384E399F3EF4
:101158007B381A3808FF7661726961626C65A60887
:1011680000380B3FC008D33F143F1A3808FF636F9D
:101178006E7374616E74AE080038F1065108140776
:1011880042381F071A3804FF75736572BA080038A9
:10119800F1065108140752381F071A3807007265FC
:1011A800637572736500C7080038E90673381F074E
:1011B8001A3809FF696D6D65646961746500D20844
:1011C80000387F094D3BAB38BA3B3738FF7F0D3AC3
:1011D800BE38613B1A3806005B636861725DDD08E2
:1011E800003814073738B5041F071A38060061623B
:1011F8006F727422EF080038723E140711091A380A
:1012080005FF61626F727400FA0800384539663D5F
:1012180006FF3F61626F727404090038DB383038AA
:101228001709CF030909BA3E1A3809FF6765742DF3
:10123800737461636B000C090038AB38823CBE38AC
:101248004D3BAB38F9384E39BE38DE0730383709F0
:10125800893A9A3A2F3AAC3EC93897394D3BBE384D
:101268004539A83A2D09BA3EF0381A3809FF73658E
:10127800742D737461636B0019090038B13E293B02
:10128800BE384E39DE0730384F09893A823CC23EB3
:10129800293BB73A4A09D3381A3809FF6D61702DCE
:1012A800737461636B003A090038AB38823CBE380E
:1012B8004D3BAC3E813FDE0730387409893A9A3A93
:1012C8004D3BBE38F93802392438B3383038700904
:1012D800F038D338C23A1A38F038D33FA83A6309FD
:1012E800D3384E391A380BFF6765742D63757272DF
:1012F800656E740051090038373866004D3B1A385E
:1013080009FF6765742D6F7264657200770900388C
:1013180037386A0020091A3807FF636F6D706172E9
:10132800650084099709BF93AF938C0189919991BE
:10133800DC01899199919C0189919991FC01ED9029
:10134800F190EF1451F40A9519F02A95C1F701C0EC
:101358002A95022B11F4882702C08FEF00C0982F1E
:10136800AF91BF910C94043807FF6E66613E6C66BE
:10137800610090090038AC06293AFE3997391A38C5
:101388000BFF7365742D63757272656E7400B8090E
:10139800003837386600293B1A3808FF776F7264BF
:1013A8006C697374C4090038033F4E39C938293B46
:1013B800AB38823C7901043F1A380EFF666F7274AD
:1013C800682D776F72646C697374D109423868004C
:1013D80009FF7365742D6F7264657200E109003846
:1013E80037386A0041091A380FFF7365742D726522
:1013F800636F676E697A65727300EC090038373875
:101408007C0041091A380FFF6765742D7265636F98
:10141800676E697A65727300F809003837387C009E
:1014280020091A3804FF636F6465070A0038F1065B
:101438005108FA3E8B011F071A3808FF656E642DA4
:10144800636F6465160A003814070C94140704388F
:101458001A3808FF286D61726B657229210A69388C
:101468008800803D8A3D0800706F7374706F6E65E8
:101478002D0A00388005C205AB38F9388B018B017D
:10148800BA3B2438F0388B01BA3B1F071A380BFFD8
:101498006170706C7475726E6B657900370A00380C
:1014A800D600893C4401963F9C030A00466F72743B
:0A14B800686475696E6FCF031A387F
:10700000BF93AF93DB0111966EF0FD01EE0FFF1FF2
:10701000659175911196FB01EE0FFF1F059115917A
:10702000F8010994E89464EB7CE3F5CF04FF6578FC
:1070300069744B0A1B38AF91BF91E6CF07FF6578A3
:1070400065637574650016382538BC01899199917E
:10705000E2CF2A38FD01EE0FFF1FA591B591D4CFE5
:107060003138982B89919991A9F31196CDCF383861
:107070009A938A93FD01EE0FFF1F859195911196CA
:10708000C3CF42389A938A93FB013196EE0FFF1FCC
:1070900085919591B9CF4C389A938A93CB010196FB
:1070A000B3CF52389A938A93FB013196EE0FFF1FAC
:1070B00085919591840D951DA7CF07FF2876616C6A
:1070C000756529001E380038F10651081407693823
:1070D0001A380E946A08AB388B01BA3B24381A3838
:1070E00001FF40005D387438FC01819191918CCF93
:1070F00001FF210070387C38FC01899199919183BE
:1071000080838991999180CF02FF632178388838F4
:10711000FC018991999180838991999175CF02FFA2
:10712000634084389338FC01992780816DCF02FF3A
:1071300040758F380038F03A973973381A3802FFA3
:10714000217597380038F03A97397B381A3803FFA1
:10715000647570009F38AC389A938A9355CF04FFBA
:107160003F647570A738B438082F092B11F09A9333
:107170008A934ACF04FF73776170AF38BF388C01B0
:10718000899199911A930A933FCF04FF6F766572A4
:10719000BA38CA389A938A938A819B8135CF04FF83
:1071A00064726F70C538D438899199912DCF03FFDF
:1071B000726F7400CF38DC388C0129913991899134
:1071C00099913A932A931A930A931ECF03FF6E69FB
:1071D0007000D738EB38229617CF02FF723EE638A0
:1071E000F1389A938A938F919F910ECF02FF3E724E
:1071F000ED38FA389F938F938991999105CF02FFCB
:107200007240F63803399A938A938F919F919F9396
:107210008F93FACE02FF3C3EFF380038C73F143947
:107220001A3802FF303D0A391539982BD1F530C094
:1072300002FF303C11391C3997FD2AC032C002FFD1
:10724000303E18392339821593055CF151F120C085
:1072500003FF64303E001F392D3982159305899153
:10726000999182059305ECF0E1F012C003FF6430C0
:107270003C0028393B39229697FD0C9448390C94F0
:10728000513904FF74727565363946399A938A9379
:107290008FEF9FEFB9CE01FF300041394F399A93FC
:1072A0008A93C101B1CE02FF753C4B395739299100
:1072B000399182179307A8F3A1F3EACF02FF753E35
:1072C00053390038BE3856391A3801FF3C005E3950
:1072D000693929913991281739071CF7D9CF01FF4E
:1072E0003E00653973392991399128173907CCF255
:1072F000C1F2CECF04FF6C6F67326F397F39FC016A
:10730000992780E18A9522F0EE0FFF1FD8F77CCEF7
:107310009A957ACE01FF2D007A398E39099119910B
:10732000081B190BC80170CE01FF2B008A39983950
:1073300009911991800F911F67CE02FF6D2A943930
:10734000A1398C01899199919C0131027001209F92
:10735000C0013003F308900DE11CF31C1203F30885
:10736000900DE11CF31C9A938A93C7014DCE06FF42
:10737000756D2F6D6F649D39BD397C0129913991EF
:107380000991199140E15527000F111F221F331F4A
:10739000551F2E153F05520518F003952E193F096C
:1073A0004A9589F73A932A93C8012ECE03FF756D4B
:1073B0002A00B739DB398C0189919991809FF001BE
:1073C00022273327909FF00D211D331D819FF00D43
:1073D000211D331D919F200D311DCF019A938A935A
:1073E000C90112CE06FF696E76657274D639F83916
:1073F0008095909509CE02FF322FF239FF3995958D
:10740000879502CE02FF322AFB39063A880F991F70
:10741000FBCD03FF616E6400023A0E3A09911991A7
:1074200080239123F1CD02FF6F72093A173A099137
:107430001991802B912BE8CD03FF786F7200133ADE
:10744000213A0991199180279127DECD02FF312B36
:107450001C3A2A3A0196D8CD02FF312D263A303A0D
:107460000197D2CD06FF6C73686966742C3A383A7E
:10747000FC018991999131971AF0880F991FFBCFE0
:10748000C3CD06FF727368696674323A473AFC01ED
:107490008991999131971AF096958795FBCFB4CD44
:1074A00002FF2B21413A543AFC01899199912081A4
:1074B0003181820F931F8083918389919991A4CD0B
:1074C00003FF72704000503A653A9A938A938DB7E1
:1074D0009EB79ACD03FF72702100603A6F3A2FB7C2
:1074E000F8948DBF9EBF2FBF899199918DCD03FFD9
:1074F000737040006A3A7C3A9A938A93CE0184CDA5
:1075000003FF73702100773A853AEC0189919991D4
:107510007BCD8A3A29913991E0E83E0F821B930B8B
:107520003F932F939F938F93899199916DCD01FFF5
:107530006900803A9B3A9A938A938F919F91EF9139
:10754000FF91FF93EF939F938F938E0F9F1F5CCDBF
:10755000A93AEF91FF91E80FF91F899199911BF0DA
:10756000FF93EF9377CD0F911F9111964DCDB83AC0
:10757000EF91FF913196BBF3F3CF06FF756E6C6F01
:107580006F70973AC33A1F910F911F910F913CCDA5
:1075900006FF636D6F76653EBD3ACE3ABF93AF93FB
:1075A000E991F991A991B991092F082B41F0E80FC0
:1075B000F91FA80FB91F1E9112930197E1F7AF9120
:1075C000BF918991999120CD02FF3E3CC83AE83A9B
:1075D000092F982F802F18CD03FF75704000E43AD3
:1075E000F13A9A938A93C2010FCD03FF757021007F
:1075F000EC3AFA3A2C018991999106CD03FF316D4D
:107600007300F53A033BE0EAFFE03197F1F7FCCC79
:1076100003FF323E7200FE3A0D3BFC0189919991C5
:107620009F938F93FF93EF9389919991EDCC03FFF3
:1076300032723E00083B1C3B9A938A93EF91FF9174
:107640008F919F919A938A93CF01DECC02FF21659F
:10765000173B2A3BFC01899199912FB7F89428D0C8
:1076600000B5081709F00BD0319622D000B50917E4
:1076700011F0892F04D02FBF89919991C5CCF99928
:10768000FECF07B700FDFDCFF2BDE1BD80BDFA9A88
:10769000F99A089502FF4065263B4E3B2FB7F894B8
:1076A000FC0106D080B5319603D090B52FBFACCC8D
:1076B000F999FECFF2BDE1BDF89A089502FF216964
:1076C0004A3BDF3D8600803D8A3D09FF2821692D28
:1076D0006E72777729005E3B6D3B1FB71F93F8945E
:1076E0009C0189919991AF93BF93CF93DF9309D078
:1076F000DF91CF91BF91AF91899199911F911FBF58
:1077000083CC11D0E094F0948E219F21982B21F00E
:10771000B394F90102E020D0F90104E01DD0F90191
:1077200000E11AD00895F901E07CFF7FEF01A0E4A9
:10773000B0E0FE01EE0FFF1F45915591FE01E217EB
:10774000F30711F00A0102C07A010C01002704D0EE
:107750002196119771F70895F999FECF17B710FD8B
:10776000FDCFEE0FFF1F016007BFE895089502FFF0
:107770004069653BBB3BFC01EE0FFF1F8591959176
:1077800043CC03FF6E3E7200B73BC63BFC01082FA3
:10779000899199919F938F930A95D1F7EF93FF93D6
:1077A0008991999131CC03FF6E723E00C13BD83B69
:1077B0009A938A93FF91EF910E2F8F919F919A93B5
:1077C0008A930A95D1F7CF011FCC03FF64322A00B8
:1077D000D33BEA3B09911991000F111F881F991F94
:1077E0001A930A9311CC03FF64322F00E53BF83B58
:1077F0000991199195958795179507951A930A936D
:1078000003CC02FF642BF33B053C29913991E990AD
:10781000F99049915991240F351F8E1D9F1D3A9360
:107820002A93F2CB02FF642D013C163C2991399139
:10783000E990F99049915991421B530BE80AF90AD2
:107840005A934A93C701E0CB07FF64696E7665726D
:107850007400123C2B3C09911991809590950095EC
:1078600010951A930A93D0CB04FF2F6D6F64243CBC
:10787000393C9C0109911991412F432717FF04C0FE
:10788000109500950F5F1F4F37FF04C0309520956E
:107890002F5F3F4FEE24FF1851E1001F111F5A9533
:1078A00039F447FF04C0109500950F5F1F4F0BC0C0
:1078B000EE1CFF1CE21AF30A20F4E20EF31E889479
:1078C000ECCF0894EACFFA92EA92C8019DCB03FF6D
:1078D00061627300343C6C3C99231AF48095909556
:1078E000019692CB04FF7069636B673C0038293ABC
:1078F000AC3E7B3A973973381A3805FF63656C6C78
:107900002B00723C833C02967FCB04FF2B696E7484
:107910007D3C8A3C789478CB04FF2D696E74853C5D
:10792000913CF89471CB04FF696E74218C3C003853
:10793000373800009739293B1A3804FF696E7440C4
:10794000933C00383738000097394D3B1A3808FF10
:10795000696E742D747261709D3CAE3C809316010B
:1079600089919991689450CB003837381601923834
:107970003738000097394D3B2438BF3C1A38C03C9B
:1079800001D042CB189500389C030300206F6B0098
:10799000CF031A3800389C0302003E20893FCF03F2
:1079A0001A3800389C030400203F3F20CF03A53E37
:1079B0007338F938293F5103CA3E73385103F03800
:1079C000A53E7B381A3804FF71756974A73C0038EE
:1079D00014081B087B389A05843AA7056E3AA90853
:1079E0009F3E733814393038F63CCA3CAD04303809
:1079F000F03C3738EA05503DB3383038083DAB38F5
:107A00003738FEFF68393038063DD13C2938E83C2C
:107A1000C33C2938F03C1A3805FF70617573650066
:107A2000E33CDF3D7D01943D9E3D04FF636F6C644C
:107A30000C3D1A3DA4B62224332424BEE0E0F1E03C
:107A40002192E030E9F7FB30D9F7EFE7F1E02F01C1
:107A50000FEF0DBF04831AE01EBF1583CFEAC68364
:107A6000DAE0D783AAE3BDE3CFCA04FF7761726D82
:107A7000153D00386E0237385F013738113DBF3D84
:107A8000A908443FE73C07FF68616E646C657200BB
:107A9000353D52380A0005FF636174636800433D59
:107AA00000387B3AF938493D7338F938643A493D32
:107AB0007B382438F038493D7B38F038D3384E399C
:107AC0001A3805FF7468726F77004B3D0038AB3889
:107AD000143930386D3DD3381A38493D73386E3A11
:107AE000F038493D7B38F038BE38F938843AD3381D
:107AF000F0381A3807FF4564656665724000613DDD
:107B00000038BA3B4D3B1A3807FF4564656665721D
:107B100021007A3D0038BA3B293B1A3807FF5264EE
:107B2000656665724000843D0038BA3B73381A3888
:107B300007FF52646566657221008E3D0038BA3BCE
:107B40007B381A3807FF5564656665724000983DBA
:107B50000038BA3BF03A973973381A3807FF556442
:107B6000656665722100A23D0038BA3BF03A97394C
:107B70007B381A3806FF646566657221AE3D0038B1
:107B8000B83FAB388B018B01BA3B24381A3806FF5B
:107B9000646566657240BA3D0038B83FAB388B010A
:107BA000BA3B24381A3807FF2864656665722900D5
:107BB000C73D0038F10651081407DF3D1A380E940E
:107BC0006A08AB388B01BA3B243824381A3802FFD4
:107BD000643DD33D0038153C163A14391A3802FF7B
:107BE000752EE73D00384E3959031A3803FF752EBC
:107BF0007200EF3D00384E39BE3862031A3805FF77
:107C0000752F6D6F6400F63D0038F9384E39F03845
:107C1000BC391A3806FF6E6567617465FF3D003830
:107C2000F739293A1A3801FF2F000A3E0038383C4C
:107C3000EA381A3803FF6D6F6400133E0038383C91
:107C4000D3381A3803FF6D696E001A3E0038B13E12
:107C5000723930382C3EBE38D3381A3803FF6D6184
:107C60007800223E0038B13E68393038383EBE38A0
:107C7000D3381A3806FF77697468696E2E3E00386B
:107C8000C9388D39F9388D39F03856391A380DFF21
:107C900073686F772D776F72646C697374003A3E06
:107CA00000383738563EBE3891061A380038AC06D0
:107CB000CF03963F45391A3805FF776F726473001A
:107CC000473E003837386C004D3B503E1A380200B2
:107CD0002E225C3E0038723E1407CF031A38020091
:107CE0007322673E00383738220053059F3E7338B1
:107CF00030387B3E40071A3804FF66696C6C6F3E73
:107D00000038DB38DB38B33830388D3E813F893A74
:107D1000AB389A3A8738B73A883ED3381A3805FFD5
:107D2000665F637075007C3E003837380024373852
:107D3000F4001A3805FF7374617465008F3E423891
:107D4000A50104FF626173659A3E52380C0005FF7D
:107D500063656C6C7300A13E063A04FF3264757073
:107D6000A73E0038C938C9381A3805FF3264726F27
:107D70007000AD3E0038D338D3381A3804FF74751C
:107D8000636BB53E0038BE38C9381A3803FF3E6908
:107D90006E00BE3E5238180003FF70616400C63E9C
:107DA00000380B3F3738280097391A3804FF656DC3
:107DB0006974CC3EDF3D0E00A83DB43D05FF656D06
:107DC00069743F00D63EDF3D1000A83DB43D03FF7F
:107DD0006B657900DE3EDF3D1200A83DB43D04FF37
:107DE0006B65793FE73EDF3D1400A83DB43D02FFDF
:107DF0006470EF3E69385800803D8A3D05FF656834
:107E000065726500F73E69385C00803D8A3D04FF7D
:107E100068657265FE3E69385A00803D8A3D05FFFF
:107E2000616C6C6F7400073F00380B3F9739790124
:107E30000C3F1A3803FF62696E000F3F0038D33FD2
:107E4000A53E7B381A3807FF646563696D616C0075
:107E50001A3F003837380A00A53E7B381A3803FF2E
:107E600068657800233F003837381000A53E7B381E
:107E70001A3802FF626C2F3F4238200007FF7475EA
:107E8000726E6B657900393FDF3D6200803D8A3D4F
:107E900007FF746F7570706572003E3F0038AB3835
:107EA0003738610037387B003F3E30385A3F37382B
:107EB000DF000D3A1A3807FF746F6C6F7765720038
:107EC000483F0038AB383738410037385B003F3E19
:107ED00030386D3F37382000163A1A3806FF3F73A6
:107EE0007461636B5B3F0038B2051B3930387B3FF0
:107EF0003738FCFF663D1A3806FF626F756E647393
:107F00006E3F0038C9389739BE381A3802FF63729D
:107F10007C3F003837380D00DA3E37380A00DA3E49
:107F20001A3805FF737061636500863F00383C3F77
:107F3000DA3E1A3806FF737061636573913F00384B
:107F40004E39323EAB383038A93F963F2F3A293868
:107F5000A23FD3381A3803FF733E64009A3F0038BB
:107F6000AB381B391A3805FF3E626F647900AB3FAE
:107F70002A3A0800326C69746572616CB33F00384C
:107F8000BE38350735071A3801FF3D00B93F0038C4
:107F90008D3914391A3801FF3100C43F42380100CD
:107FA00001FF3200CB3F4238020002FF2D31D03FAB
:047FB0004238FFFF55
:00000001FF
