:020000020000FC
:0200040052D1D7
:0200080050D1D5
:02000C004ED1D3
:020010004CD1D1
:020014004AD1CF
:0200180048D1CD
:02001C0046D1CB
:0200200044D1C9
:0200240042D1C7
:0200280040D1C5
:02002C003ED1C3
:020030003CD1C1
:020034003AD1BF
:0200380038D1BD
:02003C0036D1BB
:0200400034D1B9
:0200440032D1B7
:0200480030D1B5
:02004C002ED1B3
:020050002CD1B1
:020054002AD1AF
:0200580028D1AD
:02005C0026D1AB
:0200600024D1A9
:0200640022D1A7
:0200680020D1A5
:02006C001ED1A3
:020070001CD1A1
:020074001AD19F
:0200780018D19D
:02007C0016D19B
:0200800014D199
:0200840012D197
:0200880010D195
:02008C000ED193
:020090000CD191
:020094000AD18F
:0200980008D18D
:02009C0006D18B
:0200A00004D189
:0200A40002D187
:0200A80000D185
:0200AC00FED084
:0200B000FCD082
:0200B400FAD080
:0200B800F8D07E
:0200BC00F6D07C
:0200C000F4D07A
:0200C400F2D078
:0200C800F0D076
:0200CC00EED074
:0200D000ECD072
:0200D400EAD070
:0200D800E8D06E
:0200DC00E6D06C
:1000E000E4D000200010FFFF39000A0041546D6584
:1000F000676131323830AF93AFB7AF93BF93EF93AF
:10010000FF93B091C600A0911202E0E0F2E0EA0F86
:10011000F31DB083A395AF70A0931202FF91EF91EE
:0A012000BF91AF91AFBFAF911895EA
:0200640048C092
:10012A0000F060F140F0120299F060F140F0140220
:10013A0099F020F006FF72782D697372000000F0C2
:10014A00BE0039F0A50040F01402A4F0BDF03BF265
:10015A0040F00F001FF240F0140299F040F0000244
:10016A00A9F1A4F020F007FF72783F2D697372009D
:10017A009F0000F04FFA40F01402A4F040F012027F
:10018A00A4F01FF120F007FF74782D706F6C6C00DB
:10019A00B80000F0DC0039F0CF0040F0C60099F05A
:1001AA0020F008FF74783F2D706F6C6CC80000F067
:1001BA004FFA40F0C000A4F040F020001FF220F0F7
:1001CA0004FF75627272D6007BF0C200A3FBADFB1E
:1001DA0006FF2B7573617274E50000F040F0980019
:1001EA0040F0C10099F040F0060040F0C20099F0DA
:1001FA00E900BDF0F9F240F0C50099F040F0C40002
:10020A0099F0950020F008FF31772E7265736574B6
:10021A00ED000F019A938A9399276C9A7498E0E8F3
:10022A00F7E03197F1F71FB7F894749A6C98E0E009
:10023A00F1E03197F1F78CB184FF9FEF1FBF6C9803
:10024A007498E0E8F6E03197F1F7892F0C9404F0FE
:10025A0007FF31772E736C6F7400080134016C9AB2
:10026A0074981FB7F894E8E1F0E03197F1F78894B1
:10027A00879510F46C98749AE4E2F0E03197F1F7FC
:10028A000CB104FD8068ECECF0E03197F1F76C9862
:10029A00749AE8E0F0E03197F1F71FBF0C9404F08C
:040000000C9458FA0A
:1002AA000A920FB60A920F900F900A9400921602C1
:1002BA0009900FBE09906894089502FF6D2B2D01D5
:1002CA0000F068FD1FF420F003FF75642A00620144
:1002DA0000F0BDF00BF1ECF1E5F0D0F002F1ECF139
:1002EA00EDF0A9F120F004FF756D6178690100F065
:1002FA007FF568F139F08201D0F0E5F020F004FFD3
:10030A00756D696E780100F07FF573F139F08E0131
:10031A00D0F0E5F020F000F040F000801FF226F166
:10032A0039F09A0140F0010020F057F120F00AFF5D
:10033A006E616D653E666C616773840100F0D2F38D
:10034A0040F000FF1FF220F006FF6E6577657374B8
:10035A009C014EF0170206FF6C6174657374A90163
:10036A004EF01B0208FF2863726561746529B001AB
:10037A0000F0CAF91403BDF0AE0178F58DF0F90268
:10038A00AE018DF020F001005C00B70100F0B1F978
:10039A00FCF098F58DF020F001002800C80100F06B
:1003AA0040F029009DF988F520F007FF636F6D7012
:1003BA00696C6500D10100F002F1BDF09AFB0BF106
:1003CA00D2F3EB0120F001FF2C00DA0100F0C8F5AE
:1003DA0073F3C8F53BF288FBC9F520F003005B27ED
:1003EA005D00E80100F027F8010220F007006C69BF
:1003FA00746572616C00F30100F0E00140F0EB01FA
:10040A0020F00800736C69746572616CFB0100F07E
:10041A00E0018AF798F720F000F0C8F5E001FFFF45
:10042A0020F000F046FBC8F5D0F073F320F000F09E
:10043A00C8F520F000F046FBEB0120F005006168EA
:10044A0065616400060200F0E0012FF0110220F05D
:10045A0002006966230200F0E00139F0110220F07F
:10046A000400656C73652D0200F0E0012FF01102A3
:10047A00D0F0160220F004007468656E350200F0B0
:10048A00160220F00500626567696E00400200F0FE
:10049A001C0220F005007768696C6500470200F0CD
:1004AA003002D0F020F006007265706561744F0268
:1004BA0000F07102440220F00500756E74696C0048
:1004CA00580200F040F039F0EB011F0220F005005D
:1004DA00616761696E00610200F0E0012FF01F029E
:1004EA0020F00200646F6C0200F0E0019BF21C0233
:1004FA0060F1D40220F004006C6F6F70760200F095
:10050A00E001C9F2BB0220F005002B6C6F6F70008E
:10051A00800200F0E001BAF2BB0220F005006C652F
:10052A0061766500890200F0E001D4F22802D40263
:10053A0020F003003F646F00930200F0E001AA027A
:10054A0030027902D0F0D40220F000F07FF580FD6D
:10055A00BDF00BF139F0B20288F502F109F220F090
:10056A0007FF656E646C6F6F70009E0200F01F02D9
:10057A00C802C5F039F0C40244022FF0BD0220F0CF
:10058A0002FF6C3EB50200F0E70285F085F040F00C
:10059A00FEFFE70265F220F002FF3E6CC50200F0A2
:1005AA008CFDE70265F2E70285F08DF020F003FF8B
:1005BA006C703000D1027BF07C00A3FBADFB02FF24
:1005CA006C70DC024EF01D0206FF63726561746591
:1005DA00E40200F0BD011D03E0015BF020F006FF1C
:1005EA00686561646572E90200F0C8F50BF10BF108
:1005FA00BDF034F139F00B03BDF040F000FF28F2F2
:10060A009CF702F15FF3EB0102F120F040F0F0FFFA
:10061A0056F807FF776C73636F706500F40202FC8B
:10062A007A00A3FBADFB06FF72657665616C0E036B
:10063A0000F0AE0178F585F0C5F039F02803AE0177
:10064A0085F0D0F03BF320F00500646F65733E003F
:10065A00180300F0E0014103E0010E94E0013603C3
:10066A0020F09A938A93CB0101967F916F91BF9361
:10067A00AF93DB010C9404F000F002F1AE0178F5BF
:10068A0085F05FF36DFC73F320F001FF3A00290354
:10069A0000F0BD015803E5F020F007FF3A6E6F6ED7
:1006AA00616D65004A0300F0C8F5BDF0B5018DF033
:1006BA00E00100F06D0320F001003B00520300F05E
:1006CA00E00120F075031D0320F001FF5D006103C6
:1006DA0000F087FD65F58DF020F001005B006A03EC
:1006EA0000F060F165F58DF020F008FF766172691F
:1006FA0061626C65720300F0D9F58C038CFDE2F53A
:10070A0020F008FF636F6E7374616E747A0300F0F1
:10071A00BD011D03E0014EF0EB0120F004FF7573EB
:10072A006572860300F0BD011D03E00161F0EB0173
:10073A0020F007007265637572736500930300F019
:10074A00B50185F0EB0120F009FF696D6D656469FB
:10075A00617465009E0300F04B045FF3BDF0D2F3B1
:10076A0040F0FF7F1FF2D0F073F320F006005B63C6
:10077A006861725DA90300F0E00140F0FFF8EB0147
:10078A0020F0060061626F727422BB0300F0DBF492
:10079A00E001DD0320F005FF61626F727400C60399
:1007AA0000F057F156F806FF3F61626F7274D0038A
:1007BA0000F0EDF039F0E303BDF7D50388F520F03A
:1007CA0009FF6765742D737461636B00D80300F0C9
:1007DA00BDF078F5D0F05FF3BDF00BF160F1D0F029
:1007EA00AA0239F003049BF2ACF241F272F5DBF093
:1007FA00A9F15FF3D0F057F1BAF2F90388F502F1E3
:10080A0020F009FF7365742D737461636B00E5034F
:10081A0000F07FF53BF3D0F060F1AA0239F01B0437
:10082A009BF278F590F53BF3C9F21604E5F020F057
:10083A0009FF6D61702D737461636B00060400F02B
:10084A00BDF078F5D0F05FF372F55FFDAA0239F0DA
:10085A0040049BF2ACF25FF3D0F00BF114F12AF0F2
:10086A00C5F039F03C0402F1E5F0D4F220F002F1CF
:10087A008CFDBAF22F04E5F060F120F00BFF6765FA
:10088A00742D63757272656E74001D0400F040F079
:10089A0082005FF320F009FF6765742D6F7264654B
:1008AA007200430400F040F08600EC0320F007FFDA
:1008BA00636F6D706172650050046304BF93AF93F8
:1008CA008C0189919991DC01899199919C01899175
:1008DA009991FC01ED90F190EF1451F40A9519F0F9
:1008EA002A95C1F701C02A95022B11F4882702C064
:1008FA008FEF00C0982FAF91BF910C9404F007FFBF
:10090A006E66613E6C6661005C0400F061FC3BF25D
:10091A0010F2A9F120F00BFF7365742D63757272E2
:10092A00656E7400840400F040F082003BF320F00E
:10093A0008FF776F72646C697374900400F0D1F5E4
:10094A0060F1DBF03BF3BDF078F588FBD2F520F0DF
:10095A000EFF666F7274682D776F72646C697374B8
:10096A009D044EF0840009FF7365742D6F726465EF
:10097A007200AD0400F040F086000D0420F00FFF75
:10098A007365742D7265636F676E697A6572730039
:10099A00B80400F040F098000D0420F00FFF6765DE
:1009AA00742D7265636F676E697A65727300C40429
:1009BA0000F040F09800EC0320F004FF636F6465D8
:1009CA00D30400F0BD011D03C8F59AFBEB0120F02A
:1009DA0008FF656E642D636F6465E20400F0E00150
:1009EA000C94E00104F020F008FF286D61726B6539
:1009FA007229ED047BF0A400A3FBADFB0800706F25
:100A0A007374706F6E65F90400F0CAF9C7FABDF025
:100A1A000BF19AFB9AFBD2F32AF002F19AFBD2F37A
:100A2A00EB0120F00BFF6170706C7475726E6B6570
:100A3A007900030500F0F2008BF453FBFFF78AF705
:100A4A000A00466F7274686475696E6FBDF720F0AC
:020000021000EC
:10E00000BF93AF93DB0111969EF0FD015527EE0FF4
:10E01000FF1F551F5BBF679177911196FB01552735
:10E02000EE0FFF1F551F5BBF07911791F801099471
:10E03000E89466EB74EFF2CF04FF65786974170516
:10E0400021F0AF91BF91E0CF07FF657865637574EC
:10E0500065001CF02BF0BC0189919991DFCF30F065
:10E06000FD015527EE0FFF1F551F5BBFA791B7910D
:10E07000CBCF3AF0982B8991999191F31196C4CF17
:10E0800041F09A938A93FD015527EE0FFF1F551F0C
:10E090005BBF879197911196B7CF4EF09A938A9371
:10E0A000FB0131965527EE0FFF1F551F5BBF879170
:10E0B0009791AACF5BF09A938A93CB010196A4CF54
:10E0C00061F09A938A93FB0131965527EE0FFF1F5B
:10E0D000551F5BBF87919791840D951D95CF07FFC5
:10E0E0002876616C7565290024F000F0BD011D03E0
:10E0F000E0017BF020F00E943603BDF09AFBD2F3E2
:10E100002AF020F001FF40006FF086F0FC018191C1
:10E1100091917ACF01FF210082F08EF0FC0189916C
:10E12000999191838083899199916ECF02FF6321A8
:10E130008AF09AF0FC018991999180838991999153
:10E1400063CF02FF634096F0A5F0FC019927808120
:10E150005BCF02FF4075A1F000F002F3A9F185F05A
:10E1600020F002FF2175A9F000F002F3A9F18DF073
:10E1700020F003FF64757000B1F0BEF09A938A93AB
:10E1800043CF04FF3F647570B9F0C6F0082F092B28
:10E1900011F09A938A9338CF04FF73776170C1F0BE
:10E1A000D1F08C01899199911A930A932DCF04FF94
:10E1B0006F766572CCF0DCF09A938A938A819B81AA
:10E1C00023CF04FF64726F70D7F0E6F089919991C4
:10E1D0001BCF03FF726F7400E1F0EEF08C01299108
:10E1E0003991899199913A932A931A930A930CCF72
:10E1F00003FF6E697000E9F0FDF0229605CF02FF83
:10E20000723EF8F003F19A938A938F919F91FCCE1E
:10E2100002FF3E72FFF00CF19F938F9389919991C9
:10E22000F3CE02FF724008F115F19A938A938F9111
:10E230009F919F938F93E8CE02FF3C3E11F100F037
:10E2400080FD26F120F002FF303D1CF127F1982BD4
:10E25000D1F530C002FF303C23F12EF197FD2AC0EA
:10E2600032C002FF303E2AF135F1821593055CF190
:10E2700051F120C003FF64303E0031F13FF18215BF
:10E2800093058991999182059305ECF0E1F012C014
:10E2900003FF64303C003AF14DF1229697FD0C9457
:10E2A0005AF10C9463F104FF7472756548F158F1EA
:10E2B0009A938A938FEF9FEFA7CE01FF300053F11F
:10E2C00061F19A938A93C1019FCE02FF753C5DF183
:10E2D00069F12991399182179307A8F3A1F3EACF45
:10E2E00002FF753E65F100F0D0F068F120F001FF0B
:10E2F0003C0070F17BF129913991281739071CF7FF
:10E30000D9CF01FF3E0077F185F129913991281786
:10E310003907CCF2C1F2CECF04FF6C6F673281F1C6
:10E3200091F1FC01992780E18A9522F0EE0FFF1F01
:10E33000D8F76ACE9A9568CE01FF2D008CF1A0F136
:10E3400009911991081B190BC8015ECE01FF2B0022
:10E350009CF1AAF109911991800F911F55CE02FFEE
:10E360006D2AA6F1B3F18C01899199919C0131023A
:10E370007001209FC0013003F308900DE11CF31CD5
:10E380001203F308900DE11CF31C9A938A93C701C2
:10E390003BCE06FF756D2F6D6F64AFF1CFF17C0141
:10E3A000299139910991199140E15527000F111FC9
:10E3B000221F331F551F2E153F05520518F00395D8
:10E3C0002E193F094A9589F73A932A93C8011CCE22
:10E3D00003FF756D2A00C9F1EDF18C0189919991C6
:10E3E000809FF00122273327909FF00D211D331DC0
:10E3F000819FF00D211D331D919F200D311DCF01F7
:10E400009A938A93C90100CE06FF696E766572748D
:10E41000E8F10AF280959095F7CD02FF322F04F2D1
:10E4200011F295958795F0CD02FF322A0DF218F280
:10E43000880F991FE9CD03FF616E640014F220F28A
:10E440000991199180239123DFCD02FF6F721BF296
:10E4500029F209911991802B912BD6CD03FF786F6A
:10E46000720025F233F20991199180279127CCCDC2
:10E4700002FF312B2EF23CF20196C6CD02FF312D68
:10E4800038F242F20197C0CD06FF6C73686966747A
:10E490003EF24AF2FC018991999131971AF0880F66
:10E4A000991FFBCFB1CD06FF72736869667444F2A1
:10E4B00059F2FC018991999131971AF096958795B7
:10E4C000FBCFA2CD02FF2B2153F266F2FC01899112
:10E4D000999120813181820F931F8083918389914B
:10E4E000999192CD03FF7270400062F277F29A9395
:10E4F0008A938DB79EB788CD03FF7270210072F2A8
:10E5000081F22FB7F8948DBF9EBF2FBF899199914B
:10E510007BCD03FF737040007CF28EF29A938A9356
:10E52000CE0172CD03FF7370210089F297F2EC01E6
:10E530008991999169CD9CF229913991E0E83E0F3A
:10E54000821B930B3F932F939F938F938991999164
:10E550005BCD01FF690092F2ADF29A938A938F919D
:10E560009F91EF91FF91FF93EF939F938F938E0F66
:10E570009F1F4ACDBBF2EF91FF91E80FF91F8991E0
:10E5800099911BF0FF93EF936BCD0F911F91119613
:10E590003BCDCAF2EF91FF913196BBF3F3CF06FF6B
:10E5A000756E6C6F6F70A9F2D5F21F910F911F916C
:10E5B0000F912ACD06FF636D6F76653ECFF2E0F2D4
:10E5C000BF93AF93E991F991A991B991092F082BC4
:10E5D00041F0E80FF91FA80FB91F1E911293019780
:10E5E000E1F7AF91BF91899199910ECD02FF3E3C29
:10E5F000DAF2FAF2092F982F802F06CD03FF7570FB
:10E600004000F6F203F39A938A93C201FDCC03FF14
:10E6100075702100FEF20CF32C0189919991F4CCD4
:10E6200003FF316D730007F315F3E0EAFFE0319764
:10E63000F1F7EACC03FF323E720010F31FF3FC0146
:10E64000899199919F938F93FF93EF9389919991DA
:10E65000DBCC03FF32723E001AF32EF39A938A93B7
:10E66000EF91FF918F919F919A938A93CF01CCCC98
:10E6700002FF216529F33CF3FC01899199912FB7A1
:10E68000F89428D000B5081709F00BD0319622D0A5
:10E6900000B5091711F0892F04D02FBF89919991E6
:10E6A000B3CCF999FECF07B700FDFDCFF2BDE1BDB8
:10E6B00080BDFA9AF99A089502FF406538F360F335
:10E6C0002FB7F894FC0106D080B5319603D090B5F1
:10E6D0002FBF9ACCF999FECFF2BDE1BDF89A08950B
:10E6E00002FF21695CF302FCA200A3FBADFB09FF62
:10E6F0002821692D6E727777290070F37FF31FB799
:10E700001F93F8949C0189919991AF93BF93CF93F4
:10E71000DF9309D0DF91CF91BF91AF91899199910A
:10E720001F911FBF71CC11D0E094F0948E219F21D6
:10E73000982B21F0B394F90102E023D0F90104E011
:10E7400020D0F90100E11DD00895F901E078FF7FA4
:10E75000EF01A0E8B0E0FE015527EE0FFF1F551FA7
:10E760005BBF47915791FE01E217F30711F00A01D1
:10E7700002C07A010C01002704D02196119759F7A5
:10E780000895F999FECF17B710FDFDCF5527EE0F6D
:10E79000FF1F551F5BBF016007BFE895089502FF8B
:10E7A000406977F3D3F3FC015527EE0FFF1F551F88
:10E7B0005BBF8791979128CC03FF6E3E7200CFF329
:10E7C000E1F3FC01082F899199919F938F930A950A
:10E7D000D1F7EF93FF938991999116CC03FF6E7255
:10E7E0003E00DCF3F3F39A938A93FF91EF910E2F9F
:10E7F0008F919F919A938A930A95D1F7CF0104CC78
:10E8000003FF64322A00EEF305F409911991000F19
:10E81000111F881F991F1A930A93F6CB03FF6432C6
:10E820002F0000F413F40991199195958795179588
:10E8300007951A930A93E8CB02FF642B0EF420F499
:10E8400029913991E990F99049915991240F351FF7
:10E850008E1D9F1D3A932A93D7CB02FF642D1CF483
:10E8600031F429913991E990F99049915991421BDC
:10E87000530BE80AF90A5A934A93C701C5CB07FF1D
:10E8800064696E76657274002DF446F409911991ED
:10E8900080959095009510951A930A93B5CB02FF39
:10E8A000643D3FF400F030F428F226F120F002FF3E
:10E8B000752E4FF400F060F147F720F003FF752E3E
:10E8C000720057F400F060F1D0F050F720F00DFF27
:10E8D00073686F772D776F72646C697374005EF480
:10E8E00000F040F076F4D0F046FC20F000F061FC3F
:10E8F000BDF7FFF757F120F005FF776F72647300E3
:10E9000067F400F040F088005FF370F420F004FF3B
:10E910002B696E747CF48CF4789476CB04FF2D69AB
:10E920006E7487F493F4F8946FCB04FF696E7421CE
:10E930008EF400F040F00000A9F13BF320F004FF5A
:10E94000696E744095F400F040F00000A9F15FF3A7
:10E9500020F008FF696E742D747261709FF4B0F43A
:10E96000809316028991999168944ECB00F040F003
:10E970001602A4F040F00000A9F15FF32AF0C1F400
:10E9800020F0C2F401D040CB189504FF7069636B8E
:10E99000A9F400F03BF272F58DF2A9F185F020F0B8
:10E9A00002002E22C5F400F0DBF4E001BDF720F0F8
:10E9B00002007322D0F400F040F022009DF965F5CA
:10E9C00085F039F0E4F40C0220F004FF66696C6C09
:10E9D000D8F400F0EDF0EDF0C5F039F0F6F45FFD9D
:10E9E0009BF2BDF0ACF299F0C9F2F1F4E5F020F041
:10E9F0000BFF656E7669726F6E6D656E7400E5F47F
:10EA00004EF0800009FF776F72646C697374730055
:10EA1000000000F040F0080020F004FF2F70616457
:10EA200002F500F08DF29EF59FF120F005FF2F68B2
:10EA30006F6C64000DF500F09EF5D9F59FF120F0A4
:10EA40000AFF666F7274682D6E616D6516F500F0D1
:10EA50008AF70700616D666F7274680020F007FF27
:10EA600076657273696F6E0020F500F040F03D002E
:10EA700020F003FF637075002FF500F040F0750083
:10EA8000E9F720F008FF6D63752D696E666F39F543
:10EA900000F040F0710020F005FF2F7573657200E3
:10EAA00042F500F040F0260020F005FF665F63703D
:10EAB0007500F8F400F040F0002440F0F40020F07D
:10EAC00005FF73746174650055F54EF01F0204FF75
:10EAD0006261736560F561F00C0005FF63656C6C45
:10EAE000730067F518F205FF63656C6C2B006DF51C
:10EAF00079F5029689CA04FF3264757073F500F0E7
:10EB0000DBF0DBF020F005FF3264726F70007BF504
:10EB100000F0E5F0E5F020F004FF7475636B83F519
:10EB200000F0D0F0DBF020F003FF3E696E008CF5C2
:10EB300061F0180003FF7061640094F500F0D9F5EE
:10EB400040F02800A9F120F004FF656D69749AF582
:10EB500002FC0E00CBFBD7FB05FF656D69743F001F
:10EB6000A4F502FC1000CBFBD7FB03FF6B6579001B
:10EB7000ACF502FC1200CBFBD7FB04FF6B65793FC1
:10EB8000B5F502FC1400CBFBD7FB02FF6470BDF5AA
:10EB90007BF07400A3FBADFB05FF65686572650043
:10EBA000C5F57BF07800A3FBADFB04FF68657265DB
:10EBB000CCF57BF07600A3FBADFB05FF616C6C6FC1
:10EBC0007400D5F500F0D9F5A9F188FBDAF520F04D
:10EBD00003FF62696E00DDF500F08CFD6BF58DF0D2
:10EBE00020F007FF646563696D616C00E8F500F073
:10EBF00040F00A006BF58DF020F003FF68657800A7
:10EC0000F1F500F040F010006BF58DF020F002FF00
:10EC1000626CFDF54EF0200007FF7475726E6B6537
:10EC2000790007F602FC7E00A3FBADFB04FF2F6D0D
:10EC30006F640CF61BF69C0109911991412F432733
:10EC400017FF04C0109500950F5F1F4F37FF04C0DA
:10EC5000309520952F5F3F4FEE24FF1851E1001FA4
:10EC6000111F5A9539F447FF04C0109500950F5FA6
:10EC70001F4F0BC0EE1CFF1CE21AF30A20F4E20E39
:10EC8000F31E8894ECCF0894EACFFA92EA92C80176
:10EC9000BBC905FF752F6D6F640016F600F00BF110
:10ECA00060F102F1CEF120F006FF6E6567617465D8
:10ECB00049F600F009F23BF220F001FF2F0054F674
:10ECC00000F01AF6FCF020F003FF6D6F64005DF6B3
:10ECD00000F01AF6E5F020F003FF6162730064F6BD
:10ECE00071F699231AF48095909501968DC903FFCA
:10ECF0006D696E006CF600F07FF584F139F081F6F5
:10ED0000D0F0E5F020F003FF6D61780077F600F0B9
:10ED10007FF57AF139F08DF6D0F0E5F020F006FFBE
:10ED200077697468696E83F600F0DBF09FF10BF190
:10ED30009FF102F168F120F007FF746F7570706544
:10ED400072008FF600F0BDF040F0610040F07B00F3
:10ED500094F639F0AEF640F0DF001FF220F007FF26
:10ED6000746F6C6F776572009CF600F0BDF040F038
:10ED7000410040F05B0094F639F0C1F640F020000D
:10ED800028F220F003FF686C6400AFF64EF0210219
:10ED900004FF686F6C64C2F600F0C6F6BDF085F043
:10EDA00041F2BDF00BF1D0F08DF002F199F020F0BE
:10EDB00002FF3C23C8F600F09EF5C6F68DF020F069
:10EDC00001FF2300D8F600F06BF585F060F7EDF059
:10EDD00040F00900DBF07AF139F0F1F640F007007D
:10EDE000A9F140F03000A9F1CCF620F002FF237326
:10EDF000E0F600F0E3F67FF528F226F139F0FAF6B6
:10EE000020F002FF233EF6F600F088F5C6F685F006
:10EE10009EF5DBF09FF120F004FF7369676E01F748
:10EE200000F02DF139F017F740F02D00CCF620F06E
:10EE300003FF642E72000CF700F00BF190F5D4FC88
:10EE4000DBF6F9F6EDF010F704F702F1DBF09FF1D5
:10EE500008F818F820F002FF2E7218F700F00BF1F6
:10EE600068FD02F11CF720F002FF642E2BF700F082
:10EE700060F11CF7FFF720F001FF2E0034F700F0DF
:10EE800068FD37F720F003FF75642E003CF700F0B3
:10EE900060F150F7FFF720F004FF75642E7243F71E
:10EEA00000F00BF1DBF6F9F604F702F1DBF09FF16D
:10EEB00008F818F820F006FF75642F6D6F644CF7A2
:10EEC00000F00BF160F114F1CEF102F1D0F00BF192
:10EED000CEF102F120F006FF64696769743F5BF7C9
:10EEE00000F0A2F6BDF040F0390084F140F00001DE
:10EEF0001FF2A9F1BDF040F0400184F140F007019C
:10EF00001FF29FF140F030009FF1BDF06BF585F0EE
:10EF100068F120F000F014F1E9F702F1DBF03BF2C8
:10EF200010F2A9F13BF20BF120F002FF732C6BF70A
:10EF300000F0BDF09CF720F000F0EB01BDF010F206
:10EF400090F517F29FF10BF160F1AA0239F0AFF7DB
:10EF50009BF2BDF085F0EB0178F5C9F2A9F702F15B
:10EF600034F139F0B6F7BDF0A4F0EB01E5F020F094
:10EF700005FF69747970650095F700F0BDF010F237
:10EF800090F517F29FF10BF160F1AA0239F0D1F779
:10EF90009BF2BDF0D2F3BDF0DEF7DAF73BF2C9F237
:10EFA000C9F702F134F139F0D8F7BDF0D2F3DEF74A
:10EFB000E5F020F000F0F9F2DEF720F000F040F08C
:10EFC000FF001FF2A8F520F006FF69636F756E74ED
:10EFD000B8F700F0BDF03BF2D0F0D2F320F002FF22
:10EFE0006372E4F700F040F00D00A8F540F00A006D
:10EFF000A8F520F005FF737061636500EFF700F07E
:10F000000AF6A8F520F006FF737061636573FAF7DE
:10F0100000F060F187F6BDF039F012F8FFF741F229
:10F020002FF00BF8E5F020F004FF7479706503F819
:10F0300000F05FFDAA0239F023F89BF2ACF2A4F0D5
:10F04000A8F5C9F21EF820F001FF270014F800F01F
:10F05000CAF9C7FA24FB80FD39F030F8E5F020F05A
:10F0600040F0F3FF56F807FF68616E646C6572004C
:10F0700024F861F00A0005FF63617463680033F8E7
:10F0800000F08DF20BF139F885F00BF176F239F8DA
:10F090008DF02AF002F139F88DF002F1E5F060F11F
:10F0A00020F005FF7468726F77003BF800F0BDF048
:10F0B00026F139F05DF8E5F020F039F885F080F2BE
:10F0C00002F139F88DF002F1D0F00BF196F2E5F093
:10F0D00002F120F005FF63736B69700051F800F0D6
:10F0E0000BF1BDF039F07EF8DBF0A4F014F180FDF7
:10F0F00039F07EF887FDBBF92FF071F802F1E5F0E9
:10F1000020F005FF637363616E006AF800F00BF195
:10F11000DBF0BDF0A4F014F180FD26F139F09BF88E
:10F12000D0F041F2D0F0DBF02DF126F139F09BF870
:10F130003BF22FF089F8FCF0DBF09FF102F1E5F0F3
:10F1400020F006FF61636365707481F800F0DBF006
:10F15000A9F141F2DBF0B9F5BDF0E7F826F139F09D
:10F16000D9F8BDF040F0080080FD39F0C9F8E5F0AD
:10F17000EDF07FF584F10BF1EDF0EDF002F139F0F7
:10F18000C7F8DFF841F20BF1DBF002F17C012FF060
:10F19000D7F8BDF00AF67AF139F0D0F8E5F00AF6C2
:10F1A000BDF0A8F5DBF099F03BF2DBF088012FF021
:10F1B000ABF8E5F0FCF0D0F09FF1F2F720F000F0B2
:10F1C00040F00800BDF0A8F5FFF7A8F520F000F02A
:10F1D000BDF040F00D0080FDD0F040F00A0080FD51
:10F1E00028F220F006FF726566696C6CA1F802FCDB
:10F1F0001A00CBFBD7FB04FF63686172F2F800F0E2
:10F20000CAF9E5F0A4F020F006FF6E756D62657234
:10F21000FBF800F06BF585F00BF14DF90BF160F99F
:10F220004DF902F128F20BF1BDF026F139F020F989
:10F2300088F502F1E5F002F16BF58DF060F120F058
:10F240001EF360F160F12DF37EF9C5F039F042F95B
:10F2500087FD80FD39F039F9A4F040F02E0080FDE3
:10F2600039F03AF902F139F036F9E1FC8CFD2FF072
:10F2700048F9E5F088F502F1E5F002F16BF58DF063
:10F2800060F120F088F502F139F047F959F687FD71
:10F2900002F16BF58DF057F120F000F0DBF0A4F0F7
:10F2A00040F02D0080FDBDF00BF139F059F987FDDC
:10F2B000BBF902F120F05BF00A00100002000A0026
:10F2C00000F0DBF0A4F040F023009FF1BDF060F10E
:10F2D00040F0040094F639F076F95BF9A9F1D2F325
:10F2E0006BF58DF087FDBBF92FF077F9E5F020F095
:10F2F00007FF3E6E756D6265720004F900F0BDF0A7
:10F3000039F097F9DBF0A4F070F726F139F08AF9BB
:10F31000E5F020F00BF106FD6BF585F06D0102F1D3
:10F32000650106FD40F00100BBF92FF07FF920F0E8
:10F3300005FF70617273650078F900F00BF1B1F9A7
:10F3400098F585F0BBF902F186F8BDF03BF298F52F
:10F3500065F287FDBBF920F006FF736F7572636578
:10F3600098F902FC1600CBFBD7FB07FF2F737472D2
:10F37000696E6700ACF900F0EDF0DBF0A9F1EDF09B
:10F38000EDF09FF120F00AFF70617273652D6E61E0
:10F390006D65B5F900F00AF6CEF920F000F00BF13A
:10F3A000B1F998F585F0BBF914F16FF802F186F820
:10F3B0007FF5A9F1B1F9E5F09FF198F58DF020F016
:10F3C00009FF66696E642D6E616D6500C3F900F01A
:10F3D00040F0F3F940F08600240426F139F0F2F908
:10F3E00088F560F120F000F00BF17FF502F114FCDC
:10F3F000BDF039F000FA0BF1FCF0FCF002F157F12E
:10F4000020F000F08AF70300206F6B00BDF720F0BA
:10F4100000F08AF702003E20F2F7BDF720F000F07E
:10F420008AF70400203F3F20BDF76BF585F00BF114
:10F43000F7F53FF798F585F03FF702F16BF58DF0A2
:10F4400020F004FF71756974E0F900F0E002E70252
:10F450008DF086FA96F293FA80F2750365F585F0E1
:10F4600026F139F034FA08FAF7F839F02EFA40F0BC
:10F47000ACFA40F8C5F039F046FABDF040F0FEFFB6
:10F480007AF139F044FA0FFA2FF026FA01FA2FF048
:10F490002EFA20F005FF70617573650021FA02FCF9
:10F4A0002302B7FBC1FB04FF636F6C644AFA58FA8E
:10F4B000A4B62224332424BEE0E0F2E02192E0301E
:10F4C000E9F7F232D9F7E5E2F2E02F010FEF0DBFD5
:10F4D000048311E21EBF1583CFEAC683D1E2D7832E
:10F4E000A9E7BAEF0C9404F004FF7761726D53FA48
:10F4F00000F051FD40F06EFB40F04FFAE2FB750367
:10F5000012F625FA03FF7370300074FA7BF00600E0
:10F51000CBFBD7FB02FF737082FA61F0080003FF98
:10F52000727030008AFA00F097FA85F020F061F0EE
:10F53000040005FF6465707468008FFA00F086FAB5
:10F540008DF29FF110F241F220F009FF696E7465AF
:10F5500072707265740099FA00F0CAF9BDF039F062
:10F56000BCFAC7FA65F585F039F0B7FA9AFBD2F321
:10F570002AF046FB2FF0ADFA88F520F00DFF646FFE
:10F580002D7265636F676E697A657200A5FA00F087
:10F5900040F0D3FA40F09800240426F139F0D2FA72
:10F5A00088F539FB20F000F0EDF0EDF07FF51EF36B
:10F5B000EDF02AF02DF3EDF0BDF039FB80FD39F0D0
:10F5C000E4FAE5F060F120F0FCF0FCF057F120F0F7
:10F5D00005FF723A6E756D00BEFA5BF06EFB0102BC
:10F5E000010206FF723A646E756DE8FA5BF06EFB1D
:10F5F00078FD78FD07FF7265633A6E756D00F1FA6C
:10F6000000F009F939F00CFB87FD80FD39F00AFBA9
:10F61000EDFA20F0F6FA20F039FB20F008FF7265D1
:10F62000633A776F7264FAFA00F0E7F9BDF026F1F9
:10F6300039F01DFBE5F039FB20F024FB20F006FF3C
:10F64000723A776F72640EFB5BF028FB2CFB78FD3F
:10F6500000F0E5F02AF020F000F02DF139F032FB57
:10F66000EB0120F02AF020F006FF723A6661696C27
:10F670001FFB5BF03DFB3DFB3DFB00F040F0F3FF6B
:10F6800056F806FF3F737461636B34FB00F09EFA1B
:10F690002DF139F04EFB40F0FCFF56F820F003FF4F
:10F6A0007665720041FB00F027F5BDF7FFF76BF5BB
:10F6B00085F035F5F7F568FDDBF6E3F640F02E0052
:10F6C000CCF6F9F604F718F86BF58DF0FFF73DF579
:10F6D000BDF720F004FF6E6F6F704FFB00F020F05D
:10F6E00006FF756E757365646AFB00F08DF2D9F5DF
:10F6F0009FF120F00200746F70FB00F027F871FD9D
:10F7000065F585F039F08EFBE00188FBEB0120F018
:10F7100000F002F1BDF09AFB0BF1D2F3BDF09AFBC1
:10F720009AFBD2F32AF020F007FF692D63656C6C19
:10F730002B007AFB00F03BF220F007FF4564656682
:10F740006572400094FB00F0D2F35FF320F007FFF6
:10F7500045646566657221009DFB00F0D2F33BF3C2
:10F7600020F007FF5264656665724000A7FB00F059
:10F77000D2F385F020F007FF5264656665722100C0
:10F78000B1FB00F0D2F38DF020F007FF5564656601
:10F7900065724000BBFB00F0D2F302F3A9F185F0E3
:10F7A00020F007FF5564656665722100C5FB00F017
:10F7B000D2F302F3A9F18DF020F006FF64656665CF
:10F7C0007221D1FB00F071FDBDF09AFB9AFBD2F3E0
:10F7D0002AF020F006FF646566657240DDFB00F0EC
:10F7E00071FDBDF09AFBD2F32AF020F007FF2864E8
:10F7F000656665722900EAFB00F0BD011D03E001AA
:10F8000002FC20F00E943603BDF09AFBD2F32AF0EE
:10F810002AF020F00FFF7365617263682D776F72B5
:10F82000646C69737400F6FB00F00BF160F140F05A
:10F8300029FC02F146FCBDF026F139F023FC88F5E5
:10F84000E5F060F120F0BDF06DFCD0F0A301900177
:10F8500020F000F00BF1E5F07FF514F161FC77FC8E
:10F8600039F037FC02F1E5F060F157F120F088F54E
:10F8700002F160F120F011FF7472617665727365B8
:10F880002D776F72646C697374000AFC00F05FF38B
:10F89000BDF039F057FC7FF51EF3D0F02AF02DF3C0
:10F8A000EDF039F057FC8A04D2F32FF048FC88F5CC
:10F8B00020F00BFF6E616D653E737472696E6700B8
:10F8C0003BFC00F0E9F740F0FF001FF220F007FFDB
:10F8D0006E66613E6366610059FC00F08A043BF28B
:10F8E00020F008FF69636F6D7061726567FC00F05E
:10F8F0000BF1DBF002F11FF139F082FC88F5E5F045
:10F9000057F120F0D0F060F1AA0239F0A7FC9BF289
:10F91000DBF085F0AAFCDBF0D2F3AAFCBDF040F0EE
:10F92000000168F139F098FCD0F040F0FF001FF2C0
:10F930001FF139F09FFC88F557F1D4F220F03BF22B
:10F94000D0F078F5D0F040F00200BAF288FC88F5EB
:10F9500060F120F000F0BDF040F0FF001FF2B5F6BE
:10F96000D0F0F9F240F0FF001FF2B5F6F9F228F2FC
:10F9700020F001FF2A0071FC00F0B2F1E5F020F068
:10F9800001FF6A00B9FC00F076F240F00700A9F12F
:10F9900085F076F240F00900A9F185F0A9F120F098
:10F9A00004FF64616273C0FC00F0BDF02DF139F01A
:10F9B000DAFCE1FC20F007FF646E656761746500A6
:10F9C000D0FC00F045F440F0010060F11FF420F09D
:10F9D00005FF636D6F766500DBFCEEFCBF93AF93B4
:10F9E000E991F991A991B991092F082B21F01D9165
:10F9F00011930197E1F7AF91BF91899199910C947F
:10FA000004F005FF327377617000E8FC00F0EDF060
:10FA10000BF1EDF002F120F00AFF726566696C6C83
:10FA20002D74696201FD00F02FFD40F05A00A6F828
:10FA300035FD8DF060F198F58DF057F120F00AFF5B
:10FA4000736F757263652D7469620CFD00F02FFD94
:10FA500035FD85F020F003FF746962001FFD4EF054
:10FA60004B0204FF237469622BFD4EF0A50206FFD2
:10FA700065653E72616D31FD00F060F19BF2DBF077
:10FA80005FF3DBF08DF078F5D0F078F5D0F0C9F2C7
:10FA90003FFD88F520F008FF696E69742D72616D75
:10FAA00037FD00F040F0A60002F340F01C0010F219
:10FAB0003CFD20F006FF626F756E64734BFD00F035
:10FAC000DBF0A9F1D0F020F003FF733E64005AFD93
:10FAD00000F0BDF02DF120F005FF3E626F6479006B
:10FAE00064FD3CF20800326C69746572616C6CFDF7
:10FAF00000F0D0F00102010220F001FF3D0072FD94
:10FB000000F09FF126F120F001FF31007DFD4EF065
:10FB1000010001FF320084FD4EF0020002FF2D3192
:06FB200089FD4EF0FFFF1D
:00000001FF
