:020000020000FC
:0200040027D102
:0200080025D100
:02000C0023D1FE
:0200100021D1FC
:020014001FD1FA
:020018001DD1F8
:02001C001BD1F6
:0200200019D1F4
:0200240017D1F2
:0200280015D1F0
:02002C0013D1EE
:0200300011D1EC
:020034000FD1EA
:020038000DD1E8
:02003C000BD1E6
:0200400009D1E4
:0200440007D1E2
:0200480005D1E0
:02004C0003D1DE
:0200500001D1DC
:02005400FFD0DB
:02005800FDD0D9
:02005C00FBD0D7
:02006000F9D0D5
:02006400F7D0D3
:02006800F5D0D1
:02006C00F3D0CF
:02007000F1D0CD
:02007400EFD0CB
:02007800EDD0C9
:02007C00EBD0C7
:02008000E9D0C5
:02008400E7D0C3
:10008800E5D000400010FFFF23000B0041546D65D0
:100098006761313238345000AF93AFB7AF93BF9335
:1000A800EF93FF93B091C600A0911201E0E0F1E058
:1000B800EA0FF31DB083A395AF70A0931201FF91CF
:0C00C800EF91BF91AF91AFBFAF911895C1
:0200500027C0C7
:1000D40001F061F141F012019AF061F141F0140173
:1000E4009AF021F006FF72782D697372000001F016
:1000F40093003AF07A0041F01401A5F0BEF03CF20E
:1001040041F00F0020F241F014019AF041F0000197
:10011400AAF1A5F021F007FF72783F2D69737200F0
:10012400740001F050FA41F01401A5F041F01201FD
:10013400A5F020F121F007FF74782D706F6C6C002E
:100144008D0001F0B1003AF0A40041F0C6009AF02D
:1001540021F008FF74783F2D706F6C6C9D0001F0E6
:1001640050FA41F0C000A5F041F0200020F221F047
:1001740004FF75627272AB007CF09600A4FBAEFBC8
:1001840006FF2B7573617274BA0001F041F0980098
:1001940041F0C1009AF041F0060041F0C2009AF02B
:1001A400BE00BEF0FAF241F0C5009AF041F0C4007E
:1001B4009AF06A0021F008FF31772E726573657436
:1001C400C200E4009A938A939927249A2C98E0E831
:1001D400F7E03197F1F71FB7F8942C9A2498E0E0F0
:1001E400F1E03197F1F783B184FF9FEF1FBF2498AB
:1001F4002C98E0E8F6E03197F1F7892F0C9405F09C
:1002040007FF31772E736C6F7400DD000901249AA7
:100214002C981FB7F894E8E1F0E03197F1F788944F
:10022400879510F424982C9AE4E2F0E03197F1F7E2
:1002340003B104FD8068ECECF0E03197F1F7249809
:100244002C9AE8E0F0E03197F1F71FBF0C9405F029
:040000000C9459FA09
:100254000A920FB60A920F900F900A940092160118
:1002640009900FBE09906894089502FF6D2B020156
:1002740001F058FD20F421F003FF75642A003701D2
:1002840001F0BEF00CF1EDF1E6F0D1F003F1EDF187
:10029400EEF0AAF121F004FF756D61783E0101F0E2
:1002A40080F569F13AF05701D1F0E6F021F004FF4E
:1002B400756D696E4D0101F080F574F13AF06301DA
:1002C400D1F0E6F021F001F041F0008020F227F1B6
:1002D4003AF06F0141F0010021F058F121F00AFFDA
:1002E4006E616D653E666C616773590101F0D3F30D
:1002F40041F000FF20F221F006FF6E65776573740C
:1003040071014FF0170106FF6C61746573747E010F
:100314004FF01B0108FF286372656174652985012C
:1003240001F0CBF9E902BEF0830179F58EF0CE023B
:1003340083018EF021F001005C008C0101F0B2F920
:10034400FDF099F58EF021F0010028009D0101F0E7
:1003540041F029009EF989F521F007FF636F6D7064
:10036400696C6500A60101F003F1BEF09BFB0CF182
:10037400D3F3C00121F001FF2C00AF0101F0C9F556
:1003840074F3C9F53CF289FBCAF521F003005B273D
:100394005D00BD0101F028F8D60121F007006C6969
:1003A400746572616C00C80101F0B50141F0C001CF
:1003B40021F00800736C69746572616CD00101F0FE
:1003C400B5018BF799F721F001F0C9F5B501FFFFED
:1003D40021F001F047FBC9F5D1F074F321F001F0ED
:1003E400C9F521F001F047FBC00121F00500616867
:1003F40065616400DB0101F0B50130F0E60121F034
:1004040002006966F80101F0B5013AF0E60121F055
:100414000400656C7365020201F0B50130F0E60179
:10042400D1F0EB0121F004007468656E0A0201F05A
:10043400EB0121F00500626567696E00150201F0A9
:10044400F10121F005007768696C65001C0201F078
:100454000502D1F021F00600726570656174240212
:1004640001F04602190221F00500756E74696C00F2
:100474002D0201F041F03AF0C001F40121F0050031
:10048400616761696E00360201F0B50130F0F40174
:1004940021F00200646F410201F0B5019CF2F10108
:1004A40061F1A90221F004006C6F6F704B0201F03E
:1004B400B501CAF2900221F005002B6C6F6F700039
:1004C400550201F0B501BBF2900221F005006C6504
:1004D400617665005E0201F0B501D5F2FD01A90265
:1004E40021F003003F646F00680201F0B5017F0250
:1004F40005024E02D1F0A90221F001F080F570FD51
:10050400BEF00CF13AF0870289F503F10AF221F00A
:1005140007FF656E646C6F6F7000730201F0F40185
:100524009D02C6F03AF09902190230F0920221F0CD
:1005340002FF6C3E8A0201F0BC0286F086F041F0B4
:10054400FEFFBC0266F221F002FF3E6C9A0201F04B
:100554007CFDBC0266F2BC0286F08EF021F003FF43
:100564006C703000A6027CF05000A4FBAEFB02FFCE
:100574006C70B1024FF01D0106FF63726561746512
:10058400B90201F09201F202B5015CF021F006FF1C
:10059400686561646572BE0201F0C9F50CF10CF185
:1005A400BEF035F13AF0E002BEF041F000FF29F26E
:1005B4009DF703F160F3C00103F121F041F0F0FF76
:1005C40057F807FF776C73636F706500C90203FC0B
:1005D4004E00A4FBAEFB06FF72657665616CE30218
:1005E40001F0830179F586F0C6F03AF0FD0283014B
:1005F40086F0D1F03CF321F00500646F65733E0092
:10060400ED0201F0B5011603B5010E94B5010B031B
:1006140021F09A938A93CB0101967F916F91BF93B6
:10062400AF93DB010C9405F001F003F1830179F53C
:1006340086F060F36EFC74F321F001FF3A00FE02D1
:1006440001F092012D03E6F021F007FF3A6E6F6E80
:10065400616D65001F0301F0C9F5BEF08A018EF0DB
:10066400B50101F0420321F001003B00270301F032
:10067400B50121F04A03F20221F001FF5D003603C7
:1006840001F077FD66F58EF021F001005B003F0379
:1006940001F061F166F58EF021F008FF7661726970
:1006A40061626C65470301F0DAF561037CFDE3F5F3
:1006B40021F008FF636F6E7374616E744F0301F071
:1006C4009201F202B5014FF0C00121F004FF7573ED
:1006D40065725B0301F09201F202B50162F0C001A0
:1006E40021F007007265637572736500680301F099
:1006F4008A0186F0C00121F009FF696D6D656469A6
:1007040061746500730301F0200460F3BEF0D3F359
:1007140041F0FF7F20F2D1F074F321F006005B6317
:100724006861725D7E0301F0B50141F000F9C0011A
:1007340021F0060061626F727422900301F0DCF410
:10074400B501B20321F005FF61626F7274009B036F
:1007540001F058F157F806FF3F61626F7274A50308
:1007640001F0EEF03AF0B803BEF7AA0389F521F0E0
:1007740009FF6765742D737461636B00AD0301F049
:10078400BEF079F5D1F060F3BEF00CF161F1D1F077
:100794007F023AF0D8039CF2ADF242F273F5DCF03A
:1007A400AAF160F3D1F058F1BBF2CE0389F503F15D
:1007B40021F009FF7365742D737461636B00BA03D0
:1007C40001F080F53CF3D1F061F17F023AF0F003DF
:1007D4009CF279F591F53CF3CAF2EB03E6F021F0D3
:1007E40009FF6D61702D737461636B00DB0301F0AD
:1007F400BEF079F5D1F060F373F54FFD7F023AF066
:1008040015049CF2ADF260F3D1F00CF115F12BF06C
:10081400C6F03AF0110403F1E6F0D5F221F003F149
:100824007CFDBBF20404E6F061F121F00BFF676587
:10083400742D63757272656E7400F20301F041F0F9
:10084400560060F321F009FF6765742D6F726465CB
:100854007200180401F041F05A00C10321F007FFAF
:10086400636F6D706172650025043804BF93AF93A4
:100874008C0189919991DC01899199919C018991CB
:100884009991FC01ED90F190EF1451F40A9519F04F
:100894002A95C1F701C02A95022B11F4882702C0BA
:1008A4008FEF00C0982FAF91BF910C9405F007FF14
:1008B4006E66613E6C666100310401F062FC3CF2DC
:1008C40011F2AAF121F002FF2E73590401F09FFAEC
:1008D4005BF400F89FFA61F17F023AF077049CF22E
:1008E400ADF2CAF45BF4CAF2720421F006FF63218C
:1008F4004073706965047E0403D099270C9405F055
:100904008EBD0DB5087F0DBD0DB507FFFACF8EB5B1
:10091400089505FF6E4073706900780491048C019A
:1009240089919991FC01C8012EBC2DB527FFFDCFFB
:100934002EB521930197C1F7899199910C9405F0F3
:1009440005FF6E21737069008B04A8048C018991E2
:100954009991FC01C80121912EBD2DB527FFFDCF32
:100964002EB50197C1F7899199910C9405F00BFF6D
:100974006170706C7475726E6B657900A20401F01D
:10098400C7008CF454FB00F85BF541F0E803CFF1A9
:10099400FDF0F8F540F78BF704006B487A20BEF7BA
:1009A40021F00BFF7365742D63757272656E7400AC
:1009B400B90401F041F056003CF321F008FF776FD1
:1009C40072646C697374D30401F0D2F561F1DCF0E4
:1009D4003CF3BEF079F589FBD3F521F00EFF666F89
:1009E4007274682D776F72646C697374E0044FF0ED
:1009F400580009FF7365742D6F7264657200F0040A
:100A040001F041F05A00E20321F00FFF7365742DE9
:100A14007265636F676E697A65727300FB0401F037
:100A240041F06C00E20321F00FFF6765742D7265DD
:100A3400636F676E697A65727300070501F041F0B0
:100A44006C00C10321F004FF636F6465160501F0B7
:100A54009201F202C9F59BFBC00121F008FF656E0B
:100A6400642D636F6465250501F0B5010C94B5012F
:100A740005F021F008FF286D61726B65722930055D
:100A84007CF07800A4FBAEFB0800706F7374706F89
:100A94006E653C0501F0CBF9C8FABEF00CF19BFB86
:100AA4009BFBD3F32BF003F19BFBD3F3C00121F0A9
:100AB40003FF3272400046055F059A938A93EF91D3
:100AC400FF918F919F919F938F93FF93EF939A93AD
:080AD4008A93CF010C9405F098
:020000021000EC
:10E00200BF93AF93DB0111969EF0FD015527EE0FF2
:10E01200FF1F551F5BBF679177911196FB01552733
:10E02200EE0FFF1F551F5BBF07911791F80109946F
:10E03200E89467EB74EFF2CF04FF657869745A05D0
:10E0420022F0AF91BF91E0CF07FF657865637574E9
:10E0520065001DF02CF0BC0189919991DFCF31F060
:10E06200FD015527EE0FFF1F551F5BBFA791B7910B
:10E07200CBCF3BF0982B8991999191F31196C4CF14
:10E0820042F09A938A93FD015527EE0FFF1F551F09
:10E092005BBF879197911196B7CF4FF09A938A936E
:10E0A200FB0131965527EE0FFF1F551F5BBF87916E
:10E0B2009791AACF5CF09A938A93CB010196A4CF51
:10E0C20062F09A938A93FB0131965527EE0FFF1F58
:10E0D200551F5BBF87919791840D951D95CF07FFC3
:10E0E2002876616C7565290025F001F09201F20233
:10E0F200B5017CF021F00E940B03BEF09BFBD3F331
:10E102002BF021F001FF400070F087F0FC018191BB
:10E1120091917ACF01FF210083F08FF0FC01899168
:10E12200999191838083899199916ECF02FF6321A6
:10E132008BF09BF0FC01899199918083899199914F
:10E1420063CF02FF634097F0A6F0FC01992780811C
:10E152005BCF02FF4075A2F001F003F3AAF186F053
:10E1620021F002FF2175AAF001F003F3AAF18EF06B
:10E1720021F003FF64757000B2F0BFF09A938A93A6
:10E1820043CF04FF3F647570BAF0C7F0082F092B24
:10E1920011F09A938A9338CF04FF73776170C2F0BB
:10E1A200D2F08C01899199911A930A932DCF04FF91
:10E1B2006F766572CDF0DDF09A938A938A819B81A6
:10E1C20023CF04FF64726F70D8F0E7F089919991C0
:10E1D2001BCF03FF726F7400E2F0EFF08C01299104
:10E1E2003991899199913A932A931A930A930CCF70
:10E1F20003FF6E697000EAF0FEF0229605CF02FF7F
:10E20200723EF9F004F19A938A938F919F91FCCE1A
:10E2120002FF3E7200F10DF19F938F9389919991C4
:10E22200F3CE02FF724009F116F19A938A938F910D
:10E232009F919F938F93E8CE02FF3C3E12F101F033
:10E2420070FD27F121F002FF303D1DF128F1982BDE
:10E25200D1F530C002FF303C24F12FF197FD2AC0E6
:10E2620032C002FF303E2BF136F1821593055CF18C
:10E2720051F120C003FF64303E0032F140F18215BB
:10E2820093058991999182059305ECF0E1F012C012
:10E2920003FF64303C003BF14EF1229697FD0C9453
:10E2A2005BF10C9464F104FF7472756549F159F1E4
:10E2B2009A938A938FEF9FEFA7CE01FF300054F11C
:10E2C20062F19A938A93C1019FCE02FF753C5EF17F
:10E2D2006AF12991399182179307A8F3A1F3EACF42
:10E2E20002FF753E66F101F0D1F069F121F001FF04
:10E2F2003C0071F17CF129913991281739071CF7FB
:10E30200D9CF01FF3E0078F186F129913991281782
:10E312003907CCF2C1F2CECF04FF6C6F673282F1C3
:10E3220092F1FC01992780E18A9522F0EE0FFF1FFE
:10E33200D8F76ACE9A9568CE01FF2D008DF1A1F132
:10E3420009911991081B190BC8015ECE01FF2B0020
:10E352009DF1ABF109911991800F911F55CE02FFEA
:10E362006D2AA7F1B4F18C01899199919C01310236
:10E372007001209FC0013003F308900DE11CF31CD3
:10E382001203F308900DE11CF31C9A938A93C701C0
:10E392003BCE06FF756D2F6D6F64B0F1D0F17C013D
:10E3A200299139910991199140E15527000F111FC7
:10E3B200221F331F551F2E153F05520518F00395D6
:10E3C2002E193F094A9589F73A932A93C8011CCE20
:10E3D20003FF756D2A00CAF1EEF18C0189919991C2
:10E3E200809FF00122273327909FF00D211D331DBE
:10E3F200819FF00D211D331D919F200D311DCF01F5
:10E402009A938A93C90100CE06FF696E766572748B
:10E41200E9F10BF280959095F7CD02FF322F05F2CC
:10E4220012F295958795F0CD02FF322A0EF219F27B
:10E43200880F991FE9CD03FF616E640015F221F286
:10E442000991199180239123DFCD02FF6F721CF293
:10E452002AF209911991802B912BD6CD03FF786F67
:10E46200720026F234F20991199180279127CCCDBE
:10E4720002FF312B2FF23DF20196C6CD02FF312D64
:10E4820039F243F20197C0CD06FF6C736869667476
:10E492003FF24BF2FC018991999131971AF0880F62
:10E4A200991FFBCFB1CD06FF72736869667445F29E
:10E4B2005AF2FC018991999131971AF096958795B4
:10E4C200FBCFA2CD02FF2B2154F267F2FC0189910E
:10E4D200999120813181820F931F80839183899149
:10E4E200999192CD03FF7270400063F278F29A9391
:10E4F2008A938DB79EB788CD03FF7270210073F2A5
:10E5020082F22FB7F8948DBF9EBF2FBF8991999148
:10E512007BCD03FF737040007DF28FF29A938A9352
:10E52200CE0172CD03FF737021008AF298F2EC01E2
:10E532008991999169CD9DF229913991E0E83E0F37
:10E54200821B930B3F932F939F938F938991999162
:10E552005BCD01FF690093F2AEF29A938A938F9199
:10E562009F91EF91FF91FF93EF939F938F938E0F64
:10E572009F1F4ACDBCF2EF91FF91E80FF91F8991DD
:10E5820099911BF0FF93EF936BCD0F911F91119611
:10E592003BCDCBF2EF91FF913196BBF3F3CF06FF68
:10E5A200756E6C6F6F70AAF2D6F21F910F911F9168
:10E5B2000F912ACD06FF636D6F76653ED0F2E1F2D0
:10E5C200BF93AF93E991F991A991B991092F082BC2
:10E5D20041F0E80FF91FA80FB91F1E91129301977E
:10E5E200E1F7AF91BF91899199910ECD02FF3E3C27
:10E5F200DBF2FBF2092F982F802F06CD03FF7570F7
:10E602004000F7F204F39A938A93C201FDCC03FF10
:10E6120075702100FFF20DF32C0189919991F4CCD0
:10E6220003FF316D730008F316F3E0EAFFE0319760
:10E63200F1F7EACC03FF323E720011F320F3FC0142
:10E64200899199919F938F93FF93EF9389919991D8
:10E65200DBCC03FF32723E001BF32FF39A938A93B3
:10E66200EF91FF918F919F919A938A93CF01CCCC96
:10E6720002FF21652AF33DF3FC01899199912FB79D
:10E68200F89428D000B5081709F00BD0319622D0A3
:10E6920000B5091711F0892F04D02FBF89919991E4
:10E6A200B3CCF999FECF07B700FDFDCFF2BDE1BDB6
:10E6B20080BDFA9AF99A089502FF406539F361F331
:10E6C2002FB7F894FC0106D080B5319603D090B5EF
:10E6D2002FBF9ACCF999FECFF2BDE1BDF89A089509
:10E6E20002FF21695DF303FC7600A4FBAEFB09FF88
:10E6F2002821692D6E727777290071F380F31FB795
:10E702001F93F8949C0189919991AF93BF93CF93F2
:10E71200DF9309D0DF91CF91BF91AF918991999108
:10E722001F911FBF71CC11D0E094F0948E219F21D4
:10E73200982B21F0B394F90102E023D0F90104E00F
:10E7420020D0F90100E11DD00895F901E078FF7FA2
:10E75200EF01A0E8B0E0FE015527EE0FFF1F551FA5
:10E762005BBF47915791FE01E217F30711F00A01CF
:10E7720002C07A010C01002704D02196119759F7A3
:10E782000895F999FECF17B710FDFDCF5527EE0F6B
:10E79200FF1F551F5BBF016007BFE895089502FF89
:10E7A200406978F3D4F3FC015527EE0FFF1F551F84
:10E7B2005BBF8791979128CC03FF6E3E7200D0F326
:10E7C200E2F3FC01082F899199919F938F930A9507
:10E7D200D1F7EF93FF938991999116CC03FF6E7253
:10E7E2003E00DDF3F4F39A938A93FF91EF910E2F9B
:10E7F2008F919F919A938A930A95D1F7CF0104CC76
:10E8020003FF64322A00EFF306F409911991000F15
:10E81200111F881F991F1A930A93F6CB03FF6432C4
:10E822002F0001F414F40991199195958795179584
:10E8320007951A930A93E8CB02FF642B0FF421F495
:10E8420029913991E990F99049915991240F351FF5
:10E852008E1D9F1D3A932A93D7CB02FF642D1DF480
:10E8620032F429913991E990F99049915991421BD9
:10E87200530BE80AF90A5A934A93C701C5CB07FF1B
:10E8820064696E76657274002EF447F409911991E9
:10E8920080959095009510951A930A93B5CB02FF37
:10E8A200643D40F401F031F429F227F121F002FF36
:10E8B200752E50F401F061F148F721F003FF752E37
:10E8C200720058F401F061F1D1F051F721F00DFF1F
:10E8D20073686F772D776F72646C697374005FF47D
:10E8E20001F041F077F4D1F047FC21F001F062FC35
:10E8F200BEF700F858F121F005FF776F72647300DC
:10E9020068F401F041F05C0060F371F421F004FF5F
:10E912002B696E747DF48DF4789476CB04FF2D69A7
:10E922006E7488F494F4F8946FCB04FF696E7421CA
:10E932008FF401F041F00000AAF13CF321F004FF52
:10E94200696E744096F401F041F00000AAF160F3A0
:10E9520021F008FF696E742D74726170A0F4B1F435
:10E96200809316018991999168944ECB01F041F000
:10E972001601A5F041F00000AAF160F32BF0C2F4F9
:10E9820021F0C3F401D040CB189504FF7069636B8A
:10E99200AAF401F03CF273F58EF2AAF186F021F0AE
:10E9A20002002E22C6F401F0DCF4B501BEF721F01C
:10E9B20002007322D1F401F041F022009EF966F5C3
:10E9C20086F03AF0E5F4E10121F004FF66696C6C2F
:10E9D200D9F401F0EEF0EEF0C6F03AF0F7F44FFDA4
:10E9E2009CF2BEF0ADF29AF0CAF2F2F4E6F021F037
:10E9F2000BFF656E7669726F6E6D656E7400E6F47C
:10EA02004FF0540009FF776F72646C69737473007E
:10EA1200000001F041F0080021F004FF2F70616452
:10EA220003F501F08EF29FF5A0F121F005FF2F68AA
:10EA32006F6C64000EF501F09FF5DAF5A0F121F09C
:10EA42000AFF666F7274682D6E616D6517F501F0CD
:10EA52008BF70700616D666F7274680021F007FF23
:10EA620076657273696F6E0021F501F041F03D0029
:10EA720021F003FF6370750030F501F041F04900A9
:10EA8200EAF721F008FF6D63752D696E666F3AF53E
:10EA920001F041F0450021F005FF2F75736572000A
:10EAA20043F501F041F0260021F005FF665F637037
:10EAB2007500F9F401F041F0002441F0F40021F076
:10EAC20005FF73746174650056F54FF01F0104FF72
:10EAD2006261736561F562F00C0005FF63656C6C41
:10EAE200730068F519F205FF63656C6C2B006EF517
:10EAF2007AF5029689CA04FF3264757074F501F0E2
:10EB0200DCF0DCF021F005FF3264726F70007CF5FE
:10EB120001F0E6F0E6F021F004FF7475636B84F512
:10EB220001F0D1F0DCF021F003FF3E696E008DF5BB
:10EB320062F0180003FF7061640095F501F0DAF5E8
:10EB420041F02800AAF121F004FF656D69749BF57C
:10EB520003FC0E00CCFBD8FB05FF656D69743F001A
:10EB6200A5F503FC1000CCFBD8FB03FF6B65790015
:10EB7200ADF503FC1200CCFBD8FB04FF6B65793FBB
:10EB8200B6F503FC1400CCFBD8FB02FF6470BEF5A3
:10EB92007CF04800A4FBAEFB05FF6568657265006A
:10EBA200C6F57CF04C00A4FBAEFB04FF6865726501
:10EBB200CDF57CF04A00A4FBAEFB05FF616C6C6FE7
:10EBC2007400D6F501F0DAF5AAF189FBDBF521F044
:10EBD20003FF62696E00DEF501F07CFD6CF58EF0DC
:10EBE20021F007FF646563696D616C00E9F501F06E
:10EBF20041F00A006CF58EF021F003FF68657800A1
:10EC0200F2F501F041F010006CF58EF021F002FFF8
:10EC1200626CFEF54FF0200007FF7475726E6B6533
:10EC2200790008F603FC5200A4FBAEFB04FF2F6D33
:10EC32006F640DF61CF69C0109911991412F43272F
:10EC420017FF04C0109500950F5F1F4F37FF04C0D8
:10EC5200309520952F5F3F4FEE24FF1851E1001FA2
:10EC6200111F5A9539F447FF04C0109500950F5FA4
:10EC72001F4F0BC0EE1CFF1CE21AF30A20F4E20E37
:10EC8200F31E8894ECCF0894EACFFA92EA92C80174
:10EC9200BBC905FF752F6D6F640017F601F00CF10B
:10ECA20061F103F1CFF121F006FF6E6567617465D2
:10ECB2004AF601F00AF23CF221F001FF2F0055F66C
:10ECC20001F01BF6FDF021F003FF6D6F64005EF6AC
:10ECD20001F01BF6E6F021F003FF6162730065F6B6
:10ECE20072F699231AF48095909501968DC903FFC7
:10ECF2006D696E006DF601F080F585F13AF082F6ED
:10ED0200D1F0E6F021F003FF6D61780078F601F0B2
:10ED120080F57BF13AF08EF6D1F0E6F021F006FFB5
:10ED220077697468696E84F601F0DCF0A0F10CF189
:10ED3200A0F103F169F121F007FF746F757070653E
:10ED4200720090F601F0BEF041F0610041F07B00EC
:10ED520095F63AF0AFF641F0DF0020F221F007FF1E
:10ED6200746F6C6F776572009DF601F0BEF041F032
:10ED7200410041F05B0095F63AF0C2F641F0200006
:10ED820029F221F003FF686C6400B0F64FF0210114
:10ED920004FF686F6C64C3F601F0C7F6BEF086F03C
:10EDA20042F2BEF00CF1D1F08EF003F19AF021F0B4
:10EDB20002FF3C23C9F601F09FF5C7F68EF021F061
:10EDC20001FF2300D9F601F06CF586F061F7EEF051
:10EDD20041F00900DCF07BF13AF0F2F641F0070075
:10EDE200AAF141F03000AAF1CDF621F002FF23731F
:10EDF200E1F601F0E4F680F529F227F13AF0FBF6AC
:10EE020021F002FF233EF7F601F089F5C7F686F0FE
:10EE12009FF5DCF0A0F121F004FF7369676E02F741
:10EE220001F02EF13AF018F741F02D00CDF621F065
:10EE320003FF642E72000DF701F00CF191F5C4FC92
:10EE4200DCF6FAF6EEF011F705F703F1DCF0A0F1CB
:10EE520009F819F821F002FF2E7219F701F00CF1EE
:10EE620058FD03F11DF721F002FF642E2CF701F08B
:10EE720061F11DF700F821F001FF2E0035F701F0D6
:10EE820058FD38F721F003FF75642E003DF701F0BD
:10EE920061F151F700F821F004FF75642E7244F716
:10EEA20001F00CF1DCF6FAF605F703F1DCF0A0F163
:10EEB20009F819F821F006FF75642F6D6F644DF79C
:10EEC20001F00CF161F115F1CFF103F1D1F00CF188
:10EED200CFF103F121F006FF64696769743F5CF7C3
:10EEE20001F0A3F6BEF041F0390085F141F00001D6
:10EEF20020F2AAF1BEF041F0400185F141F0070194
:10EF020020F2A0F141F03000A0F1BEF06CF586F0E5
:10EF120069F121F001F015F1EAF703F1DCF03CF2BE
:10EF220011F2AAF13CF20CF121F002FF732C6CF702
:10EF320001F0BEF09DF721F001F0C001BEF011F228
:10EF420091F518F2A0F10CF161F17F023AF0B0F7FD
:10EF52009CF2BEF086F0C00179F5CAF2AAF703F17D
:10EF620035F13AF0B7F7BEF0A5F0C001E6F021F0B6
:10EF720005FF69747970650096F701F0BEF011F231
:10EF820091F518F2A0F10CF161F17F023AF0D2F79B
:10EF92009CF2BEF0D3F3BEF0DFF7DBF73CF2CAF22D
:10EFA200CAF703F135F13AF0D9F7BEF0D3F3DFF740
:10EFB200E6F021F001F0FAF2DFF721F001F041F082
:10EFC200FF0020F2A9F521F006FF69636F756E74E8
:10EFD200B9F701F0BEF03CF2D1F0D3F321F002FF19
:10EFE2006372E5F701F041F00D00A9F541F00A0066
:10EFF200A9F521F005FF737061636500F0F701F078
:10F002000BF6A9F521F006FF737061636573FBF7D8
:10F0120001F061F188F6BEF03AF013F800F842F21E
:10F0220030F00CF8E6F021F004FF7479706504F812
:10F0320001F04FFD7F023AF024F89CF2ADF2A5F008
:10F04200A9F5CAF21FF821F001FF270015F801F017
:10F05200CBF9C8FA25FB70FD3AF031F8E6F021F061
:10F0620041F0F3FF57F807FF68616E646C65720048
:10F0720025F862F00A0005FF63617463680034F8E2
:10F0820001F08EF20CF13AF886F00CF177F23AF8D0
:10F092008EF02BF003F13AF88EF003F1E6F061F115
:10F0A20021F005FF7468726F77003CF801F0BEF042
:10F0B20027F13AF05EF8E6F021F03AF886F081F2B4
:10F0C20003F13AF88EF003F1D1F00CF197F2E6F089
:10F0D20003F121F005FF63736B69700052F801F0D0
:10F0E2000CF1BEF03AF07FF8DCF0A5F015F170FDFE
:10F0F2003AF07FF877FDBCF930F072F803F1E6F0F0
:10F1020021F005FF637363616E006BF801F00CF18F
:10F11200DCF0BEF0A5F015F170FD27F13AF09CF895
:10F12200D1F042F2D1F0DCF02EF127F13AF09CF866
:10F132003CF230F08AF8FDF0DCF0A0F103F1E6F0E9
:10F1420021F006FF61636365707482F801F0DCF000
:10F15200AAF142F2DCF0BAF5BEF0E8F827F13AF093
:10F16200DAF8BEF041F0080070FD3AF0CAF8E6F0B5
:10F17200EEF080F585F10CF1EEF0EEF003F13AF0ED
:10F18200C8F8E0F842F20CF1DCF003F1510130F082
:10F19200D8F8BEF00BF67BF13AF0D1F8E6F00BF6B8
:10F1A200BEF0A9F5DCF09AF03CF2DCF05D0130F043
:10F1B200ACF8E6F0FDF0D1F0A0F1F3F721F001F0A8
:10F1C20041F00800BEF0A9F500F8A9F521F001F020
:10F1D200BEF041F00D0070FDD1F041F00A0070FD6B
:10F1E20029F221F006FF726566696C6CA2F803FCD5
:10F1F2001A00CCFBD8FB04FF63686172F3F801F0DC
:10F20200CBF9E6F0A5F021F006FF6E756D6265722E
:10F21200FCF801F06CF586F00CF14EF90CF161F995
:10F222004EF903F129F20CF1BEF027F13AF021F97F
:10F2320089F503F1E6F003F16CF58EF061F121F04E
:10F242001FF361F161F12EF37FF9C6F03AF043F951
:10F2520077FD70FD3AF03AF9A5F041F02E0070FD0D
:10F262003AF03BF903F13AF037F9D1FC7CFD30F08A
:10F2720049F9E6F089F503F1E6F003F16CF58EF059
:10F2820061F121F089F503F13AF048F95AF677FD78
:10F2920003F16CF58EF058F121F001F0DCF0A5F0ED
:10F2A20041F02D0070FDBEF00CF13AF05AF977FDF5
:10F2B200BCF903F121F05CF00A00100002000A0020
:10F2C20001F0DCF0A5F041F02300A0F1BEF061F105
:10F2D20041F0040095F63AF077F95CF9AAF1D3F31C
:10F2E2006CF58EF077FDBCF930F078F9E6F021F09C
:10F2F20007FF3E6E756D6265720005F901F0BEF0A2
:10F302003AF098F9DCF0A5F071F727F13AF08BF9B1
:10F31200E6F021F00CF1F6FC6CF586F0420103F107
:10F322003A01F6FC41F00100BCF930F080F921F01D
:10F3320005FF70617273650079F901F00CF1B2F9A1
:10F3420099F586F0BCF903F187F8BEF03CF299F525
:10F3520066F277FDBCF921F006FF736F7572636583
:10F3620099F903FC1600CCFBD8FB07FF2F737472CC
:10F37200696E6700ADF901F0EEF0DCF0AAF1EEF093
:10F38200EEF0A0F121F00AFF70617273652D6E61DB
:10F392006D65B6F901F00BF6CFF921F001F00CF131
:10F3A200B2F999F586F0BCF915F170F803F187F816
:10F3B20080F5AAF1B2F9E6F0A0F199F58EF021F00C
:10F3C20009FF66696E642D6E616D6500C4F901F016
:10F3D20041F0F4F941F05A00F90327F13AF0F3F958
:10F3E20089F561F121F001F00CF180F503F115FCD2
:10F3F200BEF03AF001FA0CF1FDF0FDF003F158F124
:10F4020021F001F08BF70300206F6B00BEF721F0B3
:10F4120001F08BF702003E20F3F7BEF721F001F076
:10F422008BF70400203F3F20BEF76CF586F00CF10D
:10F43200F8F540F799F586F040F703F16CF58EF098
:10F4420021F004FF71756974E1F901F0B502BC02A3
:10F452008EF087FA97F294FA81F24A0366F586F003
:10F4620027F13AF035FA09FAF8F83AF02FFA41F0B2
:10F47200ADFA41F8C6F03AF047FABEF041F0FEFFAD
:10F482007BF13AF045FA10FA30F027FA02FA30F03E
:10F492002FFA21F005FF70617573650022FA03FCF3
:10F4A2002301B8FBC2FB04FF636F6C644BFA59FA89
:10F4B200A4B62224332424BEE0E0F1E02192E0301D
:10F4C200E9F7F134D9F7E5E2F1E02F010FEF0DBFD3
:10F4D200048310E41EBF1583CFEAC683D0E4D7832A
:10F4E200AAE7BAEF0C9405F004FF7761726D54FA43
:10F4F20001F041FD41F06FFB41F050FAE3FB4A039A
:10F5020013F626FA03FF7370300075FA7CF00600DA
:10F51200CCFBD8FB02FF737083FA62F0080003FF92
:10F52200727030008BFA01F098FA86F021F062F0E6
:10F53200040005FF64657074680090FA01F087FAB0
:10F542008EF2A0F111F242F221F009FF696E7465A8
:10F552007270726574009AFA01F0CBF9BEF03AF05B
:10F56200BDFAC8FA66F586F03AF0B8FA9BFBD3F317
:10F572002BF047FB30F0AEFA89F521F00DFF646FF6
:10F582002D7265636F676E697A657200A6FA01F083
:10F5920041F0D4FA41F06C00F90327F13AF0D3FAC2
:10F5A20089F53AFB21F001F0EEF0EEF080F51FF361
:10F5B200EEF02BF02EF3EEF0BEF03AFB70FD3AF0D7
:10F5C200E5FAE6F061F121F0FDF0FDF058F121F0ED
:10F5D20005FF723A6E756D00BFFA5CF06FFBD601E3
:10F5E200D60106FF723A646E756DE9FA5CF06FFB44
:10F5F20068FD68FD07FF7265633A6E756D00F2FA89
:10F6020001F00AF93AF00DFB77FD70FD3AF00BFBC1
:10F61200EEFA21F0F7FA21F03AFB21F008FF7265C9
:10F62200633A776F7264FBFA01F0E8F9BEF027F1F2
:10F632003AF01EFBE6F03AFB21F025FB21F006FF33
:10F64200723A776F72640FFB5CF029FB2DFB68FD49
:10F6520001F0E6F02BF021F001F02EF13AF033FB4D
:10F66200C00121F02BF021F006FF723A6661696C4D
:10F6720020FB5CF03EFB3EFB3EFB01F041F0F3FF62
:10F6820057F806FF3F737461636B35FB01F09FFA15
:10F692002EF13AF04FFB41F0FCFF57F821F003FF47
:10F6A2007665720042FB01F028F5BEF700F86CF5B2
:10F6B20086F036F5F8F558FDDCF6E4F641F02E005A
:10F6C200CDF6FAF605F719F86CF58EF000F83EF56E
:10F6D200BEF721F004FF6E6F6F7050FB01F021F056
:10F6E20006FF756E757365646BFB01F08EF2DAF5D9
:10F6F200A0F121F00200746F71FB01F028F861FDA6
:10F7020066F586F03AF08FFBB50189FBC00121F066
:10F7120001F003F1BEF09BFB0CF1D3F3BEF09BFBB7
:10F722009BFBD3F32BF021F007FF692D63656C6C13
:10F732002B007BFB01F03CF221F007FF456465667C
:10F742006572400095FB01F0D3F360F321F007FFEF
:10F7520045646566657221009EFB01F0D3F33CF3BC
:10F7620021F007FF5264656665724000A8FB01F054
:10F77200D3F386F021F007FF5264656665722100BB
:10F78200B2FB01F0D3F38EF021F007FF55646566FA
:10F7920065724000BCFB01F0D3F303F3AAF186F0DB
:10F7A20021F007FF5564656665722100C6FB01F012
:10F7B200D3F303F3AAF18EF021F006FF64656665C8
:10F7C2007221D2FB01F061FDBEF09BFB9BFBD3F3E8
:10F7D2002BF021F006FF646566657240DEFB01F0E6
:10F7E20061FDBEF09BFBD3F32BF021F007FF2864F1
:10F7F200656665722900EBFB01F09201F202B50128
:10F8020003FC21F00E940B03BEF09BFBD3F32BF011
:10F812002BF021F00FFF7365617263682D776F72B1
:10F82200646C69737400F7FB01F00CF161F141F053
:10F832002AFC03F147FCBEF027F13AF024FC89F5DB
:10F84200E6F061F121F0BEF06EFCD1F078016501C5
:10F8520021F001F00CF1E6F080F515F162FC78FC84
:10F862003AF038FC03F1E6F061F158F121F089F544
:10F8720003F161F121F011FF7472617665727365B3
:10F882002D776F72646C697374000BFC01F060F386
:10F89200BEF03AF058FC80F51FF3D1F02BF02EF3B6
:10F8A200EEF03AF058FC5F04D3F330F049FC89F5EE
:10F8B20021F00BFF6E616D653E737472696E6700B5
:10F8C2003CFC01F0EAF741F0FF0020F221F007FFD3
:10F8D2006E66613E636661005AFC01F05F043CF2B1
:10F8E20021F008FF69636F6D7061726568FC01F059
:10F8F2000CF1DCF003F120F13AF083FC89F5E6F03B
:10F9020058F121F0D1F061F17F023AF0A6FC9CF2AD
:10F91200DCF086F0DCF0D3F3BEF041F0000169F1D7
:10F922003AF097FCD1F041F0FF0020F220F13AF0DA
:10F932009EFC89F558F1D5F221F03CF2D1F079F52F
:10F94200D1F041F00200BBF289FC89F561F121F0AE
:10F9520001FF2A0072FC01F0B3F1E6F021F001FF91
:10F962006A00A9FC01F077F241F00700AAF186F0E3
:10F9720077F241F00900AAF186F0AAF121F004FF22
:10F9820064616273B0FC01F0BEF02EF13AF0CAFC81
:10F99200D1FC21F007FF646E656761746500C0FCED
:10F9A20001F046F441F0010061F120F421F005FF7D
:10F9B200636D6F766500CBFCDEFCBF93AF93E9917C
:10F9C200F991A991B991092F082B21F01D91119359
:10F9D2000197E1F7AF91BF91899199910C9405F04C
:10F9E20005FF327377617000D8FC01F0EEF00CF184
:10F9F200EEF003F121F00AFF726566696C6C2D74FA
:10FA02006962F1FC01F01FFD41F05A00A7F825FDE3
:10FA12008EF061F199F58EF058F121F00AFF736FC3
:10FA2200757263652D746962FCFC01F01FFD25FD92
:10FA320086F021F003FF746962000FFD4FF04B0165
:10FA420004FF237469621BFD4FF0A50106FF656583
:10FA52003E72616D21FD01F061F19CF2DCF060F318
:10FA6200DCF08EF079F5D1F079F5D1F0CAF22FFD04
:10FA720089F521F008FF696E69742D72616D27FDA9
:10FA820001F041F07A0003F341F01C0011F22CFD69
:10FA920021F006FF626F756E64733BFD01F0DCF0CE
:10FAA200AAF1D1F021F003FF733E64004AFD01F098
:10FAB200BEF02EF121F005FF3E626F64790054FD25
:10FAC2003DF20800326C69746572616C5CFD01F094
:10FAD200D1F0D601D60121F001FF3D0062FD01F017
:10FAE200A0F127F121F001FF31006DFD4FF001007F
:10FAF20001FF320074FD4FF0020002FF2D3179FD4B
:04FB02004FF0FFFFC2
:00000001FF
