:020000020000FC
:0200040009D120
:0200080007D11E
:02000C0005D11C
:0200100003D11A
:0200140001D118
:02001800FFD017
:02001C00FDD015
:02002000FBD013
:02002400F9D011
:02002800F7D00F
:02002C00F5D00D
:02003000F3D00B
:02003400F1D009
:02003800EFD007
:02003C00EDD005
:02004000EBD003
:02004400E9D001
:02004800E7D0FF
:02004C00E5D0FD
:10005000E3D00004000200381500080041546D652B
:1000600067613136AF93AFB7AF93BF93EF93FF9311
:10007000B0912C00A0917200E0E6F0E0EA0FF31DD1
:10008000B083A395AF70A0937200FF91EF91BF91E1
:08009000AF91AFBFAF911895CD
:02002C001BC0F7
:10009800011C4F1D381C7200881C4F1D381C740031
:1000A800881C1B1C06FF72782D6973720000011CE6
:1000B8007500311C5C00381C7400931CAC1C2A1E93
:1000C800381C0F000E1E381C7400881C381C600079
:1000D800981D931C1B1C07FF72783F2D69737200D3
:1000E8005600011CA20A381C7400931C381C7200AC
:1000F800931C0E1D1B1C07FF74782D706F6C6C0011
:100108006F00011C9300311C8600381C2C00881CD1
:100118001B1C08FF74783F2D706F6C6C7F00011CEE
:10012800A20A381C2B00931C381C20000E1E1B1C16
:1001380004FF756272728D006A1C7A00F60B000C5F
:1001480006FF2B75736172749C00011C381C9800A3
:10015800381C2A00881C381C0600381CC000881C63
:10016800A000AC1CE81E381C4000881C381C290064
:10017800881C4C001B1C08FF31772E726573657450
:10018800A400C6009A938A939927BC9AC498E0EC75
:10019800F3E03197F1F71FB7F894C49ABC98E0E8F8
:1001A800F0E03197F1F786B384FF9FEF1FBFBC984B
:1001B800C498E0E4F3E03197F1F7892F0C94051C1B
:1001C80007FF31772E736C6F7400BF00EB00BC9A89
:1001D800C4981FB7F894ECE0F0E03197F1F78894F1
:1001E800879510F4BC98C49AE2E1F0E03197F1F7F2
:1001F80006B304FD8068E6E6F0E03197F1F7BC98B5
:10020800C49AE4E0F0E03197F1F71FBF0C94051CA5
:040000000C94AB0AA7
:100218000A920FB60A920F900F900A9400927600F5
:1002280009900FBE09906894089502FF6D2BE400B1
:10023800011CAA0D81011B1C03FF75642A0019010A
:10024800011CAC1CFA1CDB1DD41CBF1CF11CDB1DE3
:10025800DC1C981D1B1C04FF756D61782001011CB6
:10026800D005571D311C3901BF1CD41C1B1C04FFB1
:10027800756D696E2F01011CD005621D311C450189
:10028800BF1CD41C1B1C011C381C00800E1E151D15
:10029800311C5101381C01001B1C461D1B1C0AFF88
:1002A8006E616D653E666C6167733B01011CBB1F27
:1002B800381C00FF0E1E1B1C03FF64322A0053016A
:1002C800650109911991000F111F881F991F1A9331
:1002D8000A930C94051C03FF64322F00600174011B
:1002E8000991199195958795179507951A930A93EA
:1002F8000C94051C02FF642B6F018201299139912E
:10030800E990F99049915991240F351F8E1D9F1D31
:100318003A932A930C94051C02FF642D7E019401E4
:1003280029913991E990F99049915991421B530BC0
:10033800E80AF90A5A934A93C7010C94051C07FF67
:1003480064696E76657274009001AA010991199129
:1003580080959095009510951A930A930C94051C16
:1003680002FF643DA301011C9301171E151D1B1CF0
:1003780002FF752EB401011C4F1D9A071B1C03FFB9
:10038800752E7200BC01011C4F1DBF1CA3071B1C4E
:100398000DFF73686F772D776F72646C69737400E3
:1003A800C301011C381CDB01BF1C990C1B1C011C60
:1003B800B40C10085208461D1B1C05FF776F7264A9
:1003C8007300CC01011C381C40004E1FD5011B1CBA
:1003D80004FF2B696E74E101F10178940C94051CFB
:1003E80004FF2D696E74EC01F901F8940C94051C56
:1003F80004FF696E7421F401011C381C0000981D6B
:100408002A1F1B1C04FF696E7440FC01011C381C68
:100418000000981D4E1F1B1C08FF696E742D747216
:100428006170060217028093760089919991689409
:100438000C94051C011C381C7600931C381C000009
:10044800981D4E1F251C29021B1C2A0202D00C9441
:10045800051C189504FF7069636B1002011C2A1EA5
:10046800C2057C1E981D741C1B1C02002E222E0225
:10047800011C4402980210081B1C02007322390256
:10048800011C381C2200F009B505741C311C4D02F2
:10049800C4021B1C04FF66696C6C4102011CDC1C55
:1004A800DC1CB41C311C5F02A10D8A1EAC1C9B1EF7
:1004B800881CB81E5A02D41C1B1C06FF6E65776583
:1004C80073744E02431C770006FF6C617465737485
:1004D8006102431C7B0008FF28637265617465290B
:1004E8006802011C1D0ACC03AC1C6602C8057C1CF2
:1004F800B10366027C1C1B1C01005C006F02011C1E
:10050800040AEB1CE9057C1C1B1C01002800800266
:10051800011C381C2900F009D9051B1C07FF636F53
:100528006D70696C65008902011CF11CAC1CED0B37
:10053800FA1CBB1FA3021B1C01FF2C009202011C0A
:100548001906621F19062A1EDB0B1A061B1C03005C
:100558005B275D00A002011C7A08B9021B1C07007A
:100568006C69746572616C00AB02011C9802381CDE
:10057800A3021B1C0800736C69746572616CB3027A
:10058800011C9802DD07EB071B1C011C19069802C9
:10059800FFFF1B1C011C990B1906BF1C621F1B1CAB
:1005A800011C19061B1C011C990BA3021B1C05002E
:1005B800616865616400BE02011C98022A1CC902B8
:1005C8001B1C02006966DB02011C9802311CC9026F
:1005D8001B1C0400656C7365E502011C98022A1C4B
:1005E800C902BF1CCE021B1C04007468656EED02B4
:1005F800011CCE021B1C0500626567696E00F802CB
:10060800011CD4021B1C05007768696C6500FF0299
:10061800011CE802BF1C1B1C060072657065617432
:100628000703011C2903FC021B1C0500756E746975
:100638006C001003011C381C311CA302D7021B1CC0
:100648000500616761696E001903011C98022A1C84
:10065800D7021B1C0200646F2403011C98028A1E27
:10066800D4024F1D8C031B1C04006C6F6F702E038B
:10067800011C9802B81E73031B1C05002B6C6F6FBE
:1006880070003803011C9802A91E73031B1C050087
:100698006C65617665004103011C9802C31EE00287
:1006A8008C031B1C03003F646F004B03011C980262
:1006B8006203E8023103BF1C8C031B1C011CD0051C
:1006C800D01FAC1CFA1C311C6A03D905F11CF81D9B
:1006D8001B1C07FF656E646C6F6F70005603011C6E
:1006E800D7028003B41C311C7C03FC022A1C75034E
:1006F8001B1C02FF6C3E6D03011C9F03741C741CC1
:10070800381CFEFF9F03541E1B1C02FF3E6C7D031A
:10071800011CDC1F9F03541E9F03741C7C1C1B1CA4
:1007280003FF6C70300089036A1C3400F60B000C60
:1007380002FF6C709403431C7D0006FF63726561C1
:1007480074659C03011C7502D50398024D1C1B1C83
:1007580006FF686561646572A103011C1906FA1C2D
:10076800FA1CAC1C231D311CC303AC1C381C00FF35
:10077800171EEF07F11C4E1FA302F11C1B1C381C8F
:10078800F0FFA90807FF776C73636F706500AC030F
:10079800550C3200F60B000C06FF72657665616C2D
:1007A800C603011C6602C805741CB41C311CE00396
:1007B8006602741CBF1C2A1F1B1C0500646F65732E
:1007C8003E00D003011C9802F90398020E94980287
:1007D800EE031B1C9A938A93CB0101967F916F912C
:1007E800BF93AF93DB010C94051C011CF11C66023E
:1007F800C805741C4E1FC00C621F1B1C01FF3A0069
:10080800E103011C75021004D41C1B1C07FF3A6E7F
:100818006F6E616D65000204011C1906AC1C6D0247
:100828007C1C9802011C25041B1C01003B000A04C7
:10083800011C98021B1C2D04D5031B1C01FF5D0025
:100848001904011CD71FB5057C1C1B1C01005B008B
:100858002204011C4F1DB5057C1C1B1C08FF76617A
:10086800726961626C652A04011C2A064404DC1F53
:1008780033061B1C08FF636F6E7374616E74320459
:10088800011C7502D5039802431CA3021B1C04FF1C
:10089800757365723E04011C7502D5039802531CDA
:1008A800A3021B1C070072656375727365004B0415
:1008B800011C6D02741CA3021B1C09FF696D6D6588
:1008C8006469617465005604011C03054E1FAC1C65
:1008D800BB1F381CFF7F0E1EBF1C621F1B1C06009F
:1008E8005B636861725D6104011C9802381C5209DF
:1008F800A3021B1C060061626F7274227304011C40
:100908004402980295041B1C05FF61626F72740013
:100918007E04011C461DA90806FF3F61626F7274C0
:100928008804011CDC1C311C9B0410088D04D905AB
:100938001B1C09FF6765742D737461636B00900459
:10094800011CAC1CC805BF1C4E1FAC1CFA1C4F1D5B
:10095800BF1C6203311CBB048A1E9B1E301EC205CD
:10096800CA1C981D4E1FBF1C461DA91EB104D905DF
:10097800F11C1B1C09FF7365742D737461636B0094
:100988009D04011CD0052A1FBF1C4F1D6203311C8A
:10099800D3048A1EC805E1052A1FB81ECE04D41C3C
:1009A8001B1C09FF6D61702D737461636B00BE04BD
:1009B800011CAC1CC805BF1C4E1FC205A10D62035B
:1009C800311CF8048A1E9B1E4E1FBF1CFA1C031DF7
:1009D800251CB41C311CF404F11CD41CC31E1B1CA4
:1009E800F11CDC1FA91EE704D41C4F1D1B1C0BFFA8
:1009F8006765742D63757272656E7400D504011C89
:100A0800381C3A004E1F1B1C09FF6765742D6F7256
:100A180064657200FB04011C381C3E00A4041B1C06
:100A280007FF636F6D706172650008051B05BF9352
:100A3800AF938C0189919991DC01899199919C01DD
:100A480089919991FC01ED90F190EF1451F40A9578
:100A580019F02A95C1F701C02A95022B11F48827AD
:100A680002C08FEF00C0982FAF91BF910C94051C66
:100A780007FF6E66613E6C6661001405011CB40CCC
:100A88002A1EFF1D981D1B1C0BFF656E7669726F71
:100A98006E6D656E74003C05431C380009FF776F66
:100AA80072646C69737473000000011C381C0800C0
:100AB8001B1C04FF2F7061645205011C7C1EEF058E
:100AC8008E1D1B1C05FF2F686F6C64005D05011CE3
:100AD800EF052A068E1D1B1C0AFF666F7274682DAF
:100AE8006E616D656605011CDD070700616D666F47
:100AF800727468001B1C07FF76657273696F6E005D
:100B08007005011C381C3D001B1C03FF6370750039
:100B18007F05011C381C2D003C081B1C08FF6D6359
:100B2800752D696E666F8905011C381C29001B1C10
:100B380005FF2F75736572009205011C381C26008D
:100B48001B1C05FF665F637075004805011C381C97
:100B58000012381C7A001B1C05FF73746174650051
:100B6800A505431C7F0004FF62617365B005531C33
:100B78000C0005FF63656C6C7300B705071E05FF65
:100B880063656C6C2B00BD05C90502960C94051CA9
:100B980004FF32647570C305011CCA1CCA1C1B1CE7
:100BA80005FF3264726F7000CC05011CD41CD41C84
:100BB8001B1C04FF7475636BD405011CBF1CCA1C85
:100BC8001B1C03FF3E696E00DD05531C180003FF64
:100BD80070616400E505011C2A06381C2800981D70
:100BE8001B1C04FF656D6974EB05550C0E001E0C8B
:100BF8002A0C05FF656D69743F00F505550C10005A
:100C08001E0C2A0C03FF6B657900FD05550C1200BC
:100C18001E0C2A0C04FF6B65793F0606550C140060
:100C28001E0C2A0C02FF64700E066A1C2C00F60BC0
:100C3800000C05FF65686572650016066A1C3000C1
:100C4800F60B000C04FF686572651D066A1C2E0011
:100C5800F60B000C05FF616C6C6F74002606011C16
:100C68002A06981DDB0B2B061B1C03FF62696E000E
:100C78002E06011CDC1FBB057C1C1B1C07FF6465C2
:100C880063696D616C003906011C381C0A00BB05DC
:100C98007C1C1B1C03FF686578004206011C381C7D
:100CA8001000BB057C1C1B1C02FF626C4E06431C1B
:100CB800200007FF7475726E6B6579005806550C35
:100CC8003600F60B000C04FF2F6D6F645D066C0692
:100CD8009C0109911991412F432717FF04C01095D2
:100CE80000950F5F1F4F37FF04C0309520952F5F89
:100CF8003F4FEE24FF1851E1001F111F5A9539F498
:100D080047FF04C0109500950F5F1F4F0BC0EE1CE6
:100D1800FF1CE21AF30A20F4E20EF31E8894ECCFCB
:100D28000894EACFFA92EA92C8010C94051C05FFD0
:100D3800752F6D6F64006706011CFA1C4F1DF11CAE
:100D4800BD1D1B1C06FF6E65676174659B06011C53
:100D5800F81D2A1E1B1C01FF2F00A606011C6B068E
:100D6800EB1C1B1C03FF6D6F6400AF06011C6B06B8
:100D7800D41C1B1C03FF61627300B606C3069923CB
:100D88001AF48095909501960C94051C03FF6D69E3
:100D98006E00BE06011CD005731D311CD406BF1C95
:100DA800D41C1B1C03FF6D617800CA06011CD0050A
:100DB800691D311CE006BF1CD41C1B1C06FF77698B
:100DC8007468696ED606011CCA1C8E1DFA1C8E1D1D
:100DD800F11C571D1B1C07FF746F7570706572003E
:100DE800E206011CAC1C381C6100381C7B00E706BD
:100DF800311C0107381CDF000E1E1B1C07FF746F17
:100E08006C6F77657200EF06011CAC1C381C410042
:100E1800381C5B00E706311C1407381C2000171E1D
:100E28001B1C03FF686C64000207431C810004FF5D
:100E3800686F6C641507011C1907AC1C741C301E04
:100E4800AC1CFA1CBF1C7C1CF11C881C1B1C02FF60
:100E58003C231B07011CEF0519077C1C1B1C01FF09
:100E680023002B07011CBB05741CB307DC1C381CB2
:100E78000900CA1C691D311C4407381C0700981D4D
:100E8800381C3000981D1F071B1C02FF23733307F3
:100E9800011C3607D005171E151D311C4D071B1CDC
:100EA80002FF233E4907011CD9051907741CEF05E9
:100EB800CA1C8E1D1B1C04FF7369676E5407011C36
:100EC8001C1D311C6A07381C2D001F071B1C03FF43
:100ED800642E72005F07011CFA1CE105160D2E072F
:100EE8004C07DC1C63075707F11CCA1C8E1D5B08E6
:100EF8006B081B1C02FF2E726B07011CFA1CAA0D43
:100F0800F11C6F071B1C02FF642E7E07011C4F1D7E
:100F18006F0752081B1C01FF2E008707011CAA0D32
:100F28008A071B1C03FF75642E008F07011C4F1DC9
:100F3800A30752081B1C04FF75642E729607011C38
:100F4800FA1C2E074C075707F11CCA1C8E1D5B089C
:100F58006B081B1C06FF75642F6D6F649F07011CCF
:100F6800FA1C4F1D031DBD1DF11CBF1CFA1CBD1D25
:100F7800F11C1B1C06FF64696769743FAE07011CFE
:100F8800F506AC1C381C3900731D381C00010E1EF8
:100F9800981DAC1C381C4001731D381C07010E1E1F
:100FA8008E1D381C30008E1DAC1CBB05741C571DD3
:100FB8001B1C011C031D3C08F11CCA1C2A1EFF1D1A
:100FC800981D2A1EFA1C1B1C02FF732CBE07011C4D
:100FD800AC1CEF071B1C011CA302AC1CFF1DE10588
:100FE800061E8E1DFA1C4F1D6203311C02088A1E44
:100FF800AC1C741CA302C805B81EFC07F11C231DF9
:10100800311C0908AC1C931CA302D41C1B1C05FF33
:10101800697479706500E807011CAC1CFF1DE105C7
:10102800061E8E1DFA1C4F1D6203311C24088A1EE1
:10103800AC1CBB1FAC1C31082D082A1EB81E1C088E
:10104800F11C231D311C2B08AC1CBB1F3108D41C00
:101058001B1C011CE81E31081B1C011C381CFF004E
:101068000E1EF9051B1C06FF69636F756E740B086D
:10107800011CAC1C2A1EBF1CBB1F1B1C02FF637279
:101088003708011C381C0D00F905381C0A00F90541
:101098001B1C05FF7370616365004208011C5B0639
:1010A800F9051B1C06FF7370616365734D08011C0D
:1010B8004F1DDA06AC1C311C65085208301E2A1C6C
:1010C8005E08D41C1B1C04FF747970655608011C4B
:1010D800A10D6203311C76088A1E9B1E931CF9051C
:1010E800B81E71081B1C01FF27006708011C1D0A98
:1010F800010B770BD01F311C8308D41C1B1C381C18
:10110800F3FFA90807FF68616E646C6572007708D1
:10111800531C0A0005FF6361746368008608011C9C
:101128007C1EFA1C8C08741CFA1C651E8C087C1C1E
:10113800251CF11C8C087C1CF11CD41C4F1D1B1C8D
:1011480005FF7468726F77008E08011CAC1C151DB2
:10115800311CB008D41C1B1C8C08741C6F1EF11C9D
:101168008C087C1CF11CBF1CFA1C851ED41CF11CAD
:101178001B1C05FF63736B697000A408011CFA1C33
:10118800AC1C311CD108CA1C931C031DD01F311C78
:10119800D108D71F0E0A2A1CC408F11CD41C1B1C1A
:1011A80005FF637363616E00BD08011CFA1CCA1C4D
:1011B800AC1C931C031DD01F151D311CEE08BF1C51
:1011C800301EBF1CCA1C1C1D151D311CEE082A1E12
:1011D8002A1CDC08EB1CCA1C8E1DF11CD41C1B1C11
:1011E80006FF616363657074D408011CCA1C981DEE
:1011F800301ECA1C0A06AC1C3A09151D311C2C09E4
:10120800AC1C381C0800D01F311C1C09D41CDC1C69
:10121800D005731DFA1CDC1CDC1CF11C311C1A09DE
:101228003209301EFA1CCA1CF11C33012A1C2A0977
:10123800AC1C5B06691D311C2309D41C5B06AC1C65
:10124800F905CA1C881C2A1ECA1C3F012A1CFE0854
:10125800D41CEB1CBF1C8E1D45081B1C011C381C14
:101268000800AC1CF9055208F9051B1C011CAC1C34
:10127800381C0D00D01FBF1C381C0A00D01F171EB9
:101288001B1C06FF726566696C6CF408550C1A0025
:101298001E0C2A0C04FF636861724509011C1D0AB3
:1012A800D41C931C1B1C06FF6E756D6265724E097B
:1012B800011CBB05741CFA1CA009FA1CB309A0097F
:1012C800F11C171EFA1CAC1C151D311C7309D9051D
:1012D800F11CD41CF11CBB057C1C4F1D1B1C0D1FD5
:1012E8004F1D4F1D1C1FD109B41C311C9509D71F58
:1012F800D01F311C8C09931C381C2E00D01F311CA8
:101308008D09F11C311C8909230DDC1F2A1C9B093E
:10131800D41CD905F11CD41CF11CBB057C1C4F1D29
:101328001B1CD905F11C311C9A09AB06D71FF11CEF
:10133800BB057C1C461D1B1C011CCA1C931C381CAD
:101348002D00D01FAC1CFA1C311CAC09D71F0E0A8B
:10135800F11C1B1C4D1C0A00100002000A00011C95
:10136800CA1C931C381C23008E1DAC1C4F1D381C36
:101378000400E706311CC909AE09981DBB1FBB054F
:101388007C1CD71F0E0A2A1CCA09D41C1B1C07FF69
:101398003E6E756D626572005709011CAC1C311CEC
:1013A800EA09CA1C931CC307151D311CDD09D41C8E
:1013B8001B1CFA1C480DBB05741C2401F11C1C01E4
:1013C800480D381C01000E0A2A1CD2091B1C05FFF7
:1013D800706172736500CB09011CFA1C040AE905E7
:1013E800741C0E0AF11CD908AC1C2A1EE905541EEF
:1013F800D71F0E0A1B1C06FF736F75726365EB0916
:10140800550C16001E0C2A0C07FF2F737472696E98
:101418006700FF09011CDC1CCA1C981DDC1CDC1CB5
:101428008E1D1B1C0AFF70617273652D6E616D65E0
:10143800080A011C5B06210A1B1C011CFA1C040A71
:10144800E905741C0E0A031DC208F11CD908D00551
:10145800981D040AD41C8E1DE9057C1C1B1C09FF61
:1014680066696E642D6E616D6500160A011C381C74
:10147800460A381C3E00DC04151D311C450AD905F6
:101488004F1D1B1C011CFA1CD005F11C670CAC1C61
:10149800311C530AFA1CEB1CEB1CF11C461D1B1CCF
:1014A80004FF71756974330A011C98039F037C1C3F
:1014B800D90A851EE60A6F1E2D04B505741C151D74
:1014C800311C670A840A4A09311C610A381C290B35
:1014D8009308B41C311C790AAC1C381CFEFF691D2A
:1014E800311C770A8B0A2A1C590A7D0A2A1C610AB0
:1014F8001B1C011CDD070300206F6B0010081B1C60
:10150800011CDD0702003E20450810081B1C011CB9
:10151800DD070400203F3F201008BB05741CFA1C9F
:1015280048069207E905741C9207F11CBB057C1C50
:101538001B1C05FF706175736500540A550C830008
:101548000A0C140C04FF636F6C649D0AAB0AA4B602
:101558002224332424BEE0E6F0E02192E036E9F7C5
:10156800F430D9F7E5E8F0E02F010FE50DBF04836B
:1015780014E01EBF1583CFE0C683D4E0D783ACEC5C
:10158800BAE00C94051C04FF7761726DA60A011C71
:10159800930D381CC10B381CA20A350C2D046306A8
:1015A800580A03FF73703000C70A6A1C06001E0C35
:1015B8002A0C02FF7370D50A531C080003FF7270CF
:1015C8003000DD0A011CEA0A741C1B1C531C0400B1
:1015D80005FF646570746800E20A011CD90A7C1E64
:1015E8008E1DFF1D301E1B1C0DFF646F2D72656361
:1015F8006F676E697A657200EC0A011C381C0D0B66
:10160800381C5000DC04151D311C0C0BD9058C0B43
:101618001B1C011CDC1CDC1CD0050D1FDC1C251C44
:101628001C1FDC1CAC1C8C0BD01F311C1E0BD41CCB
:101638004F1D1B1CEB1CEB1C461D1B1C09FF696E78
:101648007465727072657400F80A011C1D0AAC1C7E
:10165800311C390B010BB505741C311C340BED0B17
:10166800BB1F251C990B2A1C2A0BD9051B1C05FF1F
:10167800723A6E756D00220B4D1CC10BB902B9028E
:1016880006FF723A646E756D3B0B4D1CC10BC81F8B
:10169800C81F07FF7265633A6E756D00440B011C25
:1016A8005C09311C5F0BD71FD01F311C5D0B400B31
:1016B8001B1C490B1B1C8C0B1B1C08FF7265633A17
:1016C800776F72644D0B011C3A0AAC1C151D311C56
:1016D800700BD41C8C0B1B1C770B1B1C06FF723A5F
:1016E800776F7264610B4D1C7B0B7F0BC81F011C4D
:1016F800D41C251C1B1C011C1C1D311C850BA302A2
:101708001B1C251C1B1C06FF723A6661696C720B58
:101718004D1C900B900B900B011C381CF3FFA90873
:1017280006FF3F737461636B870B011CF10A1C1D74
:10173800311CA10B381CFCFFA9081B1C03FF766594
:101748007200940B011C770510085208BB05741C25
:1017580085054806AA0D2E073607381C2E001F07D8
:101768004C0757076B08BB057C1C52088D051008F1
:101778001B1C04FF6E6F6F70A20B011C1B1C06FF65
:10178800756E75736564BD0B011C7C1E2A068E1D63
:101798001B1C0200746FC30B011C7A08B30DB5053E
:1017A800741C311CE10B9802DB0BA3021B1C011CEF
:1017B800F11CAC1CED0BFA1CBB1FAC1CED0BED0BAC
:1017C800BB1F251C1B1C07FF692D63656C6C2B0058
:1017D800CD0B011C2A1E1B1C07FF4564656665723C
:1017E8004000E70B011CBB1F4E1F1B1C07FF456475
:1017F800656665722100F00B011CBB1F2A1F1B1CAC
:1018080007FF5264656665724000FA0B011CBB1F36
:10181800741C1B1C07FF5264656665722100040C6A
:10182800011CBB1F7C1C1B1C07FF55646566657289
:1018380040000E0C011CBB1FF11E981D741C1B1CC4
:1018480007FF5564656665722100180C011CBB1FF3
:10185800F11E981D7C1C1B1C06FF646566657221C1
:10186800240C011CB30DAC1CED0BED0BBB1F251C90
:101878001B1C06FF646566657240300C011CB30DC5
:10188800AC1CED0BBB1F251C1B1C07FF28646566E1
:10189800657229003D0C011C7502D5039802550C90
:1018A8001B1C0E94EE03AC1CED0BBB1F251C251C4A
:1018B8001B1C0FFF7365617263682D776F72646C10
:1018C80069737400490C011CFA1C4F1D381C7C0CF0
:1018D800F11C990CAC1C151D311C760CD905D41CB7
:1018E8004F1D1B1CAC1CC00CBF1C5A0147011B1C04
:1018F800011CFA1CD41CD005031DB40CCA0C311CE5
:101908008A0CF11CD41C4F1D461D1B1CD905F11C4B
:101918004F1D1B1C11FF74726176657273652D77FC
:101928006F72646C697374005D0C011C4E1FAC1CF3
:10193800311CAA0CD0050D1FBF1C251C1C1FDC1C4C
:10194800311CAA0C4205BB1F2A1C9B0CD9051B1C69
:101958000BFF6E616D653E737472696E67008E0C65
:10196800011C3C08381CFF000E1E1B1C07FF6E667E
:10197800613E63666100AC0C011C42052A1E1B1CFB
:1019880008FF69636F6D70617265BA0C011CFA1CFF
:10199800CA1CF11C0E1D311CD50CD905D41C461DC2
:1019A8001B1CBF1C4F1D6203311CF80C8A1ECA1C6D
:1019B800741CCA1CBB1FAC1C381C0001571D311CF1
:1019C800E90CBF1C381CFF000E1E0E1D311CF00C4C
:1019D800D905461DC31E1B1C2A1EBF1CC805BF1CDB
:1019E800381C0200A91EDB0CD9054F1D1B1C01FF6A
:1019F8002A00C40C011CA11DD41C1B1C01FF6A0079
:101A0800FB0C011C651E381C0700981D741C651E04
:101A1800381C0900981D741C981D1B1C04FF646168
:101A28006273020D011CAC1C1C1D311C1C0D230D06
:101A38001B1C07FF646E656761746500120D011C4D
:101A4800A901381C01004F1D81011B1C05FF636D96
:101A58006F7665001D0D300DBF93AF93E991F99135
:101A6800A991B991092F082B21F01D911193019784
:101A7800E1F7AF91BF91899199910C94051C05FFED
:101A88003273776170002A0D011CDC1CFA1CDC1C07
:101A9800F11C1B1C0AFF726566696C6C2D74696207
:101AA800430D011C710D381C5A00F908770D7C1C78
:101AB8004F1DE9057C1C461D1B1C0AFF736F7572C0
:101AC80063652D7469624E0D011C710D770D741CD0
:101AD8001B1C03FF74696200610D431CAB0004FF0B
:101AE800237469626D0D431C050106FF65653E722E
:101AF800616D730D011C4F1D8A1ECA1C4E1FCA1C26
:101B08007C1CC805BF1CC805BF1CB81E810DD905A3
:101B18001B1C08FF696E69742D72616D790D011CBB
:101B2800381C5E00F11E381C1C00FF1D7E0D1B1C9E
:101B380006FF626F756E64738D0D011CCA1C981DBB
:101B4800BF1C1B1C03FF733E64009C0D011CAC1CD6
:101B58001C1D1B1C05FF3E626F647900A60D2B1E21
:101B680002FF2E73AE0D011CF10ABF015208F10AE3
:101B78004F1D6203311CC60D8A1E9B1E3202BF0117
:101B8800B81EC10D1B1C06FF632140737069B40D9C
:101B9800CD0D03D099270C94051C8FB90EB1087F81
:101BA8000EB90EB107FFFACF8FB1089505FF6E4049
:101BB80073706900C70DE00D8C0189919991FC0142
:101BC800C8012FB82EB127FFFDCF2FB12193019760
:101BD800C1F7899199910C94051C05FF6E217370CA
:101BE8006900DA0DF70D8C0189919991FC01C80102
:101BF80021912FB92EB127FFFDCF2FB10197C1F742
:101C0800899199910C94051C0BFF6170706C747527
:101C1800726E6B657900F10D011CA900F001A60B2D
:101C28005208AA05381CE803BD1DEB1C480692079C
:101C3800DD0704006B487A2010081B1C0BFF736536
:101C4800742D63757272656E7400080E011C381C61
:101C58003A002A1F1B1C08FF776F72646C69737443
:101C6800220E011C22064F1DCA1C2A1FAC1CC805C7
:101C7800DB0B23061B1C0EFF666F7274682D776FD3
:101C880072646C6973742F0E431C3C0009FF736502
:101C9800742D6F72646572003F0E011C381C3E0083
:101CA800C5041B1C0FFF7365742D7265636F676E27
:101CB800697A657273004A0E011C381C5000C5040D
:101CC8001B1C0FFF6765742D7265636F676E697AF9
:101CD80065727300560E011C381C5000A4041B1CAE
:101CE80004FF636F6465650E011C7502D503190650
:101CF800ED0BA3021B1C08FF656E642D636F646502
:101D0800740E011C98020C949802051C1B1C08FFF9
:101D1800286D61726B6572297F0E6A1C5C00F60B78
:101D2800000C0800706F7374706F6E658B0E011C69
:101D38001D0A010BAC1CFA1CED0BED0BBB1F251C7F
:101D4800F11CED0BBB1FA3021B1C03FF32724000EA
:101D5800950EAE0E9A938A93EF91FF918F919F9172
:101D68009F938F93FF93EF939A938A93CF010C9449
:021D7800051C48
:10380200BF93AF93DB0111966EF0FD01EE0FFF1F28
:10381200659175911196FB01EE0FFF1F05911591B0
:10382200F8010994E8946EE172E0F5CF04FF65783F
:103832006974A90E1C1CAF91BF91E6CF07FF657892
:10384200656375746500171C261CBC0189919991EA
:10385200E2CF2B1CFD01EE0FFF1FA591B591D4CF36
:10386200321C982B89919991A9F31196CDCF391CCD
:103872009A938A93FD01EE0FFF1F85919591119600
:10388200C3CF431C9A938A93FB013196EE0FFF1F1D
:1038920085919591B9CF4D1C9A938A93CB0101964C
:1038A200B3CF531C9A938A93FB013196EE0FFF1FFD
:1038B20085919591840D951DA7CF07FF2876616CA0
:1038C200756529001F1C011C7502D50398026A1C2C
:1038D2001B1C0E94EE03AC1CED0BBB1F251C1B1C0A
:1038E20001FF40005E1C751CFC01819191918CCFFF
:1038F20001FF2100711C7D1CFC018991999191832A
:1039020080838991999180CF02FF6321791C891C60
:10391200FC018991999180838991999175CF02FFD8
:103922006340851C941CFC01992780816DCF02FFA6
:103932004075901C011CF11E981D741C1B1C02FF7B
:103942002175981C011CF11E981D7C1C1B1C03FF79
:1039520064757000A01CAD1C9A938A9355CF04FF26
:103962003F647570A81CB51C082F092B11F09A939F
:103972008A934ACF04FF73776170B01CC01C8C011C
:10398200899199911A930A933FCF04FF6F766572DA
:10399200BB1CCB1C9A938A938A819B8135CF04FFEF
:1039A20064726F70C61CD51C899199912DCF03FF4B
:1039B200726F7400D01CDD1C8C01299139918991A0
:1039C20099913A932A931A930A931ECF03FF6E6931
:1039D2007000D81CEC1C229617CF02FF723EE71C27
:1039E200F21C9A938A938F919F910ECF02FF3E729F
:1039F200EE1CFB1C9F938F938991999105CF02FF37
:103A02007240F71C041D9A938A938F919F919F9302
:103A12008F93FACE02FF3C3E001D011CD01F151DE4
:103A22001B1C02FF303D0B1D161D982BD1F530C01B
:103A320002FF303C121D1D1D97FD2AC032C002FF3D
:103A4200303E191D241D821593055CF151F120C0F1
:103A520003FF64303E00201D2E1D821593058991BF
:103A6200999182059305ECF0E1F012C003FF6430F6
:103A72003C00291D3C1D229697FD0C94491D0C9477
:103A8200521D04FF74727565371D471D9A938A9300
:103A92008FEF9FEFB9CE01FF3000421D501D9A9368
:103AA2008A93C101B1CE02FF753C4C1D581D29916C
:103AB200399182179307A8F3A1F3EACF02FF753E6B
:103AC200541D011CBF1C571D1B1C01FF3C005F1D28
:103AD2006A1D29913991281739071CF7D9CF01FF9F
:103AE2003E00661D741D2991399128173907CCF2C1
:103AF200C1F2CECF04FF6C6F6732701D801DFC01D6
:103B0200992780E18A9522F0EE0FFF1FD8F77CCE2D
:103B12009A957ACE01FF2D007B1D8F1D0991199177
:103B2200081B190BC80170CE01FF2B008B1D991DBC
:103B320009911991800F911F67CE02FF6D2A951D81
:103B4200A21D8C01899199919C0131027001209FE3
:103B5200C0013003F308900DE11CF31C1203F308BB
:103B6200900DE11CF31C9A938A93C7014DCE06FF78
:103B7200756D2F6D6F649E1DBE1D7C01299139915B
:103B82000991199140E15527000F111F221F331F80
:103B9200551F2E153F05520518F003952E193F09A2
:103BA2004A9589F73A932A93C8012ECE03FF756D81
:103BB2002A00B81DDC1D8C0189919991809FF0012A
:103BC20022273327909FF00D211D331D819FF00D79
:103BD200211D331D919F200D311DCF019A938A9390
:103BE200C90112CE06FF696E76657274D71DF91D82
:103BF2008095909509CE02FF322FF31D001E9595F8
:103C0200879502CE02FF322AFC1D071E880F991FDC
:103C1200FBCD03FF616E6400031E0F1E0991199113
:103C220080239123F1CD02FF6F720A1E181E0991A3
:103C32001991802B912BE8CD03FF786F7200141E2F
:103C4200221E0991199180279127DECD02FF312B87
:103C52001D1E2B1E0196D8CD02FF312D271E311EAF
:103C62000197D2CD06FF6C73686966742D1E391EEA
:103C7200FC018991999131971AF0880F991FFBCF16
:103C8200C3CD06FF727368696674331E481EFC0159
:103C92008991999131971AF096958795FBCFB4CD7A
:103CA20002FF2B21421E551EFC0189919991208110
:103CB2003181820F931F8083918389919991A4CD41
:103CC20003FF72704000511E661E9A938A938DB74D
:103CD2009EB79ACD03FF72702100611E701E2FB72E
:103CE200F8948DBF9EBF2FBF899199918DCD03FF0F
:103CF200737040006B1E7D1E9A938A93CE0184CD11
:103D020003FF73702100781E861EEC018991999140
:103D12007BCD8B1E29913991E0E83E0F821B930BDC
:103D22003F932F939F938F93899199916DCD01FF2B
:103D32006900811E9C1E9A938A938F919F91EF91A5
:103D4200FF91FF93EF939F938F938E0F9F1F5CCDF5
:103D5200AA1EEF91FF91E80FF91F899199911BF02B
:103D6200FF93EF9377CD0F911F9111964DCDB91E11
:103D7200EF91FF913196BBF3F3CF06FF756E6C6F37
:103D82006F70981EC41E1F910F911F910F913CCD11
:103D920006FF636D6F76653EBE1ECF1EBF93AF9367
:103DA200E991F991A991B991092F082B41F0E80FF6
:103DB200F91FA80FB91F1E9112930197E1F7AF9156
:103DC200BF918991999120CD02FF3E3CC91EE91E07
:103DD200092F982F802F18CD03FF75704000E51E24
:103DE200F21E9A938A93C2010FCD03FF75702100D0
:103DF200ED1EFB1E2C018991999106CD03FF316DB9
:103E02007300F61E041FE0EDF7E03197F1F7FCCCEA
:103E120003FF323E7200FF1E0E1FFC018991999131
:103E22009F938F93FF93EF9389919991EDCC03FF29
:103E320032723E00091F1D1F9A938A93EF91FF91E0
:103E42008F919F919A938A93CF01DECC02FF2165D5
:103E5200181F2B1FFC01899199912FB7F89428D034
:103E62000DB3081709F00BD0319622D00DB3091704
:103E720011F0892F04D02FBF89919991C5CCE19976
:103E8200FECF07B700FDFDCFFFBBEEBB8DBBE29AB5
:103E9200E19A089502FF4065271F4F1F2FB7F8943C
:103EA200FC0106D08DB3319603D09DB32FBFACCCAD
:103EB200E199FECFFFBBEEBBE09A089502FF2169B4
:103EC2004B1F550C5A00F60B000C09FF2821692DD7
:103ED2006E72777729005F1F6E1F1FB71F93F894CA
:103EE2009C0189919991AF93BF93CF93DF9309D0AE
:103EF200DF91CF91BF91AF91899199911F911FBF8E
:103F020083CC11D0E094F0948E219F21982B21F044
:103F1200B394F90102E020D0F90104E01DD0F901C7
:103F220000E11AD00895F901E07CFF7FEF01A0E4DF
:103F3200B0E0FE01EE0FFF1F45915591FE01E21721
:103F4200F30711F00A0102C07A010C01002704D024
:103F52002196119771F70895E199FECF17B710FDD9
:103F6200FDCFEE0FFF1F016007BFE895089502FF26
:103F72004069661FBC1FFC01EE0FFF1F85919591E2
:103F820043CC0800326C69746572616CB81F011C05
:103F9200BF1CB902B9021B1C01FF3D00C21F011C5C
:103FA2008E1D151D1B1C01FF3100CD1F431C01007E
:103FB20001FF3200D41F431C020002FF2D31D91F22
:043FC200431CFFFF9E
:00000001FF
