:020000020000FC
:0200040009D120
:0200080007D11E
:02000C0005D11C
:0200100003D11A
:0200140001D118
:02001800FFD017
:02001C00FDD015
:02002000FBD013
:02002400F9D011
:02002800F7D00F
:02002C00F5D00D
:02003000F3D00B
:02003400F1D009
:02003800EFD007
:02003C00EDD005
:02004000EBD003
:02004400E9D001
:02004800E7D0FF
:02004C00E5D0FD
:10005000E3D00008000400701500080041546D65ED
:1000600067613332AF93AFB7AF93BF93EF93FF9313
:10007000B0912C00A0917200E0E6F0E0EA0FF31DD1
:10008000B083A395AF70A0937200FF91EF91BF91E1
:08009000AF91AFBFAF911895CD
:0200340017C0F3
:1000980001384F393838720088384F393838740089
:1000A80088381B3806FF72782D6973720000013892
:1000B800750031385C00383874009338AC382A3A07
:1000C80038380F000E3A38387400883838386000ED
:1000D800983993381B3807FF72783F2D697372007F
:1000E80056000138123D3838740093383838720099
:1000F80093380E391B3807FF74782D706F6C6C00BD
:100108006F00013893003138860038382C00883861
:100118001B3808FF74783F2D706F6C6C7F000138B6
:10012800123D38382B009338383820000E3A1B38E7
:1001380004FF756272728D006A387A00813D8B3DCA
:1001480006FF2B75736172749C000138383898006B
:1001580038382A008838383806003838C0008838D7
:10016800A000AC38E83A38384000883838382900D8
:1001780088384C001B3808FF31772E726573657418
:10018800A400C6009A938A939927BC9AC498E0EC75
:10019800F3E03197F1F71FB7F894C49ABC98E0E8F8
:1001A800F0E03197F1F786B384FF9FEF1FBFBC984B
:1001B800C498E0E4F3E03197F1F7892F0C940538FF
:1001C80007FF31772E736C6F7400BF00EB00BC9A89
:1001D800C4981FB7F894ECE0F0E03197F1F78894F1
:1001E800879510F4BC98C49AE2E1F0E03197F1F7F2
:1001F80006B304FD8068E6E6F0E03197F1F7BC98B5
:10020800C49AE4E0F0E03197F1F71FBF0C94053889
:040000000C941B3D04
:100218000A920FB60A920F900F900A9400927600F5
:1002280009900FBE09906894089502FF6D2BE400B1
:100238000138B03F053C1B3803FF75642A001901DB
:100248000138AC38FA38DB39D438BF38F138DB3903
:10025800DC3898391B3804FF756D61782001013846
:10026800B23E573931383901BF38D4381B3804FF0A
:10027800756D696E2F010138B23E6239313845011A
:10028800BF38D4381B380138383800800E3A153951
:1002980031385101383801001B3846391B380AFFFC
:1002A8006E616D653E666C6167733B010138BB3BEF
:1002B800383800FF0E3A1B3803FF76657200530189
:1002C8000138B502DE03973FA63E7438C3022A3FC1
:1002D800B03FFC02040338382E00ED021A03250350
:1002E8001404A63E7C38973FCB02DE031B3804FF7C
:1002F8006E6F6F70600101381B3806FF756E75737D
:1003080065647B0101387C3A0C3F8E391B3802004A
:10031800746F810101382304B93FA03E7438313825
:100328009F01230799012E071B380138F138AC3893
:10033800AB01FA38BB3BAC38AB01AB01BB3B253852
:100348001B3807FF692D63656C6C2B008B01013826
:100358002A3A1B3808FF69636F6D70617265A501E1
:100368000138FA38CA38F1380E393138BF01BB3E86
:10037800D43846391B38BF384F39ED073138E201D8
:100388008A3ACA387438CA38BB3BAC3838380001A6
:1003980057393138D301BF383838FF000E3A0E3993
:1003A8003138DA01BB3E4639C33A1B382A3ABF38DE
:1003B800833CBF3838380200A93AC501BB3E4F39E3
:1003C8001B3801FF2A00AE010138A139D4381B3887
:1003D80001FF6A00E5010138653A383807009839A5
:1003E8007438653A383809009839743898391B38A0
:1003F80004FF64616273EC010138AC381C39313890
:1004080006020D021B3807FF646E6567617465009C
:10041800FC0101382B3C383801004F39053C1B38AA
:1004280005FF636D6F76650007021A02BF93AF93ED
:10043800E991F991A991B991092F082B21F01D9102
:1004480011930197E1F7AF91BF91899199910C941C
:10045800053805FF32737761700014020138DC3803
:10046800FA38DC38F1381B380AFF726566696C6C3B
:100478002D7469622D0201385B0238385A006B040A
:1004880061027C384F39CB3E7C3846391B380AFF2D
:10049800736F757263652D746962380201385B0287
:1004A800610274381B3803FF746962004B024338D9
:1004B800770004FF2374696257024338D10006FFAE
:1004C80065653E72616D5D0201384F398A3ACA38F6
:1004D8004E3BCA387C38833CBF38833CBF38B83A77
:1004E8006B02BB3E1B3808FF696E69742D72616D23
:1004F8006302013838385E00F13A38381C00FF3999
:1005080068021B380BFF656E7669726F6E6D656EDB
:10051800740077024338380009FF776F72646C699A
:100528007374730000000138383808001B3804FF62
:100538002F706164900201387C3AD13E8E391B38A5
:1005480005FF2F686F6C64009B020138D13E0C3F99
:100558008E391B380AFF666F7274682D6E616D657F
:10056800A4020138AB030700616D666F72746800FE
:100578001B3807FF76657273696F6E00AE0201382B
:1005880038383D001B3803FF63707500BD02013821
:1005980038382D000A041B3808FF6D63752D696E05
:1005A800666FC7020138383829001B3805FF2F75D8
:1005B80073657200D0020138383826001B3803FFF3
:1005C800686C640086024338D30004FF686F6C646B
:1005D800E3020138E702AC387438303AAC38FA38FC
:1005E800BF387C38F13888381B3802FF3C23E902D1
:1005F8000138D13EE7027C381B3801FF2300F9029D
:100608000138A63E74388103DC3838380900CA3806
:1006180069393138120338380700983938383000CA
:100628009839ED021B3802FF2373010301380403D4
:10063800B23E173A153931381B031B3802FF233EE7
:1006480017030138BB3EE7027438D13ECA388E39E9
:100658001B3804FF7369676E220301381C3931386F
:10066800380338382D00ED021B3803FF642E720062
:100678002D030138FA38C33E0002FC021A03DC38A5
:1006880031032503F138CA388E39A03F14041B38CA
:1006980002FF2E7239030138FA38B03FF1383D03B2
:1006A8001B3802FF642E4C0301384F393D03973F36
:1006B8001B3801FF2E0055030138B03F58031B3883
:1006C80003FF75642E005D0301384F397103973FAE
:1006D8001B3804FF75642E7264030138FA38FC0273
:1006E8001A032503F138CA388E39A03F14041B3881
:1006F80006FF75642F6D6F646D030138FA384F3942
:100708000339BD39F138BF38FA38BD39F1381B38EB
:1007180006FF64696769743F7C0301384F3FAC3852
:10072800383839007339383800010E3A9839AC38FE
:10073800383840017339383807010E3A8E3938385D
:1007480030008E39AC38A63E743857391B3801381A
:1007580003390A04F138CA382A3AFF3998392A3A4B
:10076800FA381B3802FF732C8C030138AC38BD03F0
:100778001B3801382E07AC38FF39C33E063A8E398C
:10078800FA384F39ED073138D0038A3AAC38743823
:100798002E07833CB83ACA03F13823393138D703D6
:1007A800AC3893382E07D4381B3805FF6974797034
:1007B8006500B6030138AC38FF39C33E063A8E39B6
:1007C800FA384F39ED073138F2038A3AAC38BB3B77
:1007D800AC38FF03FB032A3AB83AEA03F138233965
:1007E8003138F903AC38BB3BFF03D4381B38013828
:1007F800E83AFF031B3801383838FF000E3ADB3E71
:100808001B3806FF69636F756E74D9030138AC38FD
:100818002A3ABF38BB3B1B3804FF7479706505045E
:100828000138823FED0731381F048A3A9B3A9338E2
:10083800DB3EB83A1A041B3801FF270010040138C0
:100848008F05D1054706C83F31382C04D4381B38EA
:100858003838F3FF673D05FF63736B697000200448
:100868000138FA38AC3831384304CA389338033978
:10087800C83F31384304CF3F80052A383604F13861
:10088800D4381B3805FF637363616E002F04013889
:10089800FA38CA38AC3893380339C83F1539313873
:1008A8006004BF38303ABF38CA381C391539313876
:1008B80060042A3A2A384E04EB38CA388E39F1389F
:1008C800D4381B3806FF61636365707446040138C9
:1008D800CA389839303ACA38EC3EAC38AC041539C5
:1008E80031389E04AC3838380800C83F31388E0497
:1008F800D438DC38B23E7339FA38DC38DC38F138B1
:1009080031388C04A404303AFA38CA38F138330143
:100918002A389C04AC383D3F693931389504D438BD
:100928003D3FAC38DB3ECA3888382A3ACA383F01DE
:100938002A387004D438EB38BF388E398A3F1B38D0
:10094800013838380800AC38DB3E973FDB3E1B38AF
:100958000138AC3838380D00C83FBF3838380A007D
:10096800C83F173A1B3806FF726566696C6C6604E7
:10097800E03D1A00A93DB53D04FF63686172B70404
:1009880001388F05D43893381B3806FF6E756D62B1
:100998006572C0040138A63E7438FA381205FA3870
:1009A80025051205F138173AFA38AC3815393138B7
:1009B800E504BB3EF138D438F138A63E7C384F39CF
:1009C8001B380D3B4F394F391C3B4305B438313880
:1009D8000705CF3FC83F3138FE04933838382E001A
:1009E800C83F3138FF04F1383138FB040D02D43FD9
:1009F8002A380D05D438BB3EF138D438F138A63E34
:100A08007C384F391B38BB3EF13831380C05103E65
:100A1800CF3FF138A63E7C3846391B380138CA38F2
:100A2800933838382D00C83FAC38FA3831381E05AD
:100A3800CF3F8005F1381B384D380A0010000200FE
:100A48000A000138CA389338383823008E39AC3850
:100A58004F3938380400403E31383B052005983975
:100A6800BB3BA63E7C38CF3F80052A383C05D438AE
:100A78001B3807FF3E6E756D62657200C904013848
:100A8800AC3831385C05CA38933891031539313898
:100A98004F05D4381B38FA383202A63E7438240180
:100AA800F1381C0132023838010080052A38440523
:100AB8001B3805FF7061727365003D050138FA380F
:100AC8007605CB3E74388005F1384B04AC382A3AA9
:100AD800CB3E543ACF3F80051B3806FF736F7572C3
:100AE80063655D05E03D1600A93DB53D07FF2F7321
:100AF8007472696E670071050138DC38CA38983934
:100B0800DC38DC388E391B380AFF70617273652D4A
:100B18006E616D657A0501383D3F93051B380138D4
:100B2800FA387605CB3E7438800503393404F13839
:100B38004B04B23E98397605D4388E39CB3E7C3892
:100B48001B3803FF7370300088056A380600A93D1A
:100B5800B53D02FF7370A5055338080003FF727096
:100B68003000AD050138BA0574381B385338040015
:100B780005FF646570746800B2050138A9057C3A00
:100B88008E39FF39303A1B380DFF646F2D7265635B
:100B98006F676E697A657200BC0501383838DD0503
:100BA80038385000670915393138DC05BB3E5C061A
:100BB8001B380138DC38DC38B23E0D3BDC382538D0
:100BC8001C3BDC38AC385C06C83F3138EE05D438FD
:100BD8004F391B38EB38EB3846391B3809FF696E3B
:100BE8007465727072657400C80501388F05AC3879
:100BF80031380906D105A03E743831380406AB01F6
:100C0800BB3B2538743F2A38FA05BB3E1B3805FF25
:100C1800723A6E756D00F2054D387F01440744073E
:100C280006FF723A646E756D0B064D387F01C03F42
:100C3800C03F07FF7265633A6E756D001406013890
:100C4800CE0431382F06CF3FC83F31382D06100665
:100C58001B3819061B385C061B3808FF7265633A97
:100C6800776F72641D060138D206AC3815393138F1
:100C78004006D4385C061B3847061B3806FF723A14
:100C8800776F726431064D384B064F06C03F013806
:100C9800D43825381B3801381C39313855062E0709
:100CA8001B3825381B3806FF723A6661696C4206A4
:100CB8004D3860066006600601383838F3FF673D36
:100CC8000FFF7365617263682D776F72646C697367
:100CD800740057060138FA384F3938388306F13826
:100CE800A006AC38153931387D06BB3ED4384F39AB
:100CF8001B38AC38C706BF385A0147011B380138C2
:100D0800FA38D438B23E0339BB06B40131389106FB
:100D1800F138D4384F3946391B38BB3EF1384F3992
:100D28001B3811FF74726176657273652D776F7267
:100D3800646C69737400640601384E3BAC38313812
:100D4800B106B23E0D3BBF3825381C3BDC38313884
:100D5800B106CD09BB3B2A38A206BB3E1B380BFFA8
:100D68006E616D653E737472696E67009506013831
:100D78000A043838FF000E3A1B3807FF6E66613EDA
:100D880063666100B3060138CD092A3A1B3809FFAA
:100D980066696E642D6E616D6500C106013838386C
:100DA800DE0638383E00670915393138DD06BB3EA6
:100DB8004F391B380138FA38B23EF1386E06AC3874
:100DC8003138EB06FA38EB38EB38F13846391B384E
:100DD80006FF6E6577657374CB064338D50006FF4A
:100DE8006C6174657374EC064338D90008FF286396
:100DF800726561746529F30601388F055708AC38A8
:100E0800F106833C7C383C08F1067C381B3801002D
:100E18005C00FA0601387605EB38CB3E7C381B3887
:100E2800010028000B070138383829006205BB3E4D
:100E38001B3807FF636F6D70696C65001407013814
:100E4800F138AC38AB01FA38BB3B2E071B3801FF31
:100E58002C001D070138FB3E623BFB3E2A3A9901F4
:100E6800FC3E1B3803005B275D002B070138230479
:100E780044071B3807006C69746572616C0036079B
:100E88000138230738382E071B380800736C69743B
:100E98006572616C3E0701382307AB03B9031B3841
:100EA8000138FB3E2307FFFF1B380138743FFB3E28
:100EB800BF38623B1B380138FB3E1B380138743F92
:100EC8002E071B3805006168656164004907013811
:100ED80023072A3854071B38020069666607013859
:100EE8002307313854071B380400656C7365700795
:100EF800013823072A385407BF3859071B3804001C
:100F08007468656E7807013859071B3805006265F3
:100F180067696E00830701385F071B38050077682B
:100F2800696C65008A0701387307BF381B380600EB
:100F380072657065617492070138B40787071B38BA
:100F48000500756E74696C009B07013838383138B4
:100F58002E0762071B380500616761696E00A407E8
:100F6800013823072A3862071B380200646FAF076D
:100F7800013823078A3A5F074F3917081B380400DE
:100F88006C6F6F70B90701382307B83AFE071B3832
:100F980005002B6C6F6F7000C30701382307A93A4F
:100FA800FE071B3805006C6561766500CC070138C3
:100FB8002307C33A6B0717081B3803003F646F0009
:100FC800D60701382307ED077307BC07BF38170892
:100FD8001B380138B23EC83FAC38FA383138F5070B
:100FE800BB3EF138F8391B3807FF656E646C6F6FCC
:100FF8007000E107013862070B08B4383138070878
:1010080087072A3800081B3802FF6C3EF8070138AA
:101018002A08743874383838FEFF2A08543A1B38BE
:1010280002FF3E6C08080138D43F2A08543A2A08BF
:1010380074387C381B3803FF6C70300014086A3829
:101048003400813D8B3D02FF6C701F084338DB0084
:1010580006FF637265617465270801380007600838
:1010680023074D381B3806FF6865616465722C08D4
:101078000138FB3EFA38FA38AC38233931384E0893
:10108800AC38383800FF173ABD03F1384E3B2E070D
:10109800F1381B383838F0FF673D07FF776C73630A
:1010A8006F7065003708E03D3200813D8B3D06FFDB
:1010B80072657665616C51080138F106833C7438B5
:1010C800B43831386B08F1067438BF382A3B1B38FE
:1010D8000500646F65733E005B08013823078408C8
:1010E80023070E94230779081B389A938A93CB0118
:1010F80001967F916F91BF93AF93DB010C940538F4
:101108000138F138F106833C74384E3BC706623B20
:101118001B3801FF3A006C08013800079B08D438D7
:101128001B3807FF3A6E6F6E616D65008D080138D8
:10113800FB3EAC38F8067C3823070138B0081B386A
:1011480001003B009508013823071B38B8086008E0
:101158001B3801FF5D00A4080138CF3FA03E7C3852
:101168001B3801005B00AD0801384F39A03E7C38C0
:101178001B3808FF7661726961626C65B5080138D1
:101188000C3FCF08D43F153F1B3808FF636F6E73C1
:1011980074616E74BD08013800076008230743387E
:1011A8002E071B3804FF75736572C90801380007DC
:1011B8006008230753382E071B38070072656375CC
:1011C80072736500D6080138F80674382E071B3884
:1011D80009FF696D6D65646961746500E10801382E
:1011E8008E094E3BAC38BB3B3838FF7F0E3ABF38D0
:1011F800623B1B3806005B636861725DEC0801386E
:1012080023073838C4042E071B38060061626F7242
:101218007422FE080138733E230720091B3805FF96
:1012280061626F727400090901384639673D06FF2B
:101238003F61626F727413090138DC38313826094E
:10124800DE031809BB3E1B3809FF6765742D7374EC
:1012580061636B001B090138AC38833CBF384E3BD7
:10126800AC38FA384F39BF38ED07313846098A3A71
:101278009B3A303AAD3ECA3898394E3BBF3846396A
:10128800A93A3C09BB3EF1381B3809FF7365742D38
:10129800737461636B0028090138B23E2A3BBF387A
:1012A8004F39ED0731385E098A3A833CC33E2A3B01
:1012B800B83A5909D4381B3809FF6D61702D737419
:1012C80061636B0049090138AC38833CBF384E3B39
:1012D800AD3E823FED07313883098A3A9B3A4E3B4F
:1012E800BF38FA3803392538B43831387F09F1382E
:1012F800D438C33A1B38F138D43FA93A7209D438E4
:101308004F391B380BFF6765742D63757272656EF4
:1013180074006009013838383A004E3B1B3809FF21
:101328006765742D6F7264657200860901383838F4
:101338003E002F091B3807FF636F6D7061726500EF
:101348009309A609BF93AF938C0189919991DC0108
:10135800899199919C0189919991FC01ED90F19065
:10136800EF1451F40A9519F02A95C1F701C02A958E
:10137800022B11F4882702C08FEF00C0982FAF917D
:10138800BF910C94053807FF6E66613E6C6661007C
:101398009F090138BB062A3AFF3998391B3802FFE2
:1013A8002E73C7090138C105F33D973FC1054F3971
:1013B800ED073138E5098A3A9B3A773CF33DB83A6C
:1013C800E0091B3806FF632140737069D309EC09F3
:1013D80003D099270C9405388FB90EB1087F0EB940
:1013E8000EB107FFFACF8FB1089505FF6E407370F5
:1013F8006900E609FF098C0189919991FC01C801EE
:101408002FB82EB127FFFDCF2FB121930197C1F738
:10141800899199910C94053805FF6E2173706900C4
:10142800F909160A8C0189919991FC01C801219149
:101438002FB92EB127FFFDCF2FB10197C1F78991A1
:1014480099910C9405380BFF6170706C7475726E0D
:101458006B657900100A0138A9008A3C6401973F3E
:10146800953E3838E803BD39EB382A3F6003AB03B3
:1014780004006B487A20DE031B380BFF7365742D5C
:1014880063757272656E7400270A013838383A003D
:101498002A3B1B3808FF776F72646C697374410AC2
:1014A8000138043F4F39CA382A3BAC38833C99018C
:1014B800053F1B380EFF666F7274682D776F726474
:1014C8006C6973744E0A43383C0009FF7365742DC8
:1014D8006F72646572005E0A013838383E00500940
:1014E8001B380FFF7365742D7265636F676E697AB9
:1014F80065727300690A01383838500050091B3882
:101508000FFF6765742D7265636F676E697A657220
:101518007300750A0138383850002F091B3804FF4A
:10152800636F6465840A013800076008FB3EAB01FD
:101538002E071B3808FF656E642D636F6465930A78
:10154800013823070C94230705381B3808FF286D3A
:1015580061726B6572299E0A6A385C00813D8B3D19
:101568000800706F7374706F6E65AA0A01388F0572
:10157800D105AC38FA38AB01AB01BB3B2538F138A3
:10158800AB01BB3B2E071B3803FF32724000B40A85
:10159800CD0A9A938A93EF91FF918F919F919F9390
:1015A8008F93FF93EF939A938A93CF010C94053806
:10700200BF93AF93DB0111966EF0FD01EE0FFF1FF0
:10701200659175911196FB01EE0FFF1F0591159178
:10702200F8010994E89465EB7CE3F5CF04FF6578F9
:107032006974C80A1C38AF91BF91E6CF07FF657823
:1070420065637574650017382638BC01899199917A
:10705200E2CF2B38FD01EE0FFF1FA591B591D4CFE2
:107062003238982B89919991A9F31196CDCF39385D
:107072009A938A93FD01EE0FFF1F859195911196C8
:10708200C3CF43389A938A93FB013196EE0FFF1FC9
:1070920085919591B9CF4D389A938A93CB010196F8
:1070A200B3CF53389A938A93FB013196EE0FFF1FA9
:1070B20085919591840D951DA7CF07FF2876616C68
:1070C200756529001F3801380007600823076A38F0
:1070D2001B380E947908AC38AB01BB3B25381B3802
:1070E20001FF40005E387538FC01819191918CCF8F
:1070F20001FF210071387D38FC01899199919183BA
:1071020080838991999180CF02FF632179388938F0
:10711200FC018991999180838991999175CF02FFA0
:10712200634085389438FC01992780816DCF02FF36
:10713200407590380138F13A983974381B3802FF9B
:10714200217598380138F13A98397C381B3803FF99
:1071520064757000A038AD389A938A9355CF04FFB6
:107162003F647570A838B538082F092B11F09A932F
:107172008A934ACF04FF73776170B038C0388C01AC
:10718200899199911A930A933FCF04FF6F766572A2
:10719200BB38CB389A938A938A819B8135CF04FF7F
:1071A20064726F70C638D538899199912DCF03FFDB
:1071B200726F7400D038DD388C0129913991899130
:1071C20099913A932A931A930A931ECF03FF6E69F9
:1071D2007000D838EC38229617CF02FF723EE7389B
:1071E200F2389A938A938F919F910ECF02FF3E724B
:1071F200EE38FB389F938F938991999105CF02FFC7
:107202007240F73804399A938A938F919F919F9392
:107212008F93FACE02FF3C3E00390138C83F153940
:107222001B3802FF303D0B391639982BD1F530C08F
:1072320002FF303C12391D3997FD2AC032C002FFCD
:10724200303E19392439821593055CF151F120C081
:1072520003FF64303E0020392E398215930589914F
:10726200999182059305ECF0E1F012C003FF6430BE
:107272003C0029393C39229697FD0C9449390C94EB
:10728200523904FF74727565373947399A938A9374
:107292008FEF9FEFB9CE01FF3000423950399A93F8
:1072A2008A93C101B1CE02FF753C4C3958392991FC
:1072B200399182179307A8F3A1F3EACF02FF753E33
:1072C20054390138BF3857391B3801FF3C005F3948
:1072D2006A3929913991281739071CF7D9CF01FF4B
:1072E2003E00663974392991399128173907CCF251
:1072F200C1F2CECF04FF6C6F673270398039FC0166
:10730200992780E18A9522F0EE0FFF1FD8F77CCEF5
:107312009A957ACE01FF2D007B398F390991199107
:10732200081B190BC80170CE01FF2B008B3999394C
:1073320009911991800F911F67CE02FF6D2A95392D
:10734200A2398C01899199919C0131027001209F8F
:10735200C0013003F308900DE11CF31C1203F30883
:10736200900DE11CF31C9A938A93C7014DCE06FF40
:10737200756D2F6D6F649E39BE397C0129913991EB
:107382000991199140E15527000F111F221F331F48
:10739200551F2E153F05520518F003952E193F096A
:1073A2004A9589F73A932A93C8012ECE03FF756D49
:1073B2002A00B839DC398C0189919991809FF001BA
:1073C20022273327909FF00D211D331D819FF00D41
:1073D200211D331D919F200D311DCF019A938A9358
:1073E200C90112CE06FF696E76657274D739F93912
:1073F2008095909509CE02FF322FF339003A959588
:10740200879502CE02FF322AFC39073A880F991F6C
:10741200FBCD03FF616E6400033A0F3A09911991A3
:1074220080239123F1CD02FF6F720A3A183A099133
:107432001991802B912BE8CD03FF786F7200143ADB
:10744200223A0991199180279127DECD02FF312B33
:107452001D3A2B3A0196D8CD02FF312D273A313A07
:107462000197D2CD06FF6C73686966742D3A393A7A
:10747200FC018991999131971AF0880F991FFBCFDE
:10748200C3CD06FF727368696674333A483AFC01E9
:107492008991999131971AF096958795FBCFB4CD42
:1074A20002FF2B21423A553AFC01899199912081A0
:1074B2003181820F931F8083918389919991A4CD09
:1074C20003FF72704000513A663A9A938A938DB7DD
:1074D2009EB79ACD03FF72702100613A703A2FB7BE
:1074E200F8948DBF9EBF2FBF899199918DCD03FFD7
:1074F200737040006B3A7D3A9A938A93CE0184CDA1
:1075020003FF73702100783A863AEC0189919991D0
:107512007BCD8B3A29913991E0E83E0F821B930B88
:107522003F932F939F938F93899199916DCD01FFF3
:107532006900813A9C3A9A938A938F919F91EF9135
:10754200FF91FF93EF939F938F938E0F9F1F5CCDBD
:10755200AA3AEF91FF91E80FF91F899199911BF0D7
:10756200FF93EF9377CD0F911F9111964DCDB93ABD
:10757200EF91FF913196BBF3F3CF06FF756E6C6FFF
:107582006F70983AC43A1F910F911F910F913CCDA1
:1075920006FF636D6F76653EBE3ACF3ABF93AF93F7
:1075A200E991F991A991B991092F082B41F0E80FBE
:1075B200F91FA80FB91F1E9112930197E1F7AF911E
:1075C200BF918991999120CD02FF3E3CC93AE93A97
:1075D200092F982F802F18CD03FF75704000E53AD0
:1075E200F23A9A938A93C2010FCD03FF757021007C
:1075F200ED3AFB3A2C018991999106CD03FF316D49
:107602007300F63A043BE0EDF7E03197F1F7FCCC7A
:1076120003FF323E7200FF3A0E3BFC0189919991C1
:107622009F938F93FF93EF9389919991EDCC03FFF1
:1076320032723E00093B1D3B9A938A93EF91FF9170
:107642008F919F919A938A93CF01DECC02FF21659D
:10765200183B2B3BFC01899199912FB7F89428D0C4
:107662000DB3081709F00BD0319622D00DB30917CC
:1076720011F0892F04D02FBF89919991C5CCE1993E
:10768200FECF07B700FDFDCFFFBBEEBB8DBBE29A7D
:10769200E19A089502FF4065273B4F3B2FB7F894CC
:1076A200FC0106D08DB3319603D09DB32FBFACCC75
:1076B200E199FECFFFBBEEBBE09A089502FF21697C
:1076C2004B3BE03D5A00813D8B3D09FF2821692D4E
:1076D2006E72777729005F3B6E3B1FB71F93F8945A
:1076E2009C0189919991AF93BF93CF93DF9309D076
:1076F200DF91CF91BF91AF91899199911F911FBF56
:1077020083CC11D0E094F0948E219F21982B21F00C
:10771200B394F90102E020D0F90104E01DD0F9018F
:1077220000E11AD00895F901E07CFF7FEF01A0E4A7
:10773200B0E0FE01EE0FFF1F45915591FE01E217E9
:10774200F30711F00A0102C07A010C01002704D0EC
:107752002196119771F70895E199FECF17B710FDA1
:10776200FDCFEE0FFF1F016007BFE895089502FFEE
:107772004069663BBC3BFC01EE0FFF1F8591959172
:1077820043CC03FF6E3E7200B83BC73BFC01082F9F
:10779200899199919F938F930A95D1F7EF93FF93D4
:1077A2008991999131CC03FF6E723E00C23BD93B65
:1077B2009A938A93FF91EF910E2F8F919F919A93B3
:1077C2008A930A95D1F7CF011FCC03FF64322A00B6
:1077D200D43BEB3B09911991000F111F881F991F90
:1077E2001A930A9311CC03FF64322F00E63BF93B54
:1077F2000991199195958795179507951A930A936B
:1078020003CC02FF642BF43B063C29913991E990A9
:10781200F99049915991240F351F8E1D9F1D3A935E
:107822002A93F2CB02FF642D023C173C2991399135
:10783200E990F99049915991421B530BE80AF90AD0
:107842005A934A93C701E0CB07FF64696E7665726B
:107852007400133C2C3C09911991809590950095E8
:1078620010951A930A93D0CB04FF2F6D6F64253CB9
:107872003A3C9C0109911991412F432717FF04C0FB
:10788200109500950F5F1F4F37FF04C0309520956C
:107892002F5F3F4FEE24FF1851E1001F111F5A9531
:1078A20039F447FF04C0109500950F5F1F4F0BC0BE
:1078B200EE1CFF1CE21AF30A20F4E20EF31E889477
:1078C200ECCF0894EACFFA92EA92C8019DCB03FF6B
:1078D20061627300353C6D3C99231AF48095909552
:1078E200019692CB04FF7069636B683C01382A3AB7
:1078F200AD3E7C3A983974381B3805FF63656C6C71
:107902002B00733C843C02967FCB04FF2B696E7480
:107912007E3C8B3C789478CB04FF2D696E74863C58
:10792200923CF89471CB04FF696E74218D3C01384E
:107932003838000098392A3B1B3804FF696E7440BE
:10794200943C01383838000098394E3B1B3808FF08
:10795200696E742D747261709E3CAF3C80937600A8
:1079620089919991689450CB0138383876009338D0
:107972003838000098394E3B2538C03C1B38C13C92
:1079820001D042CB18950138AB030300206F6B0086
:10799200DE031B380138AB0302003E208A3FDE03C0
:1079A2001B380138AB030400203F3F20DE03A63E14
:1079B2007438FA382A3F6003CB3E74386003F138DA
:1079C200A63E7C381B3804FF71756974A83C0138E7
:1079D20023082A087C38A905853AB6056F3AB80803
:1079E200A03E743815393138F73CCB3CBC043138F1
:1079F200F13C3838F905513DB4383138093DAC38DD
:107A02003838FEFF69393138073DD23C2A38E93C23
:107A1200C43C2A38F13C1B3805FF70617573650060
:107A2200E43CE03DDD00953D9F3D04FF636F6C64E7
:107A32000D3D1B3DA4B62224332424BEE0E6F0E033
:107A42002192E036E9F7F830D9F7EFEDF0E02F01B7
:107A52000FE50DBF048318E01EBF1583CFE0C68378
:107A6200D8E0D783ABE3BDE3CFCA04FF7761726D81
:107A7200163D01387D0238387F013838123DC03D4D
:107A8200B808453FE83C07FF68616E646C657200A8
:107A9200363D53380A0005FF636174636800443D54
:107AA20001387C3AFA384A3D7438FA38653A4A3D28
:107AB2007C382538F1384A3D7C38F138D4384F3992
:107AC2001B3805FF7468726F77004C3D0138AC3883
:107AD200153931386E3DD4381B384A3D74386F3A07
:107AE200F1384A3D7C38F138BF38FA38853AD43813
:107AF200F1381B3807FF4564656665724000623DD8
:107B02000138BB3B4E3B1B3807FF45646566657217
:107B120021007B3D0138BB3B2A3B1B3807FF5264E7
:107B2200656665724000853D0138BB3B74381B3881
:107B320007FF52646566657221008F3D0138BB3BC9
:107B42007C381B3807FF5564656665724000993DB5
:107B52000138BB3BF13A983974381B3807FF55643A
:107B6200656665722100A33D0138BB3BF13A983945
:107B72007C381B3806FF646566657221AF3D0138AB
:107B8200B93FAC38AB01AB01BB3B25381B3806FF14
:107B9200646566657240BB3D0138B93FAC38AB01E4
:107BA200BB3B25381B3807FF2864656665722900D0
:107BB200C83D0138000760082307E03D1B380E94DA
:107BC2007908AC38AB01BB3B253825381B3802FF9E
:107BD200643DD43D0138163C173A15391B3802FF73
:107BE200752EE83D01384F3968031B3803FF752EA7
:107BF2007200F03D01384F39BF3871031B3805FF61
:107C0200752F6D6F6400F73D0138FA384F39F1383E
:107C1200BD391B3806FF6E6567617465003E013829
:107C2200F8392A3A1B3801FF2F000B3E0138393C44
:107C3200EB381B3803FF6D6F6400143E0138393C8A
:107C4200D4381B3803FF6D696E001B3E0138B23E0B
:107C5200733931382D3EBF38D4381B3803FF6D617C
:107C62007800233E0138B23E69393138393EBF3897
:107C7200D4381B3806FF77697468696E2F3E013865
:107C8200CA388E39FA388E39F13857391B380DFF18
:107C920073686F772D776F72646C697374003B3E03
:107CA20001383838573EBF38A0061B380138BB06AA
:107CB200DE03973F46391B3805FF776F7264730006
:107CC200483E0138383840004E3B513E1B380200D6
:107CD2002E225D3E0138733E2307DE031B3802006D
:107CE2007322683E0138383822006205A03E74389B
:107CF20031387C3E4F071B3804FF66696C6C703E5E
:107D02000138DC38DC38B43831388E3E823F8A3A6A
:107D1200AC389B3A8838B83A893ED4381B3805FFCC
:107D2200665F637075007D3E01383838001238385E
:107D32007A001B3805FF737461746500903E433806
:107D4200050104FF626173659B3E53380C0005FF19
:107D520063656C6C7300A23E073A04FF326475706F
:107D6200A83E0138CA38CA381B3805FF3264726F20
:107D72007000AE3E0138D438D4381B3804FF747515
:107D8200636BB63E0138BF38CA381B3803FF3E6901
:107D92006E00BF3E5338180003FF70616400C73E97
:107DA20001380C3F3838280098391B3804FF656DBC
:107DB2006974CD3EE03D0E00A93DB53D05FF656D00
:107DC20069743F00D73EE03D1000A93DB53D03FF79
:107DD2006B657900DF3EE03D1200A93DB53D04FF31
:107DE2006B65793FE83EE03D1400A93DB53D02FFD9
:107DF2006470F03E6A382C00813D8B3D05FF65685A
:107E020065726500F83E6A383000813D8B3D04FFA3
:107E120068657265FF3E6A382E00813D8B3D05FF25
:107E2200616C6C6F7400083F01380C3F98399901FE
:107E32000D3F1B3803FF62696E00103F0138D43FCB
:107E4200A63E7C381B3807FF646563696D616C0070
:107E52001B3F013838380A00A63E7C381B3803FF26
:107E620068657800243F013838381000A63E7C3817
:107E72001B3802FF626C303F4338200007FF7475E5
:107E8200726E6B6579003A3FE03D3600813D8B3D75
:107E920007FF746F7570706572003F3F0138AC3830
:107EA2003838610038387B00403E31385B3F383823
:107EB200DF000E3A1B3807FF746F6C6F7765720034
:107EC200493F0138AC383838410038385B00403E11
:107ED20031386E3F38382000173A1B3806FF3F739F
:107EE2007461636B5C3F0138C1051C3931387C3FDA
:107EF2003838FCFF673D1B3806FF626F756E64738E
:107F02006F3F0138CA389839BF381B3802FF637295
:107F12007D3F013838380D00DB3E38380A00DB3E41
:107F22001B3805FF737061636500873F01383D3F71
:107F3200DB3E1B3806FF737061636573923F013845
:107F42004F39333EAC383138AA3F973F303A2A385E
:107F5200A33FD4381B3803FF733E64009B3F0138B4
:107F6200AC381C391B3805FF3E626F647900AC3FA8
:107F72002B3A0800326C69746572616CB43F013847
:107F8200BF38440744071B3801FF3D00BA3F0138A0
:107F92008E3915391B3801FF3100C53F43380100C6
:107FA20001FF3200CC3F4338020002FF2D31D13FA6
:047FB2004338FFFF52
:00000001FF
