:020000020000FC
:0200040014D115
:0200080012D113
:02000C0010D111
:020010000ED10F
:020014000CD10D
:020018000AD10B
:02001C0008D109
:0200200006D107
:0200240004D105
:0200280002D103
:02002C0000D101
:02003000FED000
:02003400FCD0FE
:02003800FAD0FC
:02003C00F8D0FA
:02004000F6D0F8
:02004400F4D0F6
:02004800F2D0F4
:02004C00F0D0F2
:02005000EED0F0
:02005400ECD0EE
:02005800EAD0EC
:02005C00E8D0EA
:02006000E6D0E8
:10006400E4D00008000400701A000A0041546D65D1
:10007400676133323850AF93AFB7AF93BF93EF9309
:10008400FF93B091C600A0911201E0E0F1E0EA0F05
:10009400F31DB083A395AF70A0931201FF91EF916C
:0A00A400BF91AF91AFBFAF91189567
:0200480018C0DE
:1000AE0001384F393838120188384F393838140131
:1000BE0088381B3806FF72782D697372000001387C
:1000CE00800031386700383814019338AC382A3A3A
:1000DE0038380F000E3A3838140188383838000195
:1000EE00983993381B3807FF72783F2D6973720069
:1000FE0061000138123D3838140193383838120136
:10010E0093380E391B3807FF74782D706F6C6C00A6
:10011E007A0001389E00313891003838C600883890
:10012E001B3808FF74783F2D706F6C6C8A00013895
:10013E00123D3838C0009338383820000E3A1B383C
:10014E0004FF7562727298006A388400813D8B3D9F
:10015E0006FF2B7573617274A7000138383898004A
:10016E003838C1008838383806003838C200883828
:10017E00AB00AC38E83A3838C50088383838C40097
:10018E00883857001B3808FF31772E7265736574F7
:10019E00AF00D1009A938A939927249A2C98E0E87D
:1001AE00F7E03197F1F71FB7F8942C9A2498E0E016
:1001BE00F1E03197F1F783B184FF9FEF1FBF2498D1
:1001CE002C98E0E8F6E03197F1F7892F0C9405387A
:1001DE0007FF31772E736C6F7400CA00F600249AF5
:1001EE002C981FB7F894E8E1F0E03197F1F7889476
:1001FE00879510F424982C9AE4E2F0E03197F1F709
:10020E0003B104FD8068ECECF0E03197F1F724982F
:10021E002C9AE8E0F0E03197F1F71FBF0C94053807
:040000000C941B3D04
:10022E000A920FB60A920F900F900A94009216013E
:10023E0009900FBE09906894089502FF6D2BEF0090
:10024E000138B03F053C1B3803FF75642A002401BA
:10025E000138AC38FA38DB39D438BF38F138DB39ED
:10026E00DC3898391B3804FF756D61782B01013825
:10027E00B23E573931384401BF38D4381B3804FFE9
:10028E00756D696E3A010138B23E623931385001EE
:10029E00BF38D4381B380138383800800E3A15393B
:1002AE0031385C01383801001B3846391B380AFFDB
:1002BE006E616D653E666C61677346010138BB3BCE
:1002CE00383800FF0E3A1B3803FF766572005E0168
:1002DE000138C002E903973FA63E7438CE022A3F8A
:1002EE00B03F07030F0338382E00F8022503300302
:1002FE001F04A63E7C38973FD602E9031B3804FF45
:10030E006E6F6F706B0101381B3806FF756E75735B
:10031E006564860101387C3A0C3F8E391B38020029
:10032E00746F8C0101382E04B93FA03E74383138F9
:10033E00AA012E07A40139071B380138F138AC3851
:10034E00B601FA38BB3BAC38B601B601BB3B25381B
:10035E001B3807FF692D63656C6C2B009601013805
:10036E002A3A1B3808FF69636F6D70617265B001C0
:10037E000138FA38CA38F1380E393138CA01BB3E65
:10038E00D43846391B38BF384F39F8073138ED01AC
:10039E008A3ACA387438CA38BB3BAC383838000190
:1003AE0057393138DE01BF383838FF000E3A0E3972
:1003BE003138E501BB3E4639C33A1B382A3ABF38BD
:1003CE00833CBF3838380200A93AD001BB3E4F39C2
:1003DE001B3801FF2A00B9010138A139D4381B3866
:1003EE0001FF6A00F0010138653A38380700983984
:1003FE007438653A383809009839743898391B388A
:10040E0004FF64616273F7010138AC381C3931386E
:10041E00110218021B3807FF646E65676174650070
:10042E00070201382B3C383801004F39053C1B3888
:10043E0005FF636D6F76650012022502BF93AF93C1
:10044E00E991F991A991B991092F082B21F01D91EC
:10045E0011930197E1F7AF91BF91899199910C9406
:10046E00053805FF3273776170001F020138DC38E2
:10047E00FA38DC38F1381B380AFF726566696C6C25
:10048E002D74696238020138660238385A007604D3
:10049E006C027C384F39CB3E7C3846391B380AFF0C
:1004AE00736F757263652D7469624302013866025B
:1004BE006C0274381B3803FF7469620056024338AD
:1004CE00170104FF2374696262024338710106FF4B
:1004DE0065653E72616D680201384F398A3ACA38D5
:1004EE004E3BCA387C38833CBF38833CBF38B83A61
:1004FE007602BB3E1B3808FF696E69742D72616D02
:10050E006E02013838386800F13A38381C00FF396D
:10051E0073021B380BFF656E7669726F6E6D656EBA
:10052E00740082024338420009FF776F72646C696F
:10053E007374730000000138383808001B3804FF4C
:10054E002F7061649B0201387C3AD13E8E391B3884
:10055E0005FF2F686F6C6400A6020138D13E0C3F78
:10056E008E391B380AFF666F7274682D6E616D6569
:10057E00AF020138B6030700616D666F72746800D2
:10058E001B3807FF76657273696F6E00B90201380A
:10059E0038383D001B3803FF63707500C802013800
:1005AE003838370015041B3808FF6D63752D696EDA
:1005BE00666FD2020138383833001B3805FF2F75AD
:1005CE0073657200DB020138383826001B3803FFD2
:1005DE00686C640091024338730104FF686F6C64A9
:1005EE00EE020138F202AC387438303AAC38FA38D0
:1005FE00BF387C38F13888381B3802FF3C23F402B0
:10060E000138D13EF2027C381B3801FF230004036F
:10061E000138A63E74388C03DC3838380900CA38E5
:10062E00693931381D0338380700983938383000A9
:10063E009839F8021B3802FF23730C0301380F039D
:10064E00B23E173A1539313826031B3802FF233EC6
:10065E0022030138BB3EF2027438D13ECA388E39BD
:10066E001B3804FF7369676E2D0301381C3931384E
:10067E00430338382D00F8021B3803FF642E720036
:10068E0038030138FA38C33E0B0207032503DC3862
:10069E003C033003F138CA388E39A03F1F041B3893
:1006AE0002FF2E7244030138FA38B03FF138480386
:1006BE001B3802FF642E570301384F394803973F0A
:1006CE001B3801FF2E0060030138B03F63031B3857
:1006DE0003FF75642E00680301384F397C03973F82
:1006EE001B3804FF75642E726F030138FA38070346
:1006FE0025033003F138CA388E39A03F1F041B384A
:10070E0006FF75642F6D6F6478030138FA384F3920
:10071E000339BD39F138BF38FA38BD39F1381B38D5
:10072E0006FF64696769743F870301384F3FAC3831
:10073E00383839007339383800010E3A9839AC38E8
:10074E00383840017339383807010E3A8E39383847
:10075E0030008E39AC38A63E743857391B38013804
:10076E0003391504F138CA382A3AFF3998392A3A2A
:10077E00FA381B3802FF732C97030138AC38C803C4
:10078E001B3801383907AC38FF39C33E063A8E396B
:10079E00FA384F39F8073138DB038A3AAC387438F7
:1007AE003907833CB83AD503F13823393138E2039F
:1007BE00AC3893383907D4381B3805FF6974797013
:1007CE006500C1030138AC38FF39C33E063A8E3995
:1007DE00FA384F39F8073138FD038A3AAC38BB3B4B
:1007EE00AC380A0406042A3AB83AF503F13823392C
:1007FE0031380404AC38BB3B0A04D4381B380138FA
:10080E00E83A0A041B3801383838FF000E3ADB3E4E
:10081E001B3806FF69636F756E74E4030138AC38DC
:10082E002A3ABF38BB3B1B3804FF7479706510043D
:10083E000138823FF80731382A048A3A9B3A9338B6
:10084E00DB3EB83A25041B3801FF27001B04013894
:10085E009A05DC055206C83F31383704D4381B38A8
:10086E003838F3FF673D05FF63736B6970002B0427
:10087E000138FA38AC3831384E04CA389338033957
:10088E00C83F31384E04CF3F8B052A384104F1382A
:10089E00D4381B3805FF637363616E003A04013868
:1008AE00FA38CA38AC3893380339C83F153931385D
:1008BE006B04BF38303ABF38CA381C391539313855
:1008CE006B042A3A2A385904EB38CA388E39F13873
:1008DE00D4381B3806FF61636365707451040138A8
:1008EE00CA389839303ACA38EC3EAC38B7041539A4
:1008FE003138A904AC3838380800C83F313899046B
:10090E00D438DC38B23E7339FA38DC38DC38F1389A
:10091E0031389704AF04303AFA38CA38F1383E010C
:10092E002A38A704AC383D3F69393138A004D43891
:10093E003D3FAC38DB3ECA3888382A3ACA384A01BD
:10094E002A387B04D438EB38BF388E398A3F1B38AF
:10095E00013838380800AC38DB3E973FDB3E1B3899
:10096E000138AC3838380D00C83FBF3838380A0067
:10097E00C83F173A1B3806FF726566696C6C7104C6
:10098E00E03D1A00A93DB53D04FF63686172C204E3
:10099E0001389A05D43893381B3806FF6E756D6290
:1009AE006572CB040138A63E7438FA381D05FA3844
:1009BE0030051D05F138173AFA38AC38153931388B
:1009CE00F004BB3EF138D438F138A63E7C384F39AE
:1009DE001B380D3B4F394F391C3B4E05B43831385F
:1009EE001205CF3FC83F31380905933838382E00ED
:1009FE00C83F31380A05F138313806051802D43FA0
:100A0E002A381805D438BB3EF138D438F138A63E12
:100A1E007C384F391B38BB3EF13831381705103E44
:100A2E00CF3FF138A63E7C3846391B380138CA38DC
:100A3E00933838382D00C83FAC38FA38313829058C
:100A4E00CF3F8B05F1381B384D380A0010000200DD
:100A5E000A000138CA389338383823008E39AC383A
:100A6E004F3938380400403E313846052B05983949
:100A7E00BB3BA63E7C38CF3F8B052A384705D43882
:100A8E001B3807FF3E6E756D62657200D404013827
:100A9E00AC3831386705CA3893389C03153931386C
:100AAE005A05D4381B38FA383D02A63E74382F0149
:100ABE00F13827013D02383801008B052A384F05E1
:100ACE001B3805FF70617273650048050138FA38EE
:100ADE008105CB3E74388B05F1385604AC382A3A72
:100AEE00CB3E543ACF3F8B051B3806FF736F7572A2
:100AFE0063656805E03D1600A93DB53D07FF2F7300
:100B0E007472696E67007C050138DC38CA38983912
:100B1E00DC38DC388E391B380AFF70617273652D34
:100B2E006E616D65850501383D3F9E051B380138A8
:100B3E00FA388105CB3E74388B0503393F04F13802
:100B4E005604B23E98398105D4388E39CB3E7C3866
:100B5E001B3803FF7370300093056A380600A93DF9
:100B6E00B53D02FF7370B0055338080003FF727075
:100B7E003000B8050138C50574381B3853380400E9
:100B8E0005FF646570746800BD050138B4057C3AD4
:100B9E008E39FF39303A1B380DFF646F2D72656345
:100BAE006F676E697A657200C70501383838E805D7
:100BBE0038385A00720915393138E705BB3E6706D9
:100BCE001B380138DC38DC38B23E0D3BDC382538BA
:100BDE001C3BDC38AC386706C83F3138F905D438D1
:100BEE004F391B38EB38EB3846391B3809FF696E25
:100BFE007465727072657400D30501389A05AC384D
:100C0E0031381406DC05A03E743831380F06B601B3
:100C1E00BB3B2538743F2A380506BB3E1B3805FF03
:100C2E00723A6E756D00FD054D388A014F074F07FC
:100C3E0006FF723A646E756D16064D388A01C03F16
:100C4E00C03F07FF7265633A6E756D001F0601386F
:100C5E00D90431383A06CF3FC83F313838061B0623
:100C6E001B3824061B3867061B3808FF7265633A6B
:100C7E00776F726428060138DD06AC3815393138C5
:100C8E004B06D43867061B3852061B3806FF723ADD
:100C9E00776F72643C064D3856065A06C03F0138CF
:100CAE00D43825381B3801381C39313860063907DD
:100CBE001B3825381B3806FF723A6661696C4D0683
:100CCE004D386B066B066B0601383838F3FF673DFF
:100CDE000FFF7365617263682D776F72646C697351
:100CEE00740062060138FA384F3938388E06F138FA
:100CFE00AB06AC38153931388806BB3ED4384F397F
:100D0E001B38AC38D206BF38650152011B3801388A
:100D1E00FA38D438B23E0339C606BF0131389C06C4
:100D2E00F138D4384F3946391B38BB3EF1384F397C
:100D3E001B3811FF74726176657273652D776F7251
:100D4E00646C697374006F0601384E3BAC383138F1
:100D5E00BC06B23E0D3BBF3825381C3BDC38313863
:100D6E00BC06D809BB3B2A38AD06BB3E1B380BFF71
:100D7E006E616D653E737472696E6700A006013810
:100D8E0015043838FF000E3A1B3807FF6E66613EB9
:100D9E0063666100BE060138D8092A3A1B3809FF7E
:100DAE0066696E642D6E616D6500CC06013838384B
:100DBE00E90638384800720915393138E806BB3E65
:100DCE004F391B380138FA38B23EF1387906AC3853
:100DDE003138F606FA38EB38EB38F13846391B382D
:100DEE0006FF6E6577657374D6064338750106FF88
:100DFE006C6174657374F7064338790108FF2863D4
:100E0E00726561746529FE0601389A056208AC3870
:100E1E00FC06833C7C384708FC067C381B380100F6
:100E2E005C00050701388105EB38CB3E7C381B385A
:100E3E000100280016070138383829006D05BB3E21
:100E4E001B3807FF636F6D70696C65001F070138F3
:100E5E00F138AC38B601FA38BB3B39071B3801FF05
:100E6E002C0028070138FB3E623BFB3E2A3AA401C8
:100E7E00FC3E1B3803005B275D00360701382E044D
:100E8E004F071B3807006C69746572616C0041076F
:100E9E0001382E07383839071B380800736C69740F
:100EAE006572616C490701382E07B603C4031B38FF
:100EBE000138FB3E2E07FFFF1B380138743FFB3E07
:100ECE00BF38623B1B380138FB3E1B380138743F7C
:100EDE0039071B38050061686561640054070138E5
:100EEE002E072A385F071B38020069667107013822
:100EFE002E0731385F071B380400656C73657B075E
:100F0E0001382E072A385F07BF3864071B380400E4
:100F1E007468656E8307013864071B3805006265C7
:100F2E0067696E008E0701386A071B3805007768FF
:100F3E00696C6500950701387E07BF381B380600BF
:100F4E007265706561749D070138BF0792071B3883
:100F5E000500756E74696C00A60701383838313893
:100F6E0039076D071B380500616761696E00AF07B1
:100F7E0001382E072A386D071B380200646FBA0736
:100F8E0001382E078A3A6A074F3922081B380400A7
:100F9E006C6F6F70C40701382E07B83A09081B38FA
:100FAE0005002B6C6F6F7000CE0701382E07A93A23
:100FBE0009081B3805006C6561766500D707013896
:100FCE002E07C33A760722081B3803003F646F00D2
:100FDE00E10701382E07F8077E07C707BF3822083A
:100FEE001B380138B23EC83FAC38FA3831380008E9
:100FFE00BB3EF138F8391B3807FF656E646C6F6FB6
:10100E007000EC0701386D071608B4383138120835
:10101E0092072A380B081B3802FF6C3E0308013872
:10102E003508743874383838FEFF3508543A1B3892
:10103E0002FF3E6C13080138D43F3508543A350888
:10104E0074387C381B3803FF6C7030001F086A3808
:10105E003E00813D8B3D02FF6C702A0843387B01B8
:10106E0006FF637265617465320801380B076B0801
:10107E002E074D381B3806FF6865616465723708A8
:10108E000138FB3EFA38FA38AC3823393138590872
:10109E00AC38383800FF173AC803F1384E3B3907E1
:1010AE00F1381B383838F0FF673D07FF776C7363F4
:1010BE006F7065004208E03D3C00813D8B3D06FFB0
:1010CE0072657665616C5C080138FC06833C743889
:1010DE00B43831387608FC067438BF382A3B1B38D2
:1010EE000500646F65733E00660801382E078F0891
:1010FE002E070E942E0784081B389A938A93CB01E1
:10110E0001967F916F91BF93AF93DB010C940538DD
:10111E000138F138FC06833C74384E3BD206623BF4
:10112E001B3801FF3A00770801380B07A608D438A0
:10113E001B3807FF3A6E6F6E616D650098080138B7
:10114E00FB3EAC3803077C382E070138BB081B3832
:10115E0001003B00A00801382E071B38C3086B089E
:10116E001B3801FF5D00AF080138CF3FA03E7C3831
:10117E001B3801005B00B80801384F39A03E7C389F
:10118E001B3808FF7661726961626C65C0080138B0
:10119E000C3FDA08D43F153F1B3808FF636F6E73A0
:1011AE0074616E74C80801380B076B082E0743383C
:1011BE0039071B3804FF75736572D40801380B07A5
:1011CE006B082E07533839071B3807007265637595
:1011DE0072736500E10801380307743839071B384C
:1011EE0009FF696D6D65646961746500EC0801380D
:1011FE0099094E3BAC38BB3B3838FF7F0E3ABF38AF
:10120E00623B1B3806005B636861725DF70801384C
:10121E002E073838CF0439071B38060061626F720B
:10122E00742209090138733E2E072B091B3805FF5E
:10123E0061626F727400140901384639673D06FF0A
:10124E003F61626F72741E090138DC383138310922
:10125E00E9032309BB3E1B3809FF6765742D7374C0
:10126E0061636B0026090138AC38833CBF384E3BB6
:10127E00AC38FA384F39BF38F807313851098A3A45
:10128E009B3A303AAD3ECA3898394E3BBF38463954
:10129E00A93A4709BB3EF1381B3809FF7365742D17
:1012AE00737461636B0033090138B23E2A3BBF3859
:1012BE004F39F807313869098A3A833CC33E2A3BD5
:1012CE00B83A6409D4381B3809FF6D61702D7374F8
:1012DE0061636B0054090138AC38833CBF384E3B18
:1012EE00AD3E823FF80731388E098A3A9B3A4E3B23
:1012FE00BF38FA3803392538B43831388A09F1380D
:10130E00D438C33A1B38F138D43FA93A7D09D438C2
:10131E004F391B380BFF6765742D63757272656EDE
:10132E0074006B090138383844004E3B1B3809FFF6
:10133E006765742D6F7264657200910901383838D3
:10134E0048003A091B3807FF636F6D7061726500C4
:10135E009E09B109BF93AF938C0189919991DC01DC
:10136E00899199919C0189919991FC01ED90F1904F
:10137E00EF1451F40A9519F02A95C1F701C02A9578
:10138E00022B11F4882702C08FEF00C0982FAF9167
:10139E00BF910C94053807FF6E66613E6C66610066
:1013AE00AA090138C6062A3AFF3998391B3802FFB6
:1013BE002E73D2090138CC05F33D973FCC054F393A
:1013CE00F8073138F0098A3A9B3A773CF33DB83A40
:1013DE00EB091B3806FF632140737069DE09F709BC
:1013EE0003D099270C9405388EBD0DB5087F0DBD21
:1013FE000DB507FFFACF8EB5089505FF6E407370D9
:10140E006900F1090A0A8C0189919991FC01C801C0
:10141E002EBC2DB527FFFDCF2EB521930197C1F719
:10142E00899199910C94053805FF6E2173706900AE
:10143E00040A210A8C0189919991FC01C80121911C
:10144E002EBD2DB527FFFDCF2EB50197C1F7899182
:10145E0099910C9405380BFF6170706C7475726EF7
:10146E006B6579001B0A0138B4008A3C6F01973F07
:10147E00953E3838E803BD39EB382A3F6B03B60387
:10148E0004006B487A20E9031B380BFF7365742D3B
:10149E0063757272656E7400320A01383838440012
:1014AE002A3B1B3808FF776F72646C6973744C0AA1
:1014BE000138043F4F39CA382A3BAC38833CA4016B
:1014CE00053F1B380EFF666F7274682D776F72645E
:1014DE006C697374590A4338460009FF7365742D9D
:1014EE006F7264657200690A0138383848005B090A
:1014FE001B380FFF7365742D7265636F676E697AA3
:10150E0065727300740A013838385A005B091B384B
:10151E000FFF6765742D7265636F676E697A65720A
:10152E007300800A013838385A003A091B3804FF14
:10153E00636F64658F0A01380B076B08FB3EB601BB
:10154E0039071B3808FF656E642D636F64659E0A4C
:10155E0001382E070C942E0705381B3808FF286D0E
:10156E0061726B657229A90A6A386600813D8B3DEE
:10157E000800706F7374706F6E65B50A01389A0546
:10158E00DC05AC38FA38B601B601BB3B2538F1386C
:10159E00B601BB3B39071B3803FF32724000BF0A4E
:1015AE00D80A9A938A93EF91FF918F919F919F936F
:1015BE008F93FF93EF939A938A93CF010C940538F0
:10700200BF93AF93DB0111966EF0FD01EE0FFF1FF0
:10701200659175911196FB01EE0FFF1F0591159178
:10702200F8010994E89465EB7CE3F5CF04FF6578F9
:107032006974D30A1C38AF91BF91E6CF07FF657818
:1070420065637574650017382638BC01899199917A
:10705200E2CF2B38FD01EE0FFF1FA591B591D4CFE2
:107062003238982B89919991A9F31196CDCF39385D
:107072009A938A93FD01EE0FFF1F859195911196C8
:10708200C3CF43389A938A93FB013196EE0FFF1FC9
:1070920085919591B9CF4D389A938A93CB010196F8
:1070A200B3CF53389A938A93FB013196EE0FFF1FA9
:1070B20085919591840D951DA7CF07FF2876616C68
:1070C200756529001F3801380B076B082E076A38CF
:1070D2001B380E948408AC38B601BB3B25381B38EC
:1070E20001FF40005E387538FC01819191918CCF8F
:1070F20001FF210071387D38FC01899199919183BA
:1071020080838991999180CF02FF632179388938F0
:10711200FC018991999180838991999175CF02FFA0
:10712200634085389438FC01992780816DCF02FF36
:10713200407590380138F13A983974381B3802FF9B
:10714200217598380138F13A98397C381B3803FF99
:1071520064757000A038AD389A938A9355CF04FFB6
:107162003F647570A838B538082F092B11F09A932F
:107172008A934ACF04FF73776170B038C0388C01AC
:10718200899199911A930A933FCF04FF6F766572A2
:10719200BB38CB389A938A938A819B8135CF04FF7F
:1071A20064726F70C638D538899199912DCF03FFDB
:1071B200726F7400D038DD388C0129913991899130
:1071C20099913A932A931A930A931ECF03FF6E69F9
:1071D2007000D838EC38229617CF02FF723EE7389B
:1071E200F2389A938A938F919F910ECF02FF3E724B
:1071F200EE38FB389F938F938991999105CF02FFC7
:107202007240F73804399A938A938F919F919F9392
:107212008F93FACE02FF3C3E00390138C83F153940
:107222001B3802FF303D0B391639982BD1F530C08F
:1072320002FF303C12391D3997FD2AC032C002FFCD
:10724200303E19392439821593055CF151F120C081
:1072520003FF64303E0020392E398215930589914F
:10726200999182059305ECF0E1F012C003FF6430BE
:107272003C0029393C39229697FD0C9449390C94EB
:10728200523904FF74727565373947399A938A9374
:107292008FEF9FEFB9CE01FF3000423950399A93F8
:1072A2008A93C101B1CE02FF753C4C3958392991FC
:1072B200399182179307A8F3A1F3EACF02FF753E33
:1072C20054390138BF3857391B3801FF3C005F3948
:1072D2006A3929913991281739071CF7D9CF01FF4B
:1072E2003E00663974392991399128173907CCF251
:1072F200C1F2CECF04FF6C6F673270398039FC0166
:10730200992780E18A9522F0EE0FFF1FD8F77CCEF5
:107312009A957ACE01FF2D007B398F390991199107
:10732200081B190BC80170CE01FF2B008B3999394C
:1073320009911991800F911F67CE02FF6D2A95392D
:10734200A2398C01899199919C0131027001209F8F
:10735200C0013003F308900DE11CF31C1203F30883
:10736200900DE11CF31C9A938A93C7014DCE06FF40
:10737200756D2F6D6F649E39BE397C0129913991EB
:107382000991199140E15527000F111F221F331F48
:10739200551F2E153F05520518F003952E193F096A
:1073A2004A9589F73A932A93C8012ECE03FF756D49
:1073B2002A00B839DC398C0189919991809FF001BA
:1073C20022273327909FF00D211D331D819FF00D41
:1073D200211D331D919F200D311DCF019A938A9358
:1073E200C90112CE06FF696E76657274D739F93912
:1073F2008095909509CE02FF322FF339003A959588
:10740200879502CE02FF322AFC39073A880F991F6C
:10741200FBCD03FF616E6400033A0F3A09911991A3
:1074220080239123F1CD02FF6F720A3A183A099133
:107432001991802B912BE8CD03FF786F7200143ADB
:10744200223A0991199180279127DECD02FF312B33
:107452001D3A2B3A0196D8CD02FF312D273A313A07
:107462000197D2CD06FF6C73686966742D3A393A7A
:10747200FC018991999131971AF0880F991FFBCFDE
:10748200C3CD06FF727368696674333A483AFC01E9
:107492008991999131971AF096958795FBCFB4CD42
:1074A20002FF2B21423A553AFC01899199912081A0
:1074B2003181820F931F8083918389919991A4CD09
:1074C20003FF72704000513A663A9A938A938DB7DD
:1074D2009EB79ACD03FF72702100613A703A2FB7BE
:1074E200F8948DBF9EBF2FBF899199918DCD03FFD7
:1074F200737040006B3A7D3A9A938A93CE0184CDA1
:1075020003FF73702100783A863AEC0189919991D0
:107512007BCD8B3A29913991E0E83E0F821B930B88
:107522003F932F939F938F93899199916DCD01FFF3
:107532006900813A9C3A9A938A938F919F91EF9135
:10754200FF91FF93EF939F938F938E0F9F1F5CCDBD
:10755200AA3AEF91FF91E80FF91F899199911BF0D7
:10756200FF93EF9377CD0F911F9111964DCDB93ABD
:10757200EF91FF913196BBF3F3CF06FF756E6C6FFF
:107582006F70983AC43A1F910F911F910F913CCDA1
:1075920006FF636D6F76653EBE3ACF3ABF93AF93F7
:1075A200E991F991A991B991092F082B41F0E80FBE
:1075B200F91FA80FB91F1E9112930197E1F7AF911E
:1075C200BF918991999120CD02FF3E3CC93AE93A97
:1075D200092F982F802F18CD03FF75704000E53AD0
:1075E200F23A9A938A93C2010FCD03FF757021007C
:1075F200ED3AFB3A2C018991999106CD03FF316D49
:107602007300F63A043BE0EAFFE03197F1F7FCCC75
:1076120003FF323E7200FF3A0E3BFC0189919991C1
:107622009F938F93FF93EF9389919991EDCC03FFF1
:1076320032723E00093B1D3B9A938A93EF91FF9170
:107642008F919F919A938A93CF01DECC02FF21659D
:10765200183B2B3BFC01899199912FB7F89428D0C4
:1076620000B5081709F00BD0319622D000B50917E2
:1076720011F0892F04D02FBF89919991C5CCF99926
:10768200FECF07B700FDFDCFF2BDE1BD80BDFA9A86
:10769200F99A089502FF4065273B4F3B2FB7F894B4
:1076A200FC0106D080B5319603D090B52FBFACCC8B
:1076B200F999FECFF2BDE1BDF89A089502FF216962
:1076C2004B3BE03D6400813D8B3D09FF2821692D44
:1076D2006E72777729005F3B6E3B1FB71F93F8945A
:1076E2009C0189919991AF93BF93CF93DF9309D076
:1076F200DF91CF91BF91AF91899199911F911FBF56
:1077020083CC11D0E094F0948E219F21982B21F00C
:10771200B394F90102E020D0F90104E01DD0F9018F
:1077220000E11AD00895F901E07CFF7FEF01A0E4A7
:10773200B0E0FE01EE0FFF1F45915591FE01E217E9
:10774200F30711F00A0102C07A010C01002704D0EC
:107752002196119771F70895F999FECF17B710FD89
:10776200FDCFEE0FFF1F016007BFE895089502FFEE
:107772004069663BBC3BFC01EE0FFF1F8591959172
:1077820043CC03FF6E3E7200B83BC73BFC01082F9F
:10779200899199919F938F930A95D1F7EF93FF93D4
:1077A2008991999131CC03FF6E723E00C23BD93B65
:1077B2009A938A93FF91EF910E2F8F919F919A93B3
:1077C2008A930A95D1F7CF011FCC03FF64322A00B6
:1077D200D43BEB3B09911991000F111F881F991F90
:1077E2001A930A9311CC03FF64322F00E63BF93B54
:1077F2000991199195958795179507951A930A936B
:1078020003CC02FF642BF43B063C29913991E990A9
:10781200F99049915991240F351F8E1D9F1D3A935E
:107822002A93F2CB02FF642D023C173C2991399135
:10783200E990F99049915991421B530BE80AF90AD0
:107842005A934A93C701E0CB07FF64696E7665726B
:107852007400133C2C3C09911991809590950095E8
:1078620010951A930A93D0CB04FF2F6D6F64253CB9
:107872003A3C9C0109911991412F432717FF04C0FB
:10788200109500950F5F1F4F37FF04C0309520956C
:107892002F5F3F4FEE24FF1851E1001F111F5A9531
:1078A20039F447FF04C0109500950F5F1F4F0BC0BE
:1078B200EE1CFF1CE21AF30A20F4E20EF31E889477
:1078C200ECCF0894EACFFA92EA92C8019DCB03FF6B
:1078D20061627300353C6D3C99231AF48095909552
:1078E200019692CB04FF7069636B683C01382A3AB7
:1078F200AD3E7C3A983974381B3805FF63656C6C71
:107902002B00733C843C02967FCB04FF2B696E7480
:107912007E3C8B3C789478CB04FF2D696E74863C58
:10792200923CF89471CB04FF696E74218D3C01384E
:107932003838000098392A3B1B3804FF696E7440BE
:10794200943C01383838000098394E3B1B3808FF08
:10795200696E742D747261709E3CAF3C8093160107
:1079620089919991689450CB01383838160193382F
:107972003838000098394E3B2538C03C1B38C13C92
:1079820001D042CB18950138B6030300206F6B007B
:10799200E9031B380138B60302003E208A3FE9039F
:1079A2001B380138B6030400203F3F20E903A63EFE
:1079B2007438FA382A3F6B03CB3E74386B03F138C4
:1079C200A63E7C381B3804FF71756974A83C0138E7
:1079D2002E0835087C38B405853AC1056F3AC308CC
:1079E200A03E743815393138F73CCB3CC7043138E6
:1079F200F13C38380406513DB4383138093DAC38D1
:107A02003838FEFF69393138073DD23C2A38E93C23
:107A1200C43C2A38F13C1B3805FF70617573650060
:107A2200E43CE03D7D01953D9F3D04FF636F6C6446
:107A32000D3D1B3DA4B62224332424BEE0E0F1E038
:107A42002192E030E9F7F930D9F7EFE7F1E02F01C1
:107A52000FEF0DBF048318E01EBF1583CFEAC68364
:107A6200D8E0D783ABE3BDE3CFCA04FF7761726D81
:107A7200163D0138880238388A013838123DC03D37
:107A8200C308453FE83C07FF68616E646C6572009D
:107A9200363D53380A0005FF636174636800443D54
:107AA20001387C3AFA384A3D7438FA38653A4A3D28
:107AB2007C382538F1384A3D7C38F138D4384F3992
:107AC2001B3805FF7468726F77004C3D0138AC3883
:107AD200153931386E3DD4381B384A3D74386F3A07
:107AE200F1384A3D7C38F138BF38FA38853AD43813
:107AF200F1381B3807FF4564656665724000623DD8
:107B02000138BB3B4E3B1B3807FF45646566657217
:107B120021007B3D0138BB3B2A3B1B3807FF5264E7
:107B2200656665724000853D0138BB3B74381B3881
:107B320007FF52646566657221008F3D0138BB3BC9
:107B42007C381B3807FF5564656665724000993DB5
:107B52000138BB3BF13A983974381B3807FF55643A
:107B6200656665722100A33D0138BB3BF13A983945
:107B72007C381B3806FF646566657221AF3D0138AB
:107B8200B93FAC38B601B601BB3B25381B3806FFFE
:107B9200646566657240BB3D0138B93FAC38B601D9
:107BA200BB3B25381B3807FF2864656665722900D0
:107BB200C83D01380B076B082E07E03D1B380E94B9
:107BC2008408AC38B601BB3B253825381B3802FF88
:107BD200643DD43D0138163C173A15391B3802FF73
:107BE200752EE83D01384F3973031B3803FF752E9C
:107BF2007200F03D01384F39BF387C031B3805FF56
:107C0200752F6D6F6400F73D0138FA384F39F1383E
:107C1200BD391B3806FF6E6567617465003E013829
:107C2200F8392A3A1B3801FF2F000B3E0138393C44
:107C3200EB381B3803FF6D6F6400143E0138393C8A
:107C4200D4381B3803FF6D696E001B3E0138B23E0B
:107C5200733931382D3EBF38D4381B3803FF6D617C
:107C62007800233E0138B23E69393138393EBF3897
:107C7200D4381B3806FF77697468696E2F3E013865
:107C8200CA388E39FA388E39F13857391B380DFF18
:107C920073686F772D776F72646C697374003B3E03
:107CA20001383838573EBF38AB061B380138C60694
:107CB200E903973F46391B3805FF776F72647300FB
:107CC200483E013838384A004E3B513E1B380200CC
:107CD2002E225D3E0138733E2E07E9031B38020057
:107CE2007322683E0138383822006D05A03E743890
:107CF20031387C3E5A071B3804FF66696C6C703E53
:107D02000138DC38DC38B43831388E3E823F8A3A6A
:107D1200AC389B3A8838B83A893ED4381B3805FFCC
:107D2200665F637075007D3E01383838002438384C
:107D3200F4001B3805FF737461746500903E43388C
:107D4200A50104FF626173659B3E53380C0005FF79
:107D520063656C6C7300A23E073A04FF326475706F
:107D6200A83E0138CA38CA381B3805FF3264726F20
:107D72007000AE3E0138D438D4381B3804FF747515
:107D8200636BB63E0138BF38CA381B3803FF3E6901
:107D92006E00BF3E5338180003FF70616400C73E97
:107DA20001380C3F3838280098391B3804FF656DBC
:107DB2006974CD3EE03D0E00A93DB53D05FF656D00
:107DC20069743F00D73EE03D1000A93DB53D03FF79
:107DD2006B657900DF3EE03D1200A93DB53D04FF31
:107DE2006B65793FE83EE03D1400A93DB53D02FFD9
:107DF2006470F03E6A383600813D8B3D05FF656850
:107E020065726500F83E6A383A00813D8B3D04FF99
:107E120068657265FF3E6A383800813D8B3D05FF1B
:107E2200616C6C6F7400083F01380C3F9839A401F3
:107E32000D3F1B3803FF62696E00103F0138D43FCB
:107E4200A63E7C381B3807FF646563696D616C0070
:107E52001B3F013838380A00A63E7C381B3803FF26
:107E620068657800243F013838381000A63E7C3817
:107E72001B3802FF626C303F4338200007FF7475E5
:107E8200726E6B6579003A3FE03D4000813D8B3D6B
:107E920007FF746F7570706572003F3F0138AC3830
:107EA2003838610038387B00403E31385B3F383823
:107EB200DF000E3A1B3807FF746F6C6F7765720034
:107EC200493F0138AC383838410038385B00403E11
:107ED20031386E3F38382000173A1B3806FF3F739F
:107EE2007461636B5C3F0138CC051C3931387C3FCF
:107EF2003838FCFF673D1B3806FF626F756E64738E
:107F02006F3F0138CA389839BF381B3802FF637295
:107F12007D3F013838380D00DB3E38380A00DB3E41
:107F22001B3805FF737061636500873F01383D3F71
:107F3200DB3E1B3806FF737061636573923F013845
:107F42004F39333EAC383138AA3F973F303A2A385E
:107F5200A33FD4381B3803FF733E64009B3F0138B4
:107F6200AC381C391B3805FF3E626F647900AC3FA8
:107F72002B3A0800326C69746572616CB43F013847
:107F8200BF384F074F071B3801FF3D00BA3F01388A
:107F92008E3915391B3801FF3100C53F43380100C6
:107FA20001FF3200CC3F4338020002FF2D31D13FA6
:047FB2004338FFFF52
:00000001FF
