:020000020000FC
:0200040018D111
:0200080016D10F
:02000C0014D10D
:0200100012D10B
:0200140010D109
:020018000ED107
:02001C000CD105
:020020000AD103
:0200240008D101
:0200280006D1FF
:02002C0004D1FD
:0200300002D1FB
:0200340000D1F9
:02003800FED0F8
:02003C00FCD0F6
:02004000FAD0F4
:02004400F8D0F2
:02004800F6D0F0
:02004C00F4D0EE
:02005000F2D0EC
:02005400F0D0EA
:02005800EED0E8
:02005C00ECD0E6
:02006000EAD0E4
:02006400E8D0E2
:02006800E6D0E0
:10006C00E4D00010000800E01C00090041546D654C
:10007C00676136343400AF93AFB7AF93BF93EF9350
:10008C00FF93B091C600A0911201E0E0F1E0EA0FFD
:10009C00F31DB083A395AF70A0931201FF91EF9164
:0A00AC00BF91AF91AFBFAF9118955F
:0200500018C0D6
:1000B60001704F713870120188704F7138701401D9
:1000C60088701B7006FF72782D69737200000170CC
:1000D600840031706B00387014019370AC702A7212
:1000E60038700F000E723870140188703870000175
:1000F600987193701B7007FF72783F2D69737200B9
:1001060065000170357A38701401937038701201E9
:1001160093700E711B7007FF74782D706F6C6C00F6
:100126007E000170A200317095003870C60088709C
:100136001B7008FF74783F2D706F6C6C8E00017019
:10014600357A3870C0009370387020000E721B70BC
:1001560004FF756272729C006A708800897B937BCB
:1001660006FF2B7573617274AB00017038709800CE
:100176003870C1008870387006003870C200887008
:10018600AF00AC70E8723870C50088703870C40073
:1001960088705B001B7008FF31772E72657365747B
:1001A600B300D5009A938A939927249A2C98E0E86D
:1001B600F7E03197F1F71FB7F8942C9A2498E0E00E
:1001C600F1E03197F1F783B184FF9FEF1FBF2498C9
:1001D6002C98E0E8F6E03197F1F7892F0C9405703A
:1001E60007FF31772E736C6F7400CE00FA00249AE5
:1001F6002C981FB7F894E8E1F0E03197F1F788946E
:10020600879510F424982C9AE4E2F0E03197F1F700
:1002160003B104FD8068ECECF0E03197F1F7249827
:100226002C9AE8E0F0E03197F1F71FBF0C940570C7
:040000000C943E7AA4
:100236000A920FB60A920F900F900A940092160136
:1002460009900FBE09906894089502FF6D2BF30084
:1002560001703D7D05741B7003FF75642A0028013B
:100266000170AC70FA70DB71D470BF70F170DB7125
:10027600DC7098711B7004FF756D61782F01017039
:100286006575577131704801BF70D4701B7004FFDB
:10029600756D696E3E01017065756271317054014C
:1002A600BF70D4701B700170387000800E721571AB
:1002B60031706001387001001B7046711B700AFFB7
:1002C6006E616D653E666C6167734A010170BB7352
:1002D600387000FF0E721B7006FF6E6577657374CB
:1002E60062014370170106FF6C61746573746F01D8
:1002F60043701B0108FF28637265617465297601E6
:100306000170B079DA02AC7074015E757C70BF0260
:1003160074017C701B7001005C007D01017097798F
:10032600EB707E757C701B70010028008E010170D9
:100336003870290083796E751B7007FF636F6D70C7
:10034600696C650097010170F170AC70807BFA7082
:10035600BB73B1011B7001FF2C00A0010170AE75CB
:100366006273AE752A726E7BAF751B7003005B27D6
:100376005D00AE0101700D78C7011B7007006C6946
:10038600746572616C00B9010170A6013870B10123
:100396001B700800736C69746572616CC101017031
:1003A600A60170777E771B700170AE75A601FFFF00
:1003B6001B7001702C7BAE75BF7062731B70017071
:1003C600AE751B7001702C7BB1011B700500616856
:1003D60065616400CC010170A6012A70D7011B700B
:1003E60002006966E9010170A6013170D7011B7030
:1003F6000400656C7365F3010170A6012A70D701CC
:10040600BF70DC011B7004007468656EFB0101702F
:10041600DC011B700500626567696E0006020170EB
:10042600E2011B7005007768696C65000D020170BA
:10043600F601BF701B700600726570656174150267
:10044600017037020A021B700500756E74696C0034
:100456001E02017038703170B101E5011B70050094
:10046600616761696E0027020170A6012A70E501C5
:100476001B700200646F32020170A6018A72E201EB
:100486004F719A021B7004006C6F6F703C02017012
:10049600A601B87281021B7005002B6C6F6F70008D
:1004A60046020170A601A97281021B7005006C65E7
:1004B600617665004F020170A601C372EE019A02D1
:1004C6001B7003003F646F0059020170A6017002A1
:1004D600F6013F02BF709A021B7001706575557D6B
:1004E600AC70FA70317078026E75F170F8711B702D
:1004F60007FF656E646C6F6F700064020170E50142
:100506008E02B47031708A020A022A7083021B704E
:1005160002FF6C3E7B020170AD027470747038701D
:10052600FEFFAD0254721B7002FF3E6C8B0201701F
:10053600617DAD025472AD0274707C701B7003FF56
:100546006C70300097026A704200897B937B02FFD1
:100556006C70A20243701D0106FF637265617465CB
:10056600AA0201708301E302A6014D701B7006FF0B
:10057600686561646572AF020170AE75FA70FA70F3
:10058600AC7023713170D102AC70387000FF1772F5
:100596008277F1704E73B101F1701B703870F0FF05
:1005A6003C7807FF776C73636F706500BA02E87B6F
:1005B6004000897B937B06FF72657665616CD40289
:1005C600017074015E757470B4703170EE0274015E
:1005D6007470BF702A731B700500646F65733E00EC
:1005E600DE020170A6010703A6010E94A601FC0215
:1005F6001B709A938A93CB0101967F916F91BF935B
:10060600AF93DB010C9405700170F17074015E7597
:1006160074704E73537C62731B7001FF3A00EF02D5
:10062600017083011E03D4701B7007FF3A6E6F6E54
:10063600616D650010030170AE75AC707B017C7056
:10064600A601017033031B7001003B001803017003
:10065600A6011B703B03E3021B7001FF5D0027032D
:1006660001705C7D4B757C701B7001005B00300374
:1006760001704F714B757C701B7008FF7661726953
:1006860061626C6538030170BF755203617DC87580
:100696001B7008FF636F6E7374616E7440030170A4
:1006A6008301E302A6014370B1011B7004FF757359
:1006B60065724C0301708301E302A6015370B10118
:1006C6001B700700726563757273650059030170CC
:1006D6007B017470B1011B7009FF696D6D656469FA
:1006E600617465006403017011044E73AC70BB73D2
:1006F6003870FF7F0E72BF7062731B7006005B63FB
:100706006861725D6F030170A6013870E578B1010A
:100716001B70060061626F72742281030170C174DE
:10072600A601A3031B7005FF61626F7274008C0340
:10073600017046713C7806FF3F61626F72749603E2
:100746000170DC703170A903A3779B036E751B7073
:1007560009FF6765742D737461636B009E030170F6
:10076600AC705E75BF704E73AC70FA704F71BF702F
:1007760070023170C9038A729B7230725875CA70E2
:1007860098714E73BF704671A972BF036E75F17092
:100796001B7009FF7365742D737461636B00AB0383
:1007A600017065752A73BF704F7170023170E10375
:1007B6008A725E7576752A73B872DC03D4701B7004
:1007C60009FF6D61702D737461636B00CC0301705A
:1007D600AC705E75BF704E735875347D70023170A3
:1007E60006048A729B724E73BF70FA70037125708D
:1007F600B47031700204F170D470C3721B70F17062
:10080600617DA972F503D4704F711B700BFF67658C
:10081600742D63757272656E7400E303017038702F
:1008260048004E731B7009FF6765742D6F7264650F
:1008360072000904017038704C00B2031B7007FF88
:10084600636F6D706172650016042904BF93AF93E0
:100856008C0189919991DC01899199919C018991E9
:100866009991FC01ED90F190EF1451F40A9519F06D
:100876002A95C1F701C02A95022B11F4882702C0D8
:100886008FEF00C0982FAF91BF910C94057007FFB2
:100896006E66613E6C66610022040170477C2A72B6
:1008A600FF7198711B7002FF2E734A040170847ADF
:1008B6004074E577847A4F717002317068048A72E9
:1008C6009B72AF744074B87263041B7006FF632199
:1008D6004073706956046F0403D099270C94057011
:1008E6008EBD0DB5087F0DBD0DB507FFFACF8EB5D0
:1008F600089505FF6E4073706900690482048C01D7
:1009060089919991FC01C8012EBC2DB527FFFDCF19
:100916002EB521930197C1F7899199910C94057091
:1009260005FF6E21737069007C0499048C0189911E
:100936009991FC01C80121912EBD2DB527FFFDCF50
:100946002EB50197C1F7899199910C9405700BFF0B
:100956006170706C7475726E6B65790093040170CA
:10096600B8007174397BE57740753870E803BD715E
:10097600EB70DD752577707704006B487A20A377D6
:100986001B700BFF7365742D63757272656E740050
:10099600AA040170387048002A731B7008FF776F2D
:1009A60072646C697374C4040170B7754F71CA7050
:1009B6002A73AC705E756E7BB8751B700EFF666F22
:1009C6007274682D776F72646C697374D1044370A6
:1009D6004A0009FF7365742D6F7264657200E10445
:1009E600017038704C00D3031B700FFF7365742DB4
:1009F6007265636F676E697A65727300EC040170E5
:100A060038705E00D3031B700FFF6765742D726527
:100A1600636F676E697A65727300F80401703870E7
:100A26005E00B2031B7004FF636F64650705017007
:100A36008301E302AE75807BB1011B7008FF656E12
:100A4600642D636F646516050170A6010C94A601FA
:100A560005701B7008FF286D61726B657229210590
:100A66006A706A00897B937B0800706F7374706F7D
:100A76006E652D050170B079AD7AAC70FA70807B29
:100A8600807BBB732570F170807BBB73B1011B70DB
:100A960003FF32724000370550059A938A93EF910F
:100AA600FF918F919F919F938F93FF93EF939A93CB
:080AB6008A93CF010C94057036
:10E00200BF93AF93DB0111966EF0FD01EE0FFF1F80
:10E01200659175911196FB01EE0FFF1F0591159108
:10E02200F8010994E8946CE974E7F5CF04FF657888
:10E0320069744B051C70AF91BF91E6CF07FF6578FD
:10E0420065637574650017702670BC01899199919A
:10E05200E2CF2B70FD01EE0FFF1FA591B591D4CF3A
:10E062003270982B89919991A9F31196CDCF39707D
:10E072009A938A93FD01EE0FFF1F85919591119658
:10E08200C3CF43709A938A93FB013196EE0FFF1F21
:10E0920085919591B9CF4D709A938A93CB01019650
:10E0A200B3CF53709A938A93FB013196EE0FFF1F01
:10E0B20085919591840D951DA7CF07FF2876616CF8
:10E0C200756529001F7001708301E302A6016A7061
:10E0D2001B700E94FC02AC70807BBB7325701B70AE
:10E0E20001FF40005E707570FC01819191918CCFAF
:10E0F20001FF210071707D70FC01899199919183DA
:10E1020080838991999180CF02FF63217970897010
:10E11200FC018991999180838991999175CF02FF30
:10E12200634085709470FC01992780816DCF02FF56
:10E13200407590700170F172987174701B7002FFDB
:10E14200217598700170F17298717C701B7003FFD9
:10E1520064757000A070AD709A938A9355CF04FFD6
:10E162003F647570A870B570082F092B11F09A934F
:10E172008A934ACF04FF73776170B070C0708C01CC
:10E18200899199911A930A933FCF04FF6F76657232
:10E19200BB70CB709A938A938A819B8135CF04FF9F
:10E1A20064726F70C670D570899199912DCF03FFFB
:10E1B200726F7400D070DD708C0129913991899150
:10E1C20099913A932A931A930A931ECF03FF6E6989
:10E1D2007000D870EC70229617CF02FF723EE77083
:10E1E200F2709A938A938F919F910ECF02FF3E72A3
:10E1F200EE70FB709F938F938991999105CF02FFE7
:10E202007240F77004719A938A938F919F919F93B2
:10E212008F93FACE02FF3C3E00710170557D15715D
:10E222001B7002FF303D0B711671982BD1F530C077
:10E2320002FF303C12711D7197FD2AC032C002FFED
:10E24200303E19712471821593055CF151F120C0A1
:10E2520003FF64303E0020712E718215930589916F
:10E26200999182059305ECF0E1F012C003FF64304E
:10E272003C0029713C71229697FD0C9449710C94D3
:10E28200527104FF74727565377147719A938A935C
:10E292008FEF9FEFB9CE01FF3000427150719A9318
:10E2A2008A93C101B1CE02FF753C4C71587129911C
:10E2B200399182179307A8F3A1F3EACF02FF753EC3
:10E2C20054710170BF7057711B7001FF3C005F7188
:10E2D2006A7129913991281739071CF7D9CF01FFA3
:10E2E2003E00667174712991399128173907CCF271
:10E2F200C1F2CECF04FF6C6F673270718071FC0186
:10E30200992780E18A9522F0EE0FFF1FD8F77CCE85
:10E312009A957ACE01FF2D007B718F710991199127
:10E32200081B190BC80170CE01FF2B008B7199716C
:10E3320009911991800F911F67CE02FF6D2A957185
:10E34200A2718C01899199919C0131027001209FE7
:10E35200C0013003F308900DE11CF31C1203F30813
:10E36200900DE11CF31C9A938A93C7014DCE06FFD0
:10E37200756D2F6D6F649E71BE717C01299139910B
:10E382000991199140E15527000F111F221F331FD8
:10E39200551F2E153F05520518F003952E193F09FA
:10E3A2004A9589F73A932A93C8012ECE03FF756DD9
:10E3B2002A00B871DC718C0189919991809FF001DA
:10E3C20022273327909FF00D211D331D819FF00DD1
:10E3D200211D331D919F200D311DCF019A938A93E8
:10E3E200C90112CE06FF696E76657274D771F97132
:10E3F2008095909509CE02FF322FF37100729595A8
:10E40200879502CE02FF322AFC710772880F991F8C
:10E41200FBCD03FF616E640003720F7209911991C3
:10E4220080239123F1CD02FF6F720A721872099153
:10E432001991802B912BE8CD03FF786F7200147233
:10E4420022720991199180279127DECD02FF312B8B
:10E452001D722B720196D8CD02FF312D27723172B7
:10E462000197D2CD06FF6C73686966742D7239729A
:10E47200FC018991999131971AF0880F991FFBCF6E
:10E48200C3CD06FF72736869667433724872FC0109
:10E492008991999131971AF096958795FBCFB4CDD2
:10E4A20002FF2B2142725572FC01899199912081C0
:10E4B2003181820F931F8083918389919991A4CD99
:10E4C20003FF72704000517266729A938A938DB7FD
:10E4D2009EB79ACD03FF72702100617270722FB7DE
:10E4E200F8948DBF9EBF2FBF899199918DCD03FF67
:10E4F200737040006B727D729A938A93CE0184CDC1
:10E5020003FF7370210078728672EC0189919991F0
:10E512007BCD8B7229913991E0E83E0F821B930BE0
:10E522003F932F939F938F93899199916DCD01FF83
:10E53200690081729C729A938A938F919F91EF9155
:10E54200FF91FF93EF939F938F938E0F9F1F5CCD4D
:10E55200AA72EF91FF91E80FF91F899199911BF02F
:10E56200FF93EF9377CD0F911F9111964DCDB97215
:10E57200EF91FF913196BBF3F3CF06FF756E6C6F8F
:10E582006F709872C4721F910F911F910F913CCDC1
:10E5920006FF636D6F76653EBE72CF72BF93AF9317
:10E5A200E991F991A991B991092F082B41F0E80F4E
:10E5B200F91FA80FB91F1E9112930197E1F7AF91AE
:10E5C200BF918991999120CD02FF3E3CC972E972B7
:10E5D200092F982F802F18CD03FF75704000E57228
:10E5E200F2729A938A93C2010FCD03FF75702100D4
:10E5F200ED72FB722C018991999106CD03FF316D69
:10E602007300F6720473E0EAFFE03197F1F7FCCC95
:10E6120003FF323E7200FF720E73FC0189919991E1
:10E622009F938F93FF93EF9389919991EDCC03FF81
:10E6320032723E0009731D739A938A93EF91FF9190
:10E642008F919F919A938A93CF01DECC02FF21652D
:10E6520018732B73FC01899199912FB7F89428D0E4
:10E6620000B5081709F00BD0319622D000B5091772
:10E6720011F0892F04D02FBF89919991C5CCF999B6
:10E68200FECF07B700FDFDCFF2BDE1BD80BDFA9A16
:10E69200F99A089502FF406527734F732FB7F894D4
:10E6A200FC0106D080B5319603D090B52FBFACCC1B
:10E6B200F999FECFF2BDE1BDF89A089502FF2169F2
:10E6C2004B73E87B6800897B937B09FF2821692DC6
:10E6D2006E72777729005F736E731FB71F93F8947A
:10E6E2009C0189919991AF93BF93CF93DF9309D006
:10E6F200DF91CF91BF91AF91899199911F911FBFE6
:10E7020083CC11D0E094F0948E219F21982B21F09C
:10E71200B394F90102E020D0F90104E01DD0F9011F
:10E7220000E11AD00895F901E078FF7FEF01A0E837
:10E73200B0E0FE01EE0FFF1F45915591FE01E21779
:10E74200F30711F00A0102C07A010C01002704D07C
:10E752002196119771F70895F999FECF17B710FD19
:10E76200FDCFEE0FFF1F016007BFE895089502FF7E
:10E7720040696673BC73FC01EE0FFF1F8591959192
:10E7820043CC03FF6E3E7200B873C773FC01082FBF
:10E79200899199919F938F930A95D1F7EF93FF9364
:10E7A2008991999131CC03FF6E723E00C273D97385
:10E7B2009A938A93FF91EF910E2F8F919F919A9343
:10E7C2008A930A95D1F7CF011FCC03FF64322A0046
:10E7D200D473EB7309911991000F111F881F991FB0
:10E7E2001A930A9311CC03FF64322F00E673F97374
:10E7F2000991199195958795179507951A930A93FB
:10E8020003CC02FF642BF473067429913991E990C9
:10E81200F99049915991240F351F8E1D9F1D3A93EE
:10E822002A93F2CB02FF642D027417742991399155
:10E83200E990F99049915991421B530BE80AF90A60
:10E842005A934A93C701E0CB07FF64696E766572FB
:10E85200740013742C740991199180959095009508
:10E8620010951A930A93D0CB02FF643D2574017070
:10E872001674177215711B7002FF752E35740170B4
:10E882004F712D771B7003FF752E72003D7401705E
:10E892004F71BF7036771B700DFF73686F772D77DE
:10E8A2006F72646C697374004474017038705C74C4
:10E8B200BF702C7C1B700170477CA377E577467193
:10E8C2001B7005FF776F726473004D7401703870AE
:10E8D2004E004E7356741B7004FF2B696E74627483
:10E8E2007274789491CB04FF2D696E746D7479748F
:10E8F200F8948ACB04FF696E7421747401703870C5
:10E90200000098712A731B7004FF696E74407B7457
:10E9120001703870000098714E731B7008FF696EA9
:10E92200742D747261708574967480931601899146
:10E932009991689469CB01703870160193703870A0
:10E94200000098714E732570A7741B70A87401D0D3
:10E952005BCB189504FF7069636B8F7401702A7228
:10E9620058757C72987174701B7002002E22AB7401
:10E972000170C174A601A3771B7002007322B674E2
:10E9820001703870220083794B7574703170CA74CB
:10E99200D2011B7004FF66696C6CBE740170DC707E
:10E9A200DC70B4703170DC74347D8A72AC709B722E
:10E9B2008870B872D774D4701B700BFF656E76695D
:10E9C200726F6E6D656E7400CB744370460009FF02
:10E9D200776F72646C697374730000000170387031
:10E9E20008001B7004FF2F706164E87401707C7270
:10E9F20084758E711B7005FF2F686F6C6400F37451
:10EA020001708475BF758E711B700AFF666F727418
:10EA1200682D6E616D65FC74017070770700616D21
:10EA2200666F727468001B7007FF76657273696F98
:10EA32006E000675017038703D001B7003FF637035
:10EA420075001575017038703B00CF771B7008FF99
:10EA52006D63752D696E666F1F75017038703700B2
:10EA62001B7005FF2F757365720028750170387071
:10EA720026001B7005FF665F63707500DE7401700F
:10EA8200387000243870F4001B7005FF73746174D1
:10EA920065003B7543701F0104FF62617365467533
:10EAA20053700C0005FF63656C6C73004D75077243
:10EAB20005FF63656C6C2B0053755F750296A4CAE3
:10EAC20004FF3264757059750170CA70CA701B7088
:10EAD20005FF3264726F700061750170D470D4707A
:10EAE2001B7004FF7475636B69750170BF70CA7027
:10EAF2001B7003FF3E696E0072755370180003FFAE
:10EB0200706164007A750170BF7538702800987161
:10EB12001B7004FF656D69748075E87B0E00B17B24
:10EB2200BD7B05FF656D69743F008A75E87B100047
:10EB3200B17BBD7B03FF6B6579009275E87B1200A8
:10EB4200B17BBD7B04FF6B65793F9B75E87B14004D
:10EB5200B17BBD7B02FF6470A3756A703A00897B4A
:10EB6200937B05FF656865726500AB756A703E0050
:10EB7200897B937B04FF68657265B2756A703C009D
:10EB8200897B937B05FF616C6C6F7400BB750170B0
:10EB9200BF7598716E7BC0751B7003FF62696E0052
:10EBA200C3750170617D51757C701B7007FF6465D0
:10EBB20063696D616C00CE75017038700A00517521
:10EBC2007C701B7003FF68657800D7750170387020
:10EBD200100051757C701B7002FF626CE37543700C
:10EBE200200007FF7475726E6B657900ED75E87B26
:10EBF2004400897B937B04FF2F6D6F64F27501766D
:10EC02009C0109911991412F432717FF04C01095C8
:10EC120000950F5F1F4F37FF04C0309520952F5F7F
:10EC22003F4FEE24FF1851E1001F111F5A9539F48E
:10EC320047FF04C0109500950F5F1F4F0BC0EE1CDD
:10EC4200FF1CE21AF30A20F4E20EF31E8894ECCFC2
:10EC52000894EACFFA92EA92C801D6C905FF752F45
:10EC62006D6F6400FC750170FA704F71F170BD71C7
:10EC72001B7006FF6E65676174652F760170F8710F
:10EC82002A721B7001FF2F003A7601700076EB703A
:10EC92001B7003FF6D6F6400437601700076D470C1
:10ECA2001B7003FF616273004A76577699231AF448
:10ECB200809590950196A8C903FF6D696E00527602
:10ECC20001706575737131706776BF70D4701B7097
:10ECD20003FF6D6178005D76017065756971317051
:10ECE2007376BF70D4701B7006FF77697468696EA3
:10ECF20069760170CA708E71FA708E71F1705771F7
:10ED02001B7007FF746F7570706572007576017005
:10ED1200AC703870610038707B007A76317094760E
:10ED22003870DF000E721B7007FF746F6C6F7765AF
:10ED3200720082760170AC703870410038705B00EE
:10ED42007A763170A7763870200017721B7003FF35
:10ED5200686C640095764370210104FF686F6C64EF
:10ED6200A8760170AC76AC7074703072AC70FA70C8
:10ED7200BF707C70F17088701B7002FF3C23AE760E
:10ED820001708475AC767C701B7001FF2300BE7627
:10ED92000170517574704677DC7038700900CA7062
:10EDA20069713170D7763870070098713870300009
:10EDB2009871B2761B7002FF2373C6760170C97612
:10EDC2006575177215713170E0761B7002FF233E74
:10EDD200DC7601706E75AC7674708475CA708E7153
:10EDE2001B7004FF7369676EE77601701C713170E6
:10EDF200FD7638702D00B2761B7003FF642E720010
:10EE0200F2760170FA707675A97CC176DF76DC70D5
:10EE1200F676EA76F170CA708E71EE77FE771B7025
:10EE220002FF2E72FE760170FA703D7DF17002775C
:10EE32001B7002FF642E117701704F710277E57724
:10EE42001B7001FF2E001A7701703D7D1D771B702C
:10EE520003FF75642E00227701704F713677E577D4
:10EE62001B7004FF75642E7229770170FA70C176E7
:10EE7200DF76EA76F170CA708E71EE77FE771B70DC
:10EE820006FF75642F6D6F6432770170FA704F71EF
:10EE92000371BD71F170BF70FA70BD71F1701B70BA
:10EEA20006FF64696769743F417701708876AC70C8
:10EEB200387039007371387000010E729871AC703D
:10EEC200387040017371387007010E728E7138709C
:10EED20030008E71AC705175747057711B70017077
:10EEE2000371CF77F170CA702A72FF7198712A721A
:10EEF200FA701B7002FF732C51770170AC7082772D
:10EF02001B700170B101AC70FF71767506728E7163
:10EF1200FA704F717002317095778A72AC707470AA
:10EF2200B1015E75B8728F77F170237131709C7781
:10EF3200AC709370B101D4701B7005FF6974797065
:10EF420065007B770170AC70FF71767506728E7109
:10EF5200FA704F7170023170B7778A72AC70BB73FE
:10EF6200AC70C477C0772A72B872AF77F170237130
:10EF72003170BE77AC70BB73C477D4701B700170F4
:10EF8200E872C4771B7001703870FF000E728E75C4
:10EF92001B7006FF69636F756E749E770170AC70AB
:10EFA2002A72BF70BB731B7002FF6372CA77017053
:10EFB20038700D008E7538700A008E751B7005FF53
:10EFC200737061636500D5770170F0758E751B7083
:10EFD20006FF737061636573E07701704F716D7640
:10EFE200AC703170F877E57730722A70F177D470AF
:10EFF2001B7004FF74797065E9770170347D7002CB
:10F00200317009788A729B7293708E75B872047827
:10F012001B7001FF2700FA770170B079AD7A0A7B85
:10F02200557D31701678D4701B703870F3FF3C78C0
:10F0320007FF68616E646C6572000A7853700A009B
:10F0420005FF636174636800197801707C72FA705D
:10F052001F787470FA7065721F787C702570F17079
:10F062001F787C70F170D4704F711B7005FF74684B
:10F07200726F770021780170AC701571317043782E
:10F08200D4701B701F7874706F72F1701F787C706F
:10F09200F170BF70FA708572D470F1701B7005FF49
:10F0A20063736B69700037780170FA70AC703170FD
:10F0B2006478CA7093700371557D317064785C7D99
:10F0C200A1792A705778F170D4701B7005FF6373B1
:10F0D20063616E0050780170FA70CA70AC70937000
:10F0E2000371557D157131708178BF703072BF70B8
:10F0F200CA701C711571317081782A722A706F780A
:10F10200EB70CA708E71F170D4701B7006FF616370
:10F112006365707467780170CA7098713072CA70D2
:10F122009F75AC70CD7815713170BF78AC70387046
:10F132000800557D3170AF78D470DC7065757371DD
:10F14200FA70DC70DC70F1703170AD78C5783072B5
:10F15200FA70CA70F17042012A70BD78AC70F07515
:10F1620069713170B678D470F075AC708E75CA70F2
:10F1720088702A72CA704E012A709178D470EB702E
:10F18200BF708E71D8771B70017038700800AC7038
:10F192008E75E5778E751B700170AC7038700D003E
:10F1A200557DBF7038700A00557D17721B7006FFBF
:10F1B200726566696C6C8778E87B1A00B17BBD7BEF
:10F1C20004FF63686172D8780170B079D47093706B
:10F1D2001B7006FF6E756D626572E1780170517584
:10F1E2007470FA703379FA7046793379F170177264
:10F1F200FA70AC701571317006796E75F170D47059
:10F20200F17051757C704F711B700D734F714F719E
:10F212001C736479B470317028795C7D557D3170CE
:10F222001F79937038702E00557D31702079F170FE
:10F2320031701C79B67C617D2A702E79D4706E751E
:10F24200F170D470F17051757C704F711B706E75D6
:10F25200F17031702D793F765C7DF17051757C7063
:10F2620046711B700170CA70937038702D00557D05
:10F27200AC70FA7031703F795C7DA179F1701B70CE
:10F282004D700A00100002000A000170CA709370EB
:10F29200387023008E71AC704F71387004007A762A
:10F2A20031705C7941799871BB7351757C705C7D6A
:10F2B200A1792A705D79D4701B7007FF3E6E756D5F
:10F2C20062657200EA780170AC7031707D79CA7043
:10F2D20093705677157131707079D4701B70FA7013
:10F2E200DB7C517574703301F1702B01DB7C38705B
:10F2F2000100A1792A7065791B7005FF7061727334
:10F3020065005E790170FA7097797E757470A179E3
:10F31200F1706C78AC702A727E7554725C7DA17942
:10F322001B7006FF736F757263657E79E87B16004A
:10F33200B17BBD7B07FF2F737472696E6700927990
:10F342000170DC70CA709871DC70DC708E711B7099
:10F352000AFF70617273652D6E616D659B79017034
:10F36200F075B4791B700170FA7097797E757470BC
:10F37200A17903715578F1706C78657598719779F8
:10F38200D4708E717E757C701B7009FF66696E6425
:10F392002D6E616D6500A97901703870D979387068
:10F3A2004C00EA0315713170D8796E754F711B707C
:10F3B2000170FA706575F170FA7BAC703170E679A4
:10F3C200FA70EB70EB70F17046711B700170707720
:10F3D2000300206F6B00A3771B700170707702002F
:10F3E2003E20D877A3771B70017070770400203F0E
:10F3F2003F20A37751757470FA70DD7525777E759D
:10F4020074702577F17051757C701B7004FF7175F3
:10F412006974C6790170A602AD027C706C7A85723D
:10F42200797A6F723B034B757470157131701A7A69
:10F43200EE79DD783170147A3870927A2678B47069
:10F4420031702C7AAC703870FEFF697131702A7A93
:10F45200F5792A700C7AE7792A70147A1B7005FF05
:10F46200706175736500077AE87B23019D7BA77B3A
:10F4720004FF636F6C64307A3E7AA4B6222433248C
:10F4820024BEE0E0F1E02192E030E9F7F131D9F772
:10F49200E5E2F1E02F010FEF0DBF048310E11EBF83
:10F4A2001583CFEAC683D0E1D783AFE5BAE70C94E0
:10F4B200057004FF7761726D397A0170267D3870AC
:10F4C200547B3870357AC87B3B03F8750B7A03FF9F
:10F4D200737030005A7A6A700600B17BBD7B02FFFE
:10F4E2007370687A5370080003FF72703000707A8C
:10F4F20001707D7A74701B705370040005FF64659F
:10F5020070746800757A01706C7A7C728E71FF710A
:10F5120030721B7009FF696E7465727072657400D7
:10F522007F7A0170B079AC703170A27AAD7A4B7586
:10F53200747031709D7A807BBB7325702C7B2A702E
:10F54200937A6E751B700DFF646F2D7265636F6722
:10F552006E697A6572008B7A01703870B97A387088
:10F562005E00EA0315713170B87A6E751F7B1B70ED
:10F572000170DC70DC7065750D73DC7025701C73B6
:10F58200DC70AC701F7B557D3170CA7AD4704F71BC
:10F592001B70EB70EB7046711B7005FF723A6E7553
:10F5A2006D00A47A4D70547BC701C70106FF723A01
:10F5B200646E756DCE7A4D70547B4D7D4D7D07FF27
:10F5C2007265633A6E756D00D77A0170EF783170AB
:10F5D200F27A5C7D557D3170F07AD37A1B70DC7AD9
:10F5E2001B701F7B1B7008FF7265633A776F726432
:10F5F200E07A0170CD79AC7015713170037BD470F3
:10F602001F7B1B700A7B1B7006FF723A776F726456
:10F61200F47A4D700E7B127B4D7D0170D470257093
:10F622001B7001701C713170187BB1011B70257049
:10F632001B7006FF723A6661696C057B4D70237B15
:10F64200237B237B01703870F3FF3C7806FF3F7306
:10F652007461636B1A7B0170847A1C713170347B24
:10F662003870FCFF3C781B7003FF76657200277BC5
:10F6720001700D75A377E577517574701B75DD7593
:10F682003D7DC176C97638702E00B276DF76EA7695
:10F69200FE7751757C70E5772375A3771B7004FFA5
:10F6A2006E6F6F70357B01701B7006FF756E757320
:10F6B2006564507B01707C72BF758E711B70020095
:10F6C200746F567B01700D78467D4B757470317086
:10F6D200747BA6016E7BB1011B700170F170AC707E
:10F6E200807BFA70BB73AC70807B807BBB732570B0
:10F6F2001B7007FF692D63656C6C2B00607B0170CA
:10F702002A721B7007FF45646566657240007A7B4A
:10F712000170BB734E731B7007FF456465666572AB
:10F722002100837B0170BB732A731B7007FF526435
:10F732006566657240008D7B0170BB7374701B70CF
:10F7420007FF5264656665722100977B0170BB7387
:10F752007C701B7007FF5564656665724000A17B73
:10F762000170BB73F172987174701B7007FF55645E
:10F77200656665722100AB7B0170BB73F172987193
:10F782007C701B7006FF646566657221B77B017031
:10F79200467DAC70807B807BBB7325701B7006FF3F
:10F7A200646566657240C37B0170467DAC70807B88
:10F7B200BB7325701B7007FF28646566657229009C
:10F7C200D07B01708301E302A601E87B1B700E94DB
:10F7D200FC02AC70807BBB73257025701B700FFF21
:10F7E2007365617263682D776F72646C69737400FC
:10F7F200DC7B0170FA704F7138700F7CF1702C7CD9
:10F80200AC7015713170097C6E75D4704F711B70BC
:10F81200AC70537CBF70690156011B700170FA70A5
:10F82200D47065750371477C5D7C31701D7CF1700D
:10F83200D4704F7146711B706E75F1704F711B70F1
:10F8420011FF74726176657273652D776F72646CE5
:10F8520069737400F07B01704E73AC7031703D7C43
:10F8620065750D73BF7025701C73DC7031703D7C43
:10F872005004BB732A702E7C6E751B700BFF6E6179
:10F882006D653E737472696E6700217C0170CF777B
:10F892003870FF000E721B7007FF6E66613E636672
:10F8A20061003F7C017050042A721B7008FF69637B
:10F8B2006F6D706172654D7C0170FA70CA70F17083
:10F8C2000E713170687C6E75D47046711B70BF709A
:10F8D2004F71700231708B7C8A72CA707470CA70F8
:10F8E200BB73AC7038700001577131707C7CBF7093
:10F8F2003870FF000E720E713170837C6E75467126
:10F90200C3721B702A72BF705E75BF7038700200BE
:10F91200A9726E7C6E754F711B7001FF2A00577CB5
:10F922000170A171D4701B7001FF6A008E7C01709E
:10F9320065723870070098717470657238700900CA
:10F942009871747098711B7004FF64616273957C86
:10F952000170AC701C713170AF7CB67C1B7007FFFC
:10F96200646E656761746500A57C01702B743870E4
:10F9720001004F7105741B7005FF636D6F766500A2
:10F98200B07CC37CBF93AF93E991F991A991B991EE
:10F99200092F082B21F01D9111930197E1F7AF91E7
:10F9A200BF91899199910C94057005FF327377612B
:10F9B2007000BD7C0170DC70FA70DC70F1701B703D
:10F9C2000AFF726566696C6C2D746962D67C01707F
:10F9D200047D38705A008C780A7D7C704F717E7578
:10F9E2007C7046711B700AFF736F757263652D74AC
:10F9F2006962E17C0170047D0A7D74701B7003FFF3
:10FA020074696200F47C43704B0104FF23746962E1
:10FA1200007D4370A50106FF65653E72616D067D3E
:10FA220001704F718A72CA704E73CA707C705E75B3
:10FA3200BF705E75BF70B872147D6E751B7008FF63
:10FA4200696E69742D72616D0C7D017038706C0085
:10FA5200F17238701C00FF71117D1B7006FF626F1E
:10FA6200756E6473207D0170CA709871BF701B70CF
:10FA720003FF733E64002F7D0170AC701C711B701C
:10FA820005FF3E626F647900397D2B720800326C8B
:10FA920069746572616C417D0170BF70C701C701F5
:10FAA2001B7001FF3D00477D01708E7115711B7047
:10FAB20001FF3100527D4370010001FF3200597D88
:0EFAC2004370020002FF2D315E7D4370FFFF96
:00000001FF
